:020000040800F2
:100000000807002029020008AF130008CF120008DB
:10001000AD130008B3040008D91600080000000062
:10002000000000000000000000000000B313000802
:10003000B504000800000000B1130008B513000863
:10004000430200084302000843020008430200087C
:10005000430200084302000843020008430200086C
:10006000430200084302000843020008430200085C
:10007000430200084302000843020008430200084C
:10008000430200084302000843020008430200083C
:10009000430200084302000843020008430200082C
:1000A000430200084302000843020008430200081C
:1000B000430200084302000843020008430200080C
:1000C00043020008430200084302000843020008FC
:1000D00043020008C1160008CD16000843020008BC
:1000E00043020008430200084302000843020008DC
:1000F00043020008430200084302000843020008CC
:1001000043020008430200084302000843020008BB
:1001100043020008430200084302000843020008AB
:10012000430200084302000843020008430200089B
:10013000430200084302000843020008430200088B
:10014000430200084302000843020008430200087B
:10015000430200084302000843020008430200086B
:10016000430200084302000843020008430200085B
:100170004302000843020008430200080000000098
:10018000430200084302000800F002F800F03CF8C7
:100190000AA090E8000C82448344AAF10107DA45E2
:1001A00001D100F031F8AFF2090EBAE80F0013F0F8
:1001B000010F18BFFB1A43F001031847B8150000E0
:1001C000D8150000103A24BF78C878C1FAD8520771
:1001D00024BF30C830C144BF04680C6070470000C1
:1001E0000023002400250026103A28BF78C1FBD840
:1001F000520728BF30C148BF0B6070471FB501F0E0
:10020000A7FA1FBD10B510BD00F01AF91146FFF78F
:10021000F5FF01F073FA00F038F903B4FFF7F2FFCD
:1002200003BC00F03FF90000094880470948004737
:10023000FEE7FEE7FEE7FEE7FEE7FEE7FEE7FEE796
:10024000FEE7FEE704480549054A064B70470000F3
:100250004D1400088901000808010020080700204B
:10026000080300200803002053EA020C00F0698014
:100270002DE9F04B4FF00006002B1FBFB3FA83F5BA
:1002800003FA05F424FA05F65E4012BF1643B2FAEB
:1002900082F502FA05F4C5F120051EBF22FA05FC1D
:1002A00044EA0C04203556EA044C4FEA144418BFC3
:1002B000641C4FF000084FF00009904271EB030CF2
:1002C00039D3002919BFB1FA81F701FA07F6B0FA5C
:1002D00080F700FA07F6C7F120071EBF20FA07FCD7
:1002E00046EA0C062037B6FBF4FCA7EB0507103FE7
:1002F00007F01F0BCBF120060CFA0BFB2CFA06F6CD
:1003000044BFB3460026202FA4BF5E464FF0000B2B
:100310005BEA060C08BF4FF0010B19EB0B09ABFBB6
:10032000027C48EB0608C01B06FB02CC0BFB03CC8F
:1003300071EB0C01C1E70B46024641464846BDE859
:10034000F08B13B54FF000004FF00001AFF30080C9
:10035000BDE81C40704740EA010370B59B072ED1F1
:100360004FF00136042A2AD308C810C99D1B9D43AB
:10037000121F15EAC61517D0D8B2E1B2401A50EADA
:10038000056110D198B2A1B2401A50EA05410AD1D4
:1003900023F07F4024F07F41401A50EA052102D12A
:1003A000180EA0EB146070BDA342DBD018BA21BABE
:1003B000884201D9012070BD4FF0FF3070BD0AB9ED
:1003C000002070BD10F8013B11F8014B63B1A3424E
:1003D0000AD1521E08D010F8013B11F8014B1BB195
:1003E000A34201D1521EEDD1181B70BD4FF0000287
:1003F00000B5134694469646203922BFA0E80C501B
:10040000A0E80C50B1F12001BFF4F7AF090728BFF5
:10041000A0E80C5048BF0CC05DF804EB890028BF71
:1004200040F8042B08BF704748BF20F8022B11F09A
:10043000804F18BF00F8012B704770477047704716
:10044000754600F02BF8AE4605006946534620F08D
:100450000700854618B020B5FFF7F4FEBDE8204040
:100460004FF000064FF000074FF000084FF0000B70
:1004700021F00701AC46ACE8C009ACE8C009ACE823
:10048000C009ACE8C0098D46704710B50446AFF30B
:1004900000802046BDE81040FFF7BFBE004870470F
:1004A000A400002001491820ABBEFEE72600020090
:1004B0007047FEE7704772B6FEE72DE9F04104464B
:1004C000876D00F065F9064694F83500002502288E
:1004D00006D08020606584F834500120BDE8F081AA
:1004E0002068016821F0160101602068416921F04F
:1004F00080014161206C08B9A06C20B120680168BE
:1005000021F0080101602068016821F0010101600B
:100510000CE000F03DF9801B052807D9202060651C
:10052000032084F8350084F83450D7E72068006849
:10053000C007EED194F85C103F208840B8600120DD
:1005400084F8350084F834500020C7E790F835105F
:10055000022903D08021416501207047052180F8E0
:1005600035100068016821F001010160002070472A
:1005700070B5044600F00CF90546601C02D0044832
:100580000078044400F004F9401BA042FAD370BD87
:10059000040000202DE9F84FDFF8BCA1002201255E
:1005A00003264FF00F090AF1040BAAF1040E00BF55
:1005B0000B6805FA02F42340A34270D10F7907F0CB
:1005C0000307012F01D0022F16D187684FEA420896
:1005D00006FA08FC27EA0C07D1F80CC00CFA08FC54
:1005E0004CEA070CC0F808C04768A7430C79C4F36D
:1005F000001494403C4344600C79E443A4070AD0BF
:10060000C4684FEA420C06FA0CF7BC438F6807FA3D
:100610000CF72743C7600C7904F00304022C12D1B5
:10062000D40800EB840CDCF820405707FF0E09FAD1
:1006300007F824EA0804D1F8108008FA07F848EA15
:100640000408CCF8208004684FEA420C06FA0CF744
:10065000BC430F7907F0030707FA0CF7274307603D
:100660004C6814F4403F70D03C4C276847F48047F6
:100670002760246822F0030704F480440094384C77
:1006800007EB040CDCF8084897074FEA177809FADB
:1006900008F7BC43334FB84202D1002724E054E0AE
:1006A000314FB84201D101271EE0304FB84201D18D
:1006B000022719E02E4FB84201D1032714E02D4F35
:1006C000B84201D104270FE02B4FB84201D10527D2
:1006D0000AE02A4FB84201D1062705E0284FB84268
:1006E00001D1072700E0082707FA08F72743CCF8CD
:1006F0000878DAF800405746D1F804C09C435FEA16
:10070000CC2C00D51C433C60DBF800405F46D1F8A0
:1007100004C09C435FEA8C2C00D51C433C60DEF88F
:1007200000407746D1F804C09C435FEA8C3C00D57A
:100730001C433C60084F083F3C68D1F804C09C4310
:100740005FEACC3C00D51C433C60521C102AFFF4ED
:100750002FAFBDE8F88F0000083C0140443802404C
:100760000030014000000240000402400008024046
:10077000000C024000100240001402400018024029
:10078000001C02400AB1816170470904FBE70000C8
:10079000014880687047000004000020024881681A
:1007A0000278114481607047040000200B4810B5A6
:1007B000016841F400710160016841F480610160E9
:1007C000016841F480710160032000F06FF80F2090
:1007D00000F006F800F024F8002010BD003C0240B4
:1007E00070B50D4D04464FF47A712878B1FBF0F0E6
:1007F0000A490968B1FBF0F000F00AFB48B9102C77
:1008000007D200222146501E00F030F800206C6014
:1008100070BD012070BD0000040000201000002009
:100820000A4808B5016841F480410160006800F49D
:10083000804000900548001F016841F08051016030
:10084000006800F08050009008BD0000443802406D
:10085000002809DB00F01F020121914040098000BF
:1008600000F1E020C0F8001170470000F0B40E4B1A
:100870001B680C46C3F30223C3F10705042D00D9FE
:100880000425191D072901D2002300E0DB1E0126E3
:1008900006FA05F1491E214099409E40761E1640F9
:1008A0003143F0BC00F019BF0CED00E0064900F048
:1008B000070208684FF6FF03184040EA0220034A87
:1008C00010430860704700000CED00E00000FA05DE
:1008D0002DE9F0470E46050065D0DFF81481D8F801
:1008E0000000F7B200F00700B04207D288F80070AD
:1008F000D8F8000000F00700B04254D128683D4C01
:10090000810712D5400703D5206840F4E0502060ED
:100910002878000703D5206840F4604020602068F4
:10092000A96820F0F000084320602878C0072DD087
:10093000304968680839012812D0022813D00328EA
:1009400011D00968890700292DDA216821F00301F7
:1009500001432160FFF71CFF814641F2883A0EE017
:1009600009688903EFE709688901ECE7FFF710FFE1
:10097000A0EB0901514502D90320BDE8F0872068AA
:10098000696800F00C00B0EB810FEFD1D8F80010CF
:10099000404601F00701B14207D90770006800F036
:1009A0000700B04201D00120E7E72878400705D5CD
:1009B0002068E96820F4E0500843206028780007A8
:1009C00006D52068296920F4604040EAC100206013
:1009D00000F038F82168084AC1F30311515CC8409F
:1009E0000649086006480068FFF7FAFE0020C4E7E1
:1009F000003C0240083802405A170008100000204E
:100A0000080000200448054900680968044AC1F349
:100A10008221515CC8407047100000200838024015
:100A20006A1700080448054900680968044AC1F3C8
:100A30004231515CC8407047100000200838024025
:100A40006A170008154810B5006810F00C02144829
:100A500013D04110042A0FD0082A0ED10F4C241FA6
:100A60002268236802F03F025B0207D52068C0F3CA
:100A70008810A0FB010106E0084610BD2168C1F303
:100A80008811A1FB00010023FFF7EEFB2168C1F3F1
:100A90000141491C4900B0FBF1F010BD083802408B
:100AA0000024F4002DE9F84F04006ED02078DFF820
:100AB0004C93C007A9F104054AD009F1040001686C
:100AC000C1F38101012908D00068C0F38100022828
:100AD0000AD1D9F80000400206D52868800337D52E
:100AE00060680028E1D033E06068B0F5803F10D046
:100AF000B0F5A02F286810D020F480302860286836
:100B000020F4802028606068A8B1FFF741FE064607
:100B10000DE0286840F48030F4E740F4802028603D
:100B2000F7E700BFFFF734FE801B642873D82868FE
:100B30008003F7D50CE0FFF72BFE064605E000BF6B
:100B4000FFF726FE801B6428F0D828688003F7D4BE
:100B50002078DFF8AC8280074FF0000A3ED5A74826
:100B6000001D016811F00C0F08D00068C0F381006F
:100B700002280BD1D9F80000400207D4286880076A
:100B800016D5E068012800D112E033E1E068B8B181
:100B90000120C8F80000FFF7FBFD064605E000BF96
:100BA000FFF7F6FD801B0228C0D828688007F7D51C
:100BB0002868216920F0F80040EAC10028600DE0B3
:100BC000C8F800A0FFF7E4FD064604E0FFF7E0FDEB
:100BD000801B02281FD828688007F7D420780007D8
:100BE00022D5864F87486169703771B10121016054
:100BF000FFF7CEFD064604E0FFF7CAFD801B022882
:100C000009D838688007F7D50EE0C0F800A0FFF7D4
:100C1000BFFD064605E082E0FFF7BAFD801B022813
:100C20007DD838688007F7D42078400768D5DFF88A
:100C3000CCB100270BF13C0BDBF80000C0000BD45B
:100C4000DBF8001041F08051CBF80010DBF8000019
:100C5000012700F0805000906B4E3068C00510D422
:100C6000306840F480703060FFF792FD009005E03E
:100C7000FFF78EFD0099401A022850D83068C00551
:100C8000F6D55E4EA0686C3601280FD00528306876
:100C900010D020F001003060306820F00400306097
:100CA000A068B8B1FFF774FD00900FE0306840F025
:100CB0000100F4E740F004003060F7E7FFF768FD5B
:100CC0000099411A41F28830814266D83068800725
:100CD000F4D50EE0FFF75CFD009007E0FFF758FD4C
:100CE0000099411A41F28830814256D83068800715
:100CF000F4D42FB1DBF8001021F08051CBF80010B4
:100D0000A069C8B33D49091D0968C1F381010229E1
:100D10004AD00228504607D0C8F8600000E03CE006
:100D2000FFF736FD04463BE04746C8F86000FFF792
:100D30002FFD064605E000BFFFF72AFD801B0228B5
:100D40002BD828688001F7D4D4E907010843A16AA9
:100D50002E4A490802EB0141626A41EA82110843C6
:100D600094F82C1040EA0161C9F80010012038669F
:100D7000FFF70EFD044606E03EE000BFFFF708FD6A
:100D8000001B022809D828688001F7D534E000BF8D
:100D9000FFF7FEFC001B022802D90320BDE8F88FF4
:100DA00028688001F4D427E00128F7D0D9F80000A2
:100DB000E26900F4800191421CD1226A00F03F01F7
:100DC000914217D147F6C071626A0140B1EB821FB0
:100DD00010D1A26A4FF0FF3300F4403103EB52020E
:100DE000B1EB024F06D194F82C1000F07060B0EB1C
:100DF000016F01D00120D1E70020CFE70438024085
:100E000000004742800E4742007000400000FFFF94
:100E100010B5401EB0F1807F01D3012010BD4FF00E
:100E2000E02460610F21601700F057FC0020A061F2
:100E300007202061002010BD18B5034690F842003D
:100E4000202801D0022018BD61B15AB101201863D9
:100E500000205863184600F017FC0028F3D1196BE6
:100E6000012901D0012018BD19680A68496800915C
:100E700019680C3151E8002F42F0100241E80024BB
:100E8000002CF5D118BD000070B5006810498842EB
:100E90001DD102220FA11048FFF75DFA0F4D4FF44C
:100EA000007430B103220EA10B48FFF754FA10B1C1
:100EB00006E0002200E0012221462846FFF762FCFE
:100EC000BDE87040032204490648FFF7B5BF70BD76
:100ED000001001404F4E00000000002000140240AE
:100EE0004F4646001400002070470000F8B5016826
:100EF00004460868CA684B6910F00F0F4FF00005F0
:100F000059D003F0010602F49077374365D0C1074A
:100F100005D0D10503D5616C41F001016164410741
:100F200005D5D90703D0616C41F0020161648107E6
:100F300005D5D90703D0616C41F004016164010754
:100F400007D502F02001314303D0616C41F0080164
:100F50006164616C00293AD0800604D5900602D500
:100F6000204600F0A9FA20684069616CC0F3801047
:100F7000090700D460B3204600F077FA2068406982
:100F8000400621D52068143050E8001F21F04001B0
:100F900040E80012002AF5D1E06BA8B17249016562
:100FA000E06BFFF7D3FA002811D0E06B016D01B0C0
:100FB000BDE8F040084783060FD593060DD52046BF
:100FC000BDE8F84000F078BA2046FFF78DFFF8BD85
:100FD0002046FFF789FF6564F8BD266B2023012EAC
:100FE0007ED1C6067CD5D6067AD5086848680090BA
:100FF00048694FF0020640064DD5E26B1068406824
:101000004FF480770004000C3AD0A18D814237D98B
:10101000E085D069B8422DD020680C3050E8001F20
:1010200021F4807140E80012002AF5D120681430C4
:1010300050E8001F21F0010140E80012002AF5D11C
:101040002068143050E8001F21F0400140E80012F1
:10105000002AF5D184F84230256320680C3050E82E
:10106000001F21F0100140E80012002AF5D1E06BCA
:10107000FFF723FA6663A08DE18D401A81B206E086
:10108000A18D8142A8D1D069B842A5D1666320461E
:10109000FFF7FAFEF8BDA08DE18D401A81B2E08D18
:1010A0000028F7D00029F5D020680C3050E8002F38
:1010B00022F4907240E80027002FF5D12068143008
:1010C00050E8002F22F0010240E80027002FF5D160
:1010D00084F84230256320680C3050E8002F00E08F
:1010E00006E022F0100240E80023002BF3D1CDE708
:1010F00005062BD5150629D594F841002128C9D11C
:10110000A068B0F5805F01D12069B0B1206A411CB0
:101110002162216800784860E08C401E0004000CC9
:10112000E084B7D12068C16821F08001C1602068E7
:10113000C16841F04001C160F8BD206A0088C0F379
:1011400008004860206A801C2062E5E74006F3D56D
:101150005006F1D5CA68204622F04002CA6084F8E1
:10116000413000F0B3F8F8BD5D14000870B504001C
:1011700004D094F84100002510B106E0012070BDB4
:1011800084F84050204600F023F8242084F84100E1
:101190002068C16821F40051C160204600F0EEF9DA
:1011A0002068016921F4904101612068416921F0C2
:1011B0002A0141612068C16841F40051C160656441
:1011C000202084F8410084F842006563002070BD4F
:1011D000F0B587B0044614216846FFF707F92A4F97
:1011E0002368002229490224032507262848BB42F8
:1011F00021D1264B14331F6847F010071F601B686E
:1012000003F0100305930B6843F001030B600968BA
:1012100002AB01F0010105916902CDE9001483E8F8
:1012200064006946FFF7B6F9002211462520FFF752
:101230001DFB252023E0174FBB4222D1134B103357
:101240001F6847F400371F601B6803F400330593E1
:101250000B6843F001030B60096802AB01F0010168
:1012600005910C21CDE9001483E864006946FFF77D
:1012700091F9002211462620FFF7F8FA2620FFF701
:10128000E7FA07B0F0BD000000100140303802401E
:101290000000024000440040704790F84130202B8D
:1012A00001D00220704779B172B101628284C28498
:1012B00000214164212180F841100068C16841F09B
:1012C0008001C16000207047012070477047FEE731
:1012D00070B586B014216846FFF788F815480024D9
:1012E000016841F020010160016801F020010591D1
:1012F000016841F080010160016801F08001059101
:10130000016841F0010101600068012200F0010064
:10131000094E5502059029463046FFF733FA012061
:101320000095CDE90104694630460394FFF732F990
:1013300006B070BD30380240001402400C4810B5B1
:101340000A4901604FF4E1314160002181600C22C3
:10135000C160C0E904128161C161FFF707FF002885
:1013600003D0BDE81040FFF7A6B810BD0010014043
:10137000140000200C4810B50A4901604FF4E13117
:101380004160002181600C22C160C0E904128161CA
:10139000C161FFF7EBFE002803D0BDE81040FFF766
:1013A0008AB810BD004400405C000020FEE7FEE764
:1013B00070477047FFF7F2B930B593B030216846F7
:1013C000FFF714F814210CA8FFF710F81D480025AA
:1013D000016841F080510160006800F08050119078
:1013E0001948016841F4804101600068022400F45A
:1013F0008040119001200090000401908001CDE90F
:10140000064008AA0420A82182E813000B90684631
:10141000FFF748FB08B172B6FEE70CA90F2081E880
:1014200031004FF4A0500F904FF4805010900521E0
:101430000CA8FFF74DFA002801D072B6FEE713B0F2
:1014400030BD000040380240007000400248016892
:1014500041F470010160704788ED00E010B5806BC9
:101460000021C185FFF740FD10BD01680C3151E836
:10147000002F22F4907241E80023002BF5D101687F
:10148000143151E8002F22F0010241E80023002B23
:10149000F5D1016B012909D101680C3151E8002F08
:1014A00022F0100241E80023002BF5D1202180F822
:1014B000421000210163704708B590F842102229BC
:1014C00001D0022008BD82684FF480539A4201D1B6
:1014D000016921B1816A9A421BD04AB10AE00268CF
:1014E000816A5268C2F308020A80816A891C08E096
:1014F000026972B10268526802F07F020A70816A62
:10150000491C8162C18D491E0904090CC18503D0A3
:101510001BE002685268F1E70168CA6822F0200205
:10152000CA600168CA6822F48072CA6001684A69A8
:1015300022F001024A61202180F84210002141631B
:10154000026B012A03D0FFF7A7FE002008BD01634C
:1015500001680C3151E8002F22F0100241E800230D
:10156000002BF5D101680A68D20602D50A684968DD
:101570000091818DFFF788FCE7E7000070B5044615
:1015800000680169E26821F4405111430161216959
:10159000A068E26908436169114308432168CA6889
:1015A00049F20C639A430243CA6020684169A26908
:1015B00021F440711143416131492068884202D0D1
:1015C0003049884202D1FFF72DFA01E0FFF71AFAFD
:1015D000E2690023192164253226B2F5004F6268C2
:1015E00028D0A0FB0101930F9200FEF73DFE0146BB
:1015F000B0FBF5F06FF01802504301EB800006EBF2
:101600000010B0FBF5F000F0F002B1FBF5F002EBDA
:101610000012B1FBF5F06FF01803584301EB8000A6
:1016200006EB0010B0FBF5F000F00F00216810444D
:10163000886070BDA0FB010192185B41FEF714FEAB
:101640000146B0FBF5F00201B1FBF5F06FF01803B5
:10165000584301EB800006EBC000B0FBF5F000F052
:10166000F80002EB4002B1FBF5F0584301EB8000BB
:1016700006EBC000B0FBF5F000F00700D6E7000075
:10168000001001400014014081628285C285002162
:101690004164222180F84210016921B10168CA68C1
:1016A00042F48072CA6001684A6942F001024A61EC
:1016B0000068C16841F02001C1600020704700004F
:1016C0000148FFF713BC0000140000200148FFF799
:1016D0000DBC00005C000020FEE70907090E002891
:1016E00004DB00F1E02080F80014704700F00F00E8
:1016F00000F1E02080F8141D70470000FFF756F855
:10170000FFF75AFEFFF7E4FDFFF718FEFFF732FE82
:1017100003220A490A48FFF78FFB022209A10A485F
:10172000FFF7BBFD6420FEF723FF032207A1064855
:10173000FFF7B3FD6420FEF71BFFEEE7000000207B
:10174000140000204F4E00005C0000204F46460071
:101750004FF04070E1EE100A7047000000000000FA
:10176000000001020304060708090000000001024E
:10177000030400009417000800000020140000007B
:10178000C4010008A817000814000020F406000097
:10179000E00100080000000001000000100000004F
:0817A000000000000024F40029
:040000050800018965
:00000001FF
