:020000040800F2
:1000000068050020A1010008E3160008711500082A
:10001000E11600089D0800085F19000800000000B4
:10002000000000000000000000000000E7160008CB
:100030006509000800000000E5160008E916000840
:10004000BB010008BB010008BB010008BB010008A0
:10005000BB010008BB010008BB010008BB01000890
:10006000BB010008BB010008BB010008BB01000880
:10007000BB010008BB010008BB010008BB01000870
:10008000BB010008BB010008BB010008BB01000860
:10009000BB010008BB010008BB010008BB01000850
:1000A000BB010008BB010008BB010008BB01000840
:1000B000BB010008BB010008BB010008BB01000830
:1000C000BB010008BB010008BB010008BB01000820
:1000D000BB010008BB010008BB010008BB01000810
:1000E000BB010008BB010008BB010008BB01000800
:1000F000BB010008BB010008BB010008BB010008F0
:10010000BB010008BB010008BB010008BB010008DF
:10011000BB010008BB010008BB010008BB010008CF
:10012000BB010008BB010008BB010008BB010008BF
:10013000BB010008BB010008BB010008BB010008AF
:10014000BB010008BB010008BB010008BB0100089F
:10015000BB010008BB010008BB010008BB0100088F
:10016000BB010008BB010008BB010008BB0100087F
:10017000BB010008BB010008BB0100080000000033
:10018000BB010008BB010008DFF810D000F062FBE3
:100190000048004715520008AFF3008068050020B2
:1001A0000648804706480047FEE7FEE7FEE7FEE711
:1001B000FEE7FEE7FEE7FEE7FEE7FEE78117000841
:1001C0008901000870B49FED3F0A960829D0B44613
:1001D000B6F1004F50D2002EC4BF05460C4620DDBC
:1001E000D5ED000A94ED001A00EE810AD5ED010A62
:1001F00094ED011A00EE810AD5ED020A94ED021A7F
:1002000000EE810AD5ED030A94ED031A103410357F
:10021000BCF1010C00EE810AE2D100EB061001EB0B
:10022000061112F0030223D0B2F1004F41D2002A8E
:100230001EDD001F091F12F0010F07D0D0ED010ACB
:1002400091ED011A001D091D00EE810A52080FD020
:10025000D0ED010A91ED011A00EE810AD0ED020AFB
:1002600091ED021A08300831521E00EE810AEFD1DA
:1002700083ED000A70BC7047D0ED000A91ED001AC2
:1002800000EE810AD0ED010A91ED011A00EE810A1B
:10029000D0ED020A91ED021A00EE810AD0ED030AB8
:1002A00091ED031A10301031761E00EE810AE3D171
:1002B000B7E7F0EC010A521EB1EC011A00EE810A18
:1002C000F7D1D5E7000000002DE9F05F05460020DA
:1002D00092469B4688460646814640241BE02846B7
:1002E00041464746224600F002F953465A46C01A94
:1002F000914110D311461846224600F0E9F82D1A14
:1003000067EB01084F4622460120002100F0E0F88B
:1003100017EB00094E41201EA4F10104DFDC484622
:1003200031462A464346BDE8F09FD2B201E000F8CC
:10033000012B491EFBD270470022F6E710B5134689
:100340000A4604461946FFF7F0FF204610BD2DE986
:10035000FE4F81EA030404F0004421F000410094C0
:100360004FF0000B23F0004350EA01045ED052EA44
:1003700003045BD0C3F30A54C1F30A552C44A4F21E
:10038000F3340194A0FB0254C1F3130141F4801132
:10039000C3F3130343F4801301FB024400FB034E39
:1003A000840A970A44EA815447EA8357A4FB076802
:1003B00002958D0A05FB07854FEA932C04FB0C542C
:1003C0002705029D4FEA065847EA1637B5EB0805A0
:1003D0006EEB070C870E920E47EA811742EA8312F2
:1003E000A7FB0201B6EB0B0164EB00042B0D43EA03
:1003F0000C335E1844EB1C50DA465146E7FB020111
:10040000C5F313044FEA0B3343EA14534FEA0432A3
:10041000019C43EA0603A4F10C040294009CCDE97C
:1004200000B400F083F803B0BDE8F08F002001466F
:10043000F9E70EB540F2334102910021CDE90011F8
:100440000A460B4600F072F803B000BDC1F30A5231
:1004500010B5C1F3130140F2FF3341F480119A4209
:1004600001DA002010BD40F233439A42A2F2334237
:1004700003DC524200F03BF810BD904010BD00F08C
:10048000004230F000400AD0C10D01F56071C0F3A8
:10049000160042EA0151C20840071143704700208C
:1004A0000146704730B50B4601460020202201244A
:1004B00009E021FA02F59D4205D303FA02F5491B32
:1004C00004FA02F52844151EA2F10102F1DC30BD48
:1004D000202A04DB203A00FA02F100207047914004
:1004E000C2F1200320FA03F3194390407047202AF9
:1004F00004DB203A21FA02F00021704721FA02F3CE
:10050000D040C2F12002914008431946704710B50F
:10051000141E73F1000408DA401C41F10001921826
:100520005B411A4301D120F0010010BD2DE9F04DCF
:1005300092469B4611B1B1FA81F202E0B0FA80F224
:1005400020329046FFF7C4FF04460F4640EA0A00F7
:1005500041EA0B0153465A46084313D0114653EA69
:10056000010019D0C8F140025046FFF7C0FF054610
:100570000E46504659464246FFF7AAFF084305D0AB
:10058000012004E020463946BDE8F08D00200543F7
:1005900046EAE0762C4337430A986305E40AA0EB69
:1005A00008000022FD0A44EA47540A3002D5002020
:1005B0000146E9E7010510196941DDE9084500191F
:1005C0006941BDE8F04DA2E72DE9FE4F804681EA82
:1005D0000300C00F0C46009021F0004123F00045BD
:1005E000B8EB0200A94105D24046214690461C4680
:1005F0000B46024623F00040104347D0270DC7F3B7
:100600000A00C3F30A510290401A019040286BDAA5
:10061000C3F3130040F4801B0098924620B10023DE
:10062000D2EB030A63EB0B0B01985946C0F1400271
:100630005046FFF74DFF06460D4650465946019A73
:1006400000F01AF910EB08006141002487EA11520A
:1006500084EAE7731A4340D0009A62B3019A012AF0
:100660004FEA075215DC001B61EB02014FF000421C
:1006700002EA0752CDE90042001C41F580113246E2
:100680002B46FFF753FF03B0BDE8F08F40462146ED
:10069000F9E7001B61EB0201001C41F58013001813
:1006A0005B412018A2F5001747EB030140EAD57023
:1006B000B6196D4111E06D084FEA360645EAC0757E
:1006C0004FEA0752001B61EB0201001C41F580114B
:1006D00049084FEA30000019514132462B4603B019
:1006E000BDE8F04FFFF713BF009801224000002340
:1006F000D0EB020263EBE073009821464FEAE0740E
:10070000B8EB000061EB0401E9E783F000435BE72D
:1007100081F0004158E72DE9F04D81EA030404F02F
:10072000004B21F0004514464FF0000A23F0004131
:1007300050EA050220D054EA01021DD0C5F30A5741
:100740000246C5F31303C1F31300C1F30A5640F484
:10075000801543F48013A7EB0608101BD64608F259
:10076000FD3873EB050002D308F1010801E092188F
:100770005B41B8F1000F03DA00200146BDE8F08DBF
:1007800000204FF48011064684460EE0171B73EBE1
:10079000050705D3121B63EB050306434CEA010C66
:1007A00049084FEA300092185B4150EA0107EDD149
:1007B00052EA030012D082EA040083EA05010843EA
:1007C00005D0101BAB4106D20122002306E0002217
:1007D0004FF0004302E06FF0010253101AEB0600E5
:1007E0004CEB085110EB0A0041EB0B01BDE8F04D5A
:1007F000FFF78DBEC1F30A52C1F3130140F2FF337C
:1008000041F480119A4202DA00200146704740F21A
:1008100033439A42A2F2334202DC5242FFF767BEF0
:10082000FFF756BE30B5041E71F1000404DB4FF033
:100830000044404264EB0101141E73F1000405DB27
:100840001C464FF00043524263EB0403994208BF39
:10085000904230BD064C074D06E0E06840F00103D1
:1008600094E8070098471034AC42F6D3FFF790FCA9
:100870000853000828530008202A06DBCB17203A2B
:1008800041FA02F043EAE07306E041FA02F3D04095
:10089000C2F120029140084319467047FEE700006C
:1008A00030B52E4905462DED048B81B000249FED17
:1008B0002A9A6B460822B0EE498A8DED008AF0EE46
:1008C000488AA1F12000FFF77DFC2449A1F1200016
:1008D00000EB840292ED000A01EB8402641CD2ED6D
:1008E000000A00EE008A082C40EE208AF0D3B4EE15
:1008F000000A28EE000AB5EEC00AF1EE10FA03DB9A
:10090000F0EE400AB1EEE09A01F04AF8DDED000A9F
:1009100039EE400A70EEE80AB0EEC00AF0EEE00AE6
:10092000F4EEC00AF1EE10FA02DDB0EE601A01E05A
:10093000B0EE401A10EE901A094885ED001A814277
:1009400008DA10EE101A814204DA012001B0BDEC81
:10095000048B30BD0020F9E7000000002C000020CF
:10096000ACC52737704772B6FEE7000030B5B3F567
:10097000804F05D06FF0704140F82210002030BD4C
:100980008C690B688D6823434C688989240144EA8B
:100990000524234343EA014150F82230014C23400F
:1009A0001943E9E70000F0CF10B50A6850F822308B
:1009B00023F0010340F822308C68082C23D0002358
:1009C0004A682243CC681C430B6922431A434B6993
:1009D0000E4C1A43CB691A430B6A1A434B6A1A43EB
:1009E0008B6A1A43CB6A1A430B6B1A438B69134306
:1009F000CA6B09681A4350F82130A343134340F8E7
:100A00002130002010BD4023DAE700007FFF0F00F7
:100A100030B5D1E9003443EA04138C688D8924028F
:100A200044EA054423430C8A074D00EB820005EBA2
:100A3000045423430C7D6D0105EB04648969234351
:100A40000B434360002030BD0000F0FF70B504464A
:100A500000F060F90546601C02D0044800780444A8
:100A600000F058F9401BA042FAD370BD540000209A
:100A70002DE9F04186B014216846FFF75DFC20485F
:100A80000168002939D1012101601E480024016854
:100A900041F00101016000684FF4805800F001004E
:100AA0000C27CDF80080CDE90470032602250396BB
:100AB000CDE901546946144800F02EF84FF68070D5
:100AC000CDE9000502AA694682E8D0000F4800F08F
:100AD00023F84CF23370CDE9000502AA694682E89A
:100AE000D0000B4800F018F802AA694682E8D0004E
:100AF000CDE90085074800F00FF806B0BDE8F081A9
:100B00004C0000203838024000140240001002401F
:100B1000000C0240001802402DE9F84FDFF8BCA19C
:100B20000022012503264FF00F090AF1040BAAF158
:100B3000040E00BF0B6805FA02F42340A34270D1F3
:100B40000F7907F00307012F01D0022F16D1876814
:100B50004FEA420806FA08FC27EA0C07D1F80CC055
:100B60000CFA08FC4CEA070CC0F808C04768A74319
:100B70000C79C4F3001494403C4344600C79E44382
:100B8000A4070AD0C4684FEA420C06FA0CF7BC432B
:100B90008F6807FA0CF72743C7600C7904F0030449
:100BA000022C12D1D40800EB840CDCF8204057074B
:100BB000FF0E09FA07F824EA0804D1F8108008FAB1
:100BC00007F848EA0408CCF8208004684FEA420C91
:100BD00006FA0CF7BC430F7907F0030707FA0CF786
:100BE000274307604C6814F4403F70D03C4C2768A2
:100BF00047F480472760246822F0030704F4804408
:100C00000094384C07EB040CDCF8084897074FEACF
:100C1000177809FA08F7BC43334FB84202D10027CE
:100C200024E054E0314FB84201D101271EE0304F9B
:100C3000B84201D1022719E02E4FB84201D1032753
:100C400014E02D4FB84201D104270FE02B4FB842DA
:100C500001D105270AE02A4FB84201D1062705E055
:100C6000284FB84201D1072700E0082707FA08F704
:100C70002743CCF80878DAF800405746D1F804C08A
:100C80009C435FEACC2C00D51C433C60DBF8004061
:100C90005F46D1F804C09C435FEA8C2C00D51C430E
:100CA0003C60DEF800407746D1F804C09C435FEA20
:100CB0008C3C00D51C433C60084F083F3C68D1F891
:100CC00004C09C435FEACC3C00D51C433C60521CF2
:100CD000102AFFF42FAFBDE8F88F0000083C014058
:100CE000443802400030014000000240000402404D
:100CF00000080240000C02400010024000140240B4
:100D000000180240001C02400AB1816170470904CA
:100D1000FBE7000001488068704700005400002095
:100D200002488168027811448160704754000020B5
:100D30000B4810B5016841F400710160016841F48D
:100D400080610160016841F480710160032000F05E
:100D500061F80F2000F006F800F024F8002010BD24
:100D6000003C024070B50D4D04464FF47A7128786E
:100D7000B1FBF0F00A490968B1FBF0F000F02CFB80
:100D800048B9102C07D200222146501E00F022F84C
:100D900000206C6070BD012070BD00005400002078
:100DA000600000200A4808B5016841F480410160F4
:100DB000006800F4804000900548001F016841F081
:100DC00080510160006800F08050009008BD000074
:100DD00044380240F0B40E4B1B680C46C3F30223A8
:100DE000C3F10705042D00D90425191D072901D2D7
:100DF000002300E0DB1E012606FA05F1491E214012
:100E000099409E40761E16403143F0BC00F0B8BDBC
:100E10000CED00E0064900F0070208684FF6FF03FA
:100E2000184040EA0220034A10430860704700005F
:100E30000CED00E00000FA052DE9F0470E46050034
:100E400065D0DFF81481D8F80000F7B200F0070091
:100E5000B04207D288F80070D8F8000000F0070010
:100E6000B04254D128683D4C810712D5400703D5C4
:100E7000206840F4E05020602878000703D52068FF
:100E800040F4604020602068A96820F0F00008432A
:100E900020602878C0072DD03049686808390128BB
:100EA00012D0022813D0032811D00968890700291D
:100EB0002DDA216821F0030101432160FFF72AFFA9
:100EC000814641F2883A0EE009688903EFE7096834
:100ED0008901ECE7FFF71EFFA0EB0901514502D99C
:100EE0000320BDE8F0872068696800F00C00B0EBD3
:100EF000810FEFD1D8F80010404601F00701B14250
:100F000007D90770006800F00700B04201D0012047
:100F1000E7E72878400705D52068E96820F4E05025
:100F2000084320602878000706D52068296920F446
:100F3000604040EAC100206000F038F82168084AAB
:100F4000C1F30311515CC8400649086006480068B7
:100F5000FFF708FF0020C4E7003C024008380240C9
:100F6000F0520008600000205800002004480549A5
:100F700000680968044AC1F38221515CC840704787
:100F8000600000200838024000530008044805496A
:100F900000680968044AC1F34231515CC840704797
:100FA000600000200838024000530008154810B5C2
:100FB000006810F00C02144813D04110042A0FD01E
:100FC000082A0ED10F4C241F2268236802F03F022A
:100FD0005B0207D52068C0F38810A0FB010106E082
:100FE000084610BD2168C1F38811A1FB0001002350
:100FF000FFF76AF92168C1F30141491C4900B0FBC0
:10100000F1F010BD083802400024F4002DE9F84F3B
:1010100004006ED02078DFF84C93C007A9F10405D6
:101020004AD009F104000168C1F38101012908D007
:101030000068C0F3810002280AD1D9F800004002FC
:1010400006D52868800337D560680028E1D033E0F2
:101050006068B0F5803F10D0B0F5A02F286810D0A0
:1010600020F480302860286820F4802028606068A0
:10107000A8B1FFF74FFE06460DE0286840F4803027
:10108000F4E740F480202860F7E700BFFFF742FE56
:10109000801B642873D828688003F7D50CE0FFF71D
:1010A00039FE064605E000BFFFF734FE801B6428CA
:1010B000F0D828688003F7D42078DFF8AC82800766
:1010C0004FF0000A3ED5A748001D016811F00C0F33
:1010D00008D00068C0F3810002280BD1D9F80000C5
:1010E000400207D42868800716D5E068012800D19F
:1010F00012E033E1E068B8B10120C8F80000FFF762
:1011000009FE064605E000BFFFF704FE801B02282B
:10111000C0D828688007F7D52868216920F0F80032
:1011200040EAC10028600DE0C8F800A0FFF7F2FD1A
:10113000064604E0FFF7EEFD801B02281FD8286852
:101140008007F7D42078000722D5864F8748616949
:10115000703771B101210160FFF7DCFD064604E044
:10116000FFF7D8FD801B022809D838688007F7D51B
:101170000EE0C0F800A0FFF7CDFD064605E082E0D6
:10118000FFF7C8FD801B02287DD838688007F7D498
:101190002078400768D5DFF8CCB100270BF13C0B75
:1011A000DBF80000C0000BD4DBF8001041F08051E8
:1011B000CBF80010DBF80000012700F08050009011
:1011C0006B4E3068C00510D4306840F480703060D9
:1011D000FFF7A0FD009005E0FFF79CFD0099401A85
:1011E000022850D83068C005F6D55E4EA0686C362F
:1011F00001280FD00528306810D020F001003060A1
:10120000306820F004003060A068B8B1FFF782FDBC
:1012100000900FE0306840F00100F4E740F0040077
:101220003060F7E7FFF776FD0099411A41F2883008
:10123000814266D830688007F4D50EE0FFF76AFD7A
:10124000009007E0FFF766FD0099411A41F28830EF
:10125000814256D830688007F4D42FB1DBF80010F3
:1012600021F08051CBF80010A069C8B33D49091D99
:101270000968C1F3810102294AD00228504607D0EB
:10128000C8F8600000E03CE0FFF744FD04463BE0A6
:101290004746C8F86000FFF73DFD064605E000BF81
:1012A000FFF738FD801B02282BD828688001F7D46F
:1012B000D4E907010843A16A2E4A490802EB01411B
:1012C000626A41EA8211084394F82C1040EA0161F5
:1012D000C9F8001001203866FFF71CFD044606E03F
:1012E0003EE000BFFFF716FD001B022809D8286862
:1012F0008001F7D534E000BFFFF70CFD001B02288A
:1013000002D90320BDE8F88F28688001F4D427E0D3
:101310000128F7D0D9F80000E26900F48001914279
:101320001CD1226A00F03F01914217D147F6C071EB
:10133000626A0140B1EB821F10D1A26A4FF0FF3305
:1013400000F4403103EB5202B1EB024F06D194F8A6
:101350002C1000F07060B0EB016F01D00120D1E7DC
:101360000020CFE70438024000004742800E474289
:10137000007000400000FFFF70B515460E460400E7
:1013800003D094F8490010B107E0012070BD00209F
:1013900084F84800204600F01DF804F10801206898
:1013A000FFF702FB3146A2682068FFF731FBD4E962
:1013B00001022946236BFFF7D9FA2168A06851F88A
:1013C000202042F0010241F82020012084F8490049
:1013D000002070BDFFF74CBB10B5401EB0F1807F00
:1013E00001D3012010BD4FF0E02460610F21601790
:1013F00000F0C6FA0020A06107202061002010BD87
:1014000070B5040004D094F84100002510B106E046
:10141000012070BD84F84050204600F023F82420BD
:1014200084F841002068C16821F40051C160204661
:1014300000F0D6F92068016921F49041016120682B
:10144000416921F02A0141612068C16841F40051DD
:10145000C1606564202084F8410084F8420065631F
:10146000002070BD10B586B0044614216846FEF712
:1014700063FF14492068884221D113480021026883
:1014800042F010020260006800F0100005900E4863
:101490001438026842F001020260006800F00100A6
:1014A00005904FF4C06000900220CDE901010320B7
:1014B00003900720049069460448FFF72DFB06B00F
:1014C00010BD0000001001404438024000000240FE
:1014D0002DE9F843044690F84100984616460D461B
:1014E000202802D00220BDE8F88385B17EB100201B
:1014F0006064212084F84100FFF70CFCA68481463B
:10150000E684A0682027B0F5805F02D003E00120C8
:10151000E9E7206910B12E4600250EE000260CE018
:101520008021204600F0E2F9A8B9C6B116F8010BF7
:1015300021684860E08C401EE084E08C4B464FF010
:101540000002CDF800800028EAD14FF0400120468B
:1015500000F0CCF940B184F841700320C3E735F8BE
:10156000020BC0F30800E3E784F841700020BAE7FB
:10157000FEE7000010B58EB01C216846FEF7DCFEC9
:101580001C2107A8FEF7D8FE1A484FF02041102270
:10159000016019494160062181600021C160C0E9F4
:1015A00004128161C16113020162C0E9091393024F
:1015B000C0E90B13416381634164022000900F2056
:1015C000CDE9010203AC112384E80E000424069146
:1015D000CDE9074009AC092084E80F000D9107AA66
:1015E00069460448FFF7C8FE002801D0FFF7BBF9A1
:1015F0000EB010BD6C000020040100A070B586B0D4
:1016000014216846FEF798FE25480024016841F041
:1016100080010160016801F080010591016841F0DD
:1016200020010160016801F020010591016841F08D
:1016300010010160016801F010010591016841F09D
:1016400002010160016801F002010591016841F0A9
:1016500008010160016801F008010591016841F08D
:1016600001010160016801F001010591016841F08B
:10167000400101600068012200F04000094ED503DE
:10168000059029463046FFF73FFB01200095CDE944
:101690000104694630460394FFF73EFA06B070BD78
:1016A00030380240000402400C4810B50A4901607D
:1016B0004FF4E1314160002181600C22C160C0E93A
:1016C00004128161C161FFF79BFE002803D0BDE8D1
:1016D0001040FFF748B910BD00100140BC000020C9
:1016E000FEE7FEE770477047FFF71ABB30B593B0CF
:1016F00030216846FEF720FE14210CA8FEF71CFEE0
:101700001D480025016841F080510160006800F02B
:10171000805011901948016841F4804101600068CF
:10172000022400F4804011900120009000040190F8
:101730008001CDE9064008AA0420A82182E8130010
:101740000B906846FFF762FC08B172B6FEE70CA981
:101750000F2081E831004FF4A0500F904FF48050DB
:10176000109005210CA8FFF767FB002801D072B686
:10177000FEE713B030BD000040380240007000406A
:101780000248016841F470010160704788ED00E093
:1017900001680C3151E8002F22F4907241E80023D7
:1017A000002BF5D10168143151E8002F22F001021D
:1017B00041E80023002BF5D1016B012909D1016813
:1017C0000C3151E8002F22F0100241E80023002BD9
:1017D000F5D1202180F842100021016370470000FC
:1017E00070B5044600680169E26821F44051114374
:1017F00001612169A068E2690843616911430843F6
:101800002168CA6849F20C639A430243CA6020689F
:101810004169A26921F44071114341613149206855
:10182000884202D03049884202D1FFF7AFFB01E085
:10183000FFF79CFBE2690023192164253226B2F5EB
:10184000004F626828D0A0FB0101930F9200FEF7C1
:101850003BFD0146B0FBF5F06FF01802504301EB81
:10186000800006EB0010B0FBF5F000F0F002B1FBD9
:10187000F5F002EB0012B1FBF5F06FF018035843DE
:1018800001EB800006EB0010B0FBF5F000F00F005C
:1018900021681044886070BDA0FB010192185B4173
:1018A000FEF712FD0146B0FBF5F00201B1FBF5F0C9
:1018B0006FF01803584301EB800006EBC000B0FB4B
:1018C000F5F000F0F80002EB4002B1FBF5F05843F0
:1018D00001EB800006EBC000B0FBF5F000F0070064
:1018E000D6E7000000100140001401402DE9F84344
:1018F000984617460D460446089E24E0701C22D0E8
:10190000FFF708FAA0EB0800B0421AD8CEB1206861
:10191000C168490717D5802D15D0402D13D0016817
:10192000C94309070FD4016800254068009020468C
:10193000FFF72EFF0820606484F840500120BDE8C6
:10194000F8830320FBE72068006835EA000004D034
:101950000020B842D2D00020F1E70120F9E7FEE7ED
:101960000FB4054B10B503A9044A029800F00CF916
:1019700010BC5DF814FB00009122000864000020F8
:101980000907090E002804DB00F1E02080F80014AC
:10199000704700F00F0000F1E02080F8141D704740
:1019A00010B52DED028BB1EEC08A18EE100A20F0B2
:1019B0000040C0F1FF40C00F0AD010EE100A20F026
:1019C0000040C0F1FF40C00F04BF012000F014F838
:1019D000B0EE480ABDEC028B10BD02E008C8121F31
:1019E00008C1002AFAD170477047002001E001C108
:1019F000121F002AFBD170470149086070470000A0
:101A0000680000202DE9FF5F82B00021DDE904308D
:101A1000020DDDF840B0034318D044F61050A2F296
:101A2000FF3242431514119801281FD0A5EB0B007B
:101A3000401C5FEA000A4FF000064E4FDFF8389175
:101A4000B046504615D5CAF1000413E011980124A0
:101A50004AA3012801D16FEA0B010298119AC0E94B
:101A60000031C0E9024206B0BDE8F09FCBF10000B2
:101A7000DFE704460021404A491842EB0450CDE913
:101A8000001012E0E00707D032463B464046494688
:101A9000FEF75DFC8046894632463B4610461946B5
:101AA000FEF755FC06460F466410002CEAD1DDE92E
:101AB0000401DDE90023BAF1000F06DAFEF747FC66
:101AC00042464B46FEF743FC05E0FEF724FE424645
:101AD0004B46FEF720FE04460E460022284BFEF73A
:101AE000A1FE03D84FF0FF30014607E00022254B4E
:101AF00020463146FEF768FDFEF77CFE102409E023
:101B0000002C0ADB0A220023FEF7DEFB039B3032A7
:101B10001A55641E50EA0102F2D1641C039AC4F102
:101B200011031444119A012A03D0012208430DD154
:101B30000AE0084304D000204FF0110B119072E727
:101B4000A3EB0B056D1E0DE05B4504DD4FF00002BD
:101B500005F1010504E003DA4FF00002A5F10105EB
:101B6000002AECD002981199C0E90231C0E9004581
:101B700079E70000000014400000F03F3000000052
:101B80000000F0430000E03F2DE9FF4F95B09A467A
:101B9000884606460025EEE1252877D10024274611
:101BA000F94A0121039400E0044316F8013F203B69
:101BB00001FA03F01042F7D130782A2811D06FF0E3
:101BC0002F033078A0F13002092A16D8039A44F086
:101BD000020402EB820203EB42021044761C0390E3
:101BE000EFE758F8042B0392002A03DA504244F43A
:101BF0000054039044F00204761C30782E2816D14D
:101C000016F8010F44F004042A280DD06FF02F02BB
:101C10003078A0F13003092B09D807EB870302EBDA
:101C20004303C718761CF3E758F8047B761C30781A
:101C30006C280FD006DC4C2817D068280DD06A28F5
:101C400014D104E0742810D07A280FD10DE044F4A8
:101C500000140AE044F4801401E044F44014727863
:101C6000824202D104F58014761C761C30786628F6
:101C70000BD013DC582877D009DC002875D0452814
:101C8000F6D04628F4D047281AD193E118E063280B
:101C900035D0642879D0652812D18BE1702873D0B3
:101CA00008DC6728F1D069286FD06E280DD06F2826
:101CB00006D1ACE073282CD0752874D0782853D086
:101CC0005246179990476D1C54E1C4F30250022804
:101CD00009D003280DD0D8F8001004280DD00D60CD
:101CE00008F1040846E1D8F80010EA17C1E90052EB
:101CF000F6E7D8F800100D80F2E70D70F0E718F85D
:101D0000041B8DF8001000208DF80100EB46012027
:101D100003E058F804BB4FF0FF3061074FF00001BB
:101D200002D40DE009F101018946B9420FDA81457B
:101D3000F8DB1BF809100029F4D108E009F10101D2
:101D400089468142FADB1BF809100029F6D1039875
:101D50005346A0EB090721463846179A00F080FA4F
:101D6000284400EB090507E044E008E10DE01BF81A
:101D7000010B524617999047B9F10109F7D2534622
:101D800021463846179AF2E039E00A21C4F302529C
:101D90004FF0000B0091022A06D058F8040BC1172F
:101DA000032A09D00AE023E008F1070020F0070227
:101DB000F2E80201904605E000B2C117042A01D101
:101DC00040B2C117002906DA0A460021404261EB01
:101DD00002012D2202E0220504D52B228DF80420D9
:101DE000012203E0E20701D02022F7E7914657E005
:101DF0000A2100E010214FF0000B00910BE01021B0
:101E00004FF0000B44F004040827009103E0082081
:101E10004FF0000B0090C4F30252022A05D058F88C
:101E2000040B0021032A08D008E008F1070020F085
:101E30000702F2E80201904603E080B2042A00D1D2
:101E4000C0B24FF0000922072AD53278702A07D095
:101E5000DDF800C08CF0100C5CEA0B0C05D00EE035
:101E600040228DF80420012208E050EA010306D048
:101E700030238DF804308DF8052002229146009B16
:101E800083F0080353EA0B030AD150EA010201D19F
:101E9000620705D530228DF804204FF001097F1E1E
:101EA0003278582A04D039A20C920CAA02920BE084
:101EB0003BA2F9E75B46009AFEF706FA0C9B9B5C97
:101EC000029A521E0292137050EA0102F2D1029855
:101ED00004A9081A00F1200B600702D524F480340D
:101EE00000E001275F4502DDA7EB0B0000E00020CA
:101EF00000EB0B01009003984944401A0390E00363
:101F000006D453462146179A039800F0A9F90544D0
:101F1000002706E001A85246C05D179990476D1C46
:101F20007F1C4F45F6DBE0030CD553462146179A3C
:101F3000039800F095F9054404E0302052461799C3
:101F400090476D1C0099481E00900029F5DC08E0C0
:101F50000298029952460078491C029117999047BD
:101F60006D1CBBF10001ABF1010BF1DC5BE100F09A
:101F700065F90544761C307800287FF40DAE19B061
:101F80002846BDE8F08F00000928010030313233C7
:101F900034353637383961626364656600000000A5
:101FA000303132333435363738394142434445468F
:101FB00000000000600700D4062708F1070020F0A9
:101FC0000700F0E80223804603F0004C5FEA0C00B3
:101FD00001D097A009E0200501D596A005E0E00713
:101FE00001D095A001E0AFF24C001390307823F0BF
:101FF000004365280CD006DC452809D046281DD0B2
:1020000047287FD13BE0662818D067287AD136E090
:102010000021112F01DB112000E0781CCDE9000127
:1020200004A90CA8FFF7EEFCDDE90D010C9A4FF0B6
:10203000000B07F10109109200914EE04FF00040B3
:102040000097CDE9011004A90CA8FFF7DBFCDDE93E
:102050000D020C9B0F994FF0000B914610930092CC
:1020600011B9791C00EB0109B7EB090003D4C0F1E9
:10207000FF3B07F10109A9EB0700019042E0012FA6
:1020800000DA01270021112F01DD112000E0384680
:10209000CDE9000104A90CA8FFF7B4FCDDE90D01AE
:1020A0000C9A00914FF0000BB946109221070FD403
:1020B000009A4A4503DA914601E0A9F10109B9F114
:1020C000010F05DD109AA9F10101515C3029F4D00E
:1020D000B84202DA10F1040F03DA0121CDE9011050
:1020E00010E0002803DC8344A9EB000102E0411C5E
:1020F000494500DD8946A0EB0B00401C01904FF0E4
:1021000000400290200705D40198484502DB4FF0BB
:10211000FF30019000208DF84B0002980DF14B0725
:10212000B0F1004F25D002200C902B200D9002988A
:1021300000280CDA404202902D200D9007E00A2181
:102140000298FEF7AFF93031029007F8011D0C99A3
:10215000481E0C900029F2DC02980028EFD1791E6D
:102160000D980870307800F0200040F0450007F826
:10217000020D11A8C01BC01D02901398007800B179
:10218000012000EB0901019801EBE0710298014484
:102190000398401A401E0390E00306D4534621469C
:1021A000179A039800F05CF805441398007818B16A
:1021B0005246179990476D1CE00323D5534621469C
:1021C000179A039800F04CF805441BE0BBF1000F90
:1021D00007DB0098584504DD1098179910F80B009C
:1021E00001E0179930205246904701980BF1010BFE
:1021F000401E05F10105019004D12E205246179989
:1022000090476D1CB9F10001A9F10109DEDC05E080
:1022100017F8010B5246179990476D1C0299481EFA
:1022200002900029F4DC53462146179A03989EE653
:102230002D0000002B000000200000002DE9F041DF
:10224000044600251E461746880404D405E0394696
:102250002020B0476D1C641EF9D52846BDE8F081EA
:102260002DE9F041044600251E469046C80301D5DD
:10227000302700E02027880404D505E04146384691
:10228000B0476D1C641EF9D52846BDE8F0810000FA
:1022900013B54FF0FF33012269460248FFF718F9E2
:1022A00000981CBDBC00002070B50A4906460024F9
:1022B00008884D8821464543204602F0E1FE02F0A1
:1022C00099FF4FF0D84002E0A0F88060641CAC4257
:1022D000FAD370BD540100202DE9F04F38492C2667
:1022E0000A46887192884FF4305A4FF4285B41F6C1
:1022F000631E2B274FF02A0C4FF0F00845F21059BF
:102300004FF448754FF4A0744FF4F07358B10C803B
:10231000A1F802804A4530D1A1F808A0A1F80AB07E
:102320003802888141E0A1F800804C804A4507D1FD
:10233000A1F808A0A1F80AB04FF42C50888105E05C
:1023400072450E8105D14F81A1F80CC00B804D80E4
:1023500002E0A1F80AC08F81A2F5A640103803D090
:10236000A2F5EE40963801D10C804B80A2F51840C2
:1023700006381FD10B804D801CE0724511D0A2F5AC
:10238000184006380DD00E81A1F80AC0A1F80C70D3
:10239000A2F5A64010380BD0A2F5EE40963807D033
:1023A00008E00E81A1F80AC08F810D804B80EFE715
:1023B0000B804C80BDE8F04F002002F09FBD000074
:1023C0005401002010B5CF2002F008FF002002F0D9
:1023D000F9FEC12002F0F6FE302002F0F3FEED20FF
:1023E00002F0FCFE642002F0EDFE032002F0EAFEA3
:1023F000122002F0E7FE812002F0E4FEE82002F065
:10240000EDFE852002F0DEFE102002F0DBFE7A20D9
:1024100002F0D8FECB2002F0E1FE392002F0D2FE1D
:102420002C2002F0CFFE002002F0CCFE342002F07F
:10243000C9FE022002F0C6FEF72002F0CFFE2020E7
:1024400002F0C0FEEA2002F0C9FE002002F0BAFE4F
:10245000002002F0B7FEC02002F0C0FE1B2002F0F8
:10246000B1FEC12002F0BAFE012002F0ABFEC52091
:1024700002F0B4FE302002F0A5FE302002F0A2FEF1
:10248000C72002F0ABFEB72002F09CFE362002F01F
:10249000A5FE482002F096FE3A2002F09FFE55204D
:1024A00002F090FEB12002F099FE002002F08AFEB8
:1024B0001A2002F087FEB62002F090FE0A2002F0F9
:1024C00081FEA22002F07EFEF22002F087FE0020B4
:1024D00002F078FE262002F081FE012002F072FE5A
:1024E000E02002F07BFE0F2002F06CFE2A2002F0BA
:1024F00069FE282002F066FE082002F063FE0E202E
:1025000002F060FE082002F05DFE542002F05AFE48
:10251000A92002F057FE432002F054FE0A2002F0E8
:1025200051FE0F2002F04EFE002002F04BFE002074
:1025300002F048FE002002F045FE002002F042FEBC
:10254000E12002F04BFE002002F03CFE152002F0DC
:1025500039FE172002F036FE072002F033FE11206C
:1025600002F030FE062002F02DFE2B2002F02AFEA3
:10257000562002F027FE3C2002F024FE052002F047
:1025800021FE102002F01EFE0F2002F01BFE3F2055
:1025900002F018FE3F2002F015FE0F2002F012FE9E
:1025A0002B2002F01BFE002002F00CFE002002F0A7
:1025B00009FE012002F006FE3F2002F003FE2A2061
:1025C00002F00CFE002002F0FDFD002002F0FAFDFA
:1025D000002002F0F7FDEF2002F0F4FD112002F0E0
:1025E000FDFD7820FEF732FABDE81040292002F008
:1025F000F5BD10B5FF2002F0F1FDFF2002F0E2FD75
:10260000982002F0DFFD062002F0DCFDBC2002F085
:10261000E5FD012002F0D6FD0F2002F0D3FD612080
:1026200002F0D0FDFF2002F0CDFD012002F0CAFD36
:10263000012002F0C7FD0B2002F0C4FD102002F0C3
:10264000C1FD372002F0BEFD632002F0BBFDFF207C
:1026500002F0B8FDFF2002F0B5FD012002F0B2FD4E
:10266000012002F0AFFD002002F0ACFD002002F0DE
:10267000A9FDFF2002F0A6FD522002F0A3FD0120DB
:1026800002F0A0FD002002F09DFD402002F09AFD26
:10269000BD2002F0A3FD012002F094FD232002F0F2
:1026A00091FD452002F08EFD672002F08BFD012098
:1026B00002F088FD232002F085FD452002F082FD16
:1026C000672002F07FFDBE2002F088FD002002F0AE
:1026D00079FD012002F076FDAB2002F073FD602051
:1026E00002F070FD222002F06DFD222002F06AFD52
:1026F000222002F067FD222002F064FD222002F079
:1027000061FDC72002F06AFD362002F05BFDED207E
:1027100002F064FD7F2002F055FD0F2002F052FD13
:10272000C02002F05BFD0F2002F04CFD0B2002F0F8
:1027300049FD0A2002F046FDFC2002F04FFD082072
:1027400002F040FDDF2002F049FD002002F03AFDDA
:10275000002002F037FD002002F034FD002002F0DE
:1027600031FD002002F02EFD202002F02BFDF32091
:1027700002F034FD742002F025FDB42002F02EFD9D
:10278000002002F01FFD002002F01CFD002002F0DE
:1027900019FDF72002F022FD822002F013FDB12086
:1027A00002F01CFD002002F00DFD132002F00AFDD6
:1027B000132002F007FDF22002F010FD802002F04D
:1027C00001FD042002F0FEFC402002F0FBFC28206A
:1027D00002F0F8FCC12002F001FD172002F0F2FC2B
:1027E000882002F0EFFC882002F0ECFC202002F0B0
:1027F000E9FCE02002F0F2FC002002F0E3FC0A20F9
:1028000002F0E0FC122002F0DDFC102002F0DAFC05
:102810000E2002F0D7FC202002F0D4FCCC2002F0E5
:10282000D1FC072002F0CEFC062002F0CBFC0B20EE
:1028300002F0C8FC0E2002F0C5FC0F2002F0C2FC22
:102840000D2002F0BFFC152002F0BCFC102002F0AD
:10285000B9FC002002F0B6FCE12002F0BFFC002031
:1028600002F0B0FC0B2002F0ADFC132002F0AAFC39
:102870000D2002F0A7FC0E2002F0A4FC1B2002F0A9
:10288000A1FC712002F09EFC062002F09BFC0620B9
:1028900002F098FC0A2002F095FC0F2002F092FC56
:1028A0000E2002F08FFC0F2002F08CFC152002F0AD
:1028B00089FC0C2002F086FC002002F083FC2A2018
:1028C00002F08CFC002002F07DFC002002F07AFC7B
:1028D000012002F077FCDF2002F074FC2B2002F0D4
:1028E0007DFC002002F06EFC002002F06BFC032057
:1028F00002F068FC1F2002F065FC3A2002F06EFC3A
:10290000552002F05FFC362002F068FC002002F047
:1029100059FC112002F062FC7820FEF797F829207C
:1029200002F05CFC1420FEF791F8BDE810402C206A
:1029300002F054BC10B5ED2002F050FC012002F072
:1029400041FCFE2002F03EFCEE2002F047FCDE20BF
:1029500002F038FC212002F035FCF12002F03EFCB0
:10296000012002F02FFCDF2002F038FC102002F0E2
:1029700029FCC42002F032FC8F2002F023FCC62088
:1029800002F02CFC002002F01DFCE22002F01AFCF8
:10299000E22002F017FCE22002F014FCBF2002F05B
:1029A0001DFCAA2002F00EFCB02002F017FC0D2046
:1029B00002F008FC002002F005FC0D2002F002FCF1
:1029C000002002F0FFFB112002F0FCFB002002F0CF
:1029D000F9FB192002F0F6FB002002F0F3FB2120A6
:1029E00002F0F0FB002002F0EDFB2D2002F0EAFBEC
:1029F000002002F0E7FB3D2002F0E4FB002002F0A3
:102A0000E1FB5D2002F0DEFB002002F0DBFB5D203D
:102A100002F0D8FB002002F0D5FBB12002F0DEFB73
:102A2000802002F0CFFB002002F0CCFB8B2002F0D4
:102A3000C9FB002002F0C6FB962002F0C3FB002079
:102A400002F0C0FBB22002F0C9FB002002F0BAFB8A
:102A5000002002F0B7FB022002F0B4FB002002F0DD
:102A6000B1FB032002F0AEFB002002F0ABFBB32071
:102A700002F0B4FB002002F0A5FB002002F0A2FB54
:102A8000002002F09FFB002002F09CFB002002F0DF
:102A900099FB002002F096FB002002F093FB00203F
:102AA00002F090FB002002F08DFB002002F08AFB78
:102AB000002002F087FB002002F084FB002002F0DF
:102AC00081FB002002F07EFB002002F07BFB002057
:102AD00002F078FB002002F075FB002002F072FB90
:102AE000002002F06FFB002002F06CFB002002F0DF
:102AF00069FB002002F066FB002002F063FB00206F
:102B000002F060FBB42002F069FB8B2002F05AFB5C
:102B1000002002F057FB962002F054FB002002F048
:102B200051FBA12002F04EFB002002F04BFBB52030
:102B300002F054FB022002F045FB002002F042FBB1
:102B4000032002F03FFB002002F03CFB042002F0D7
:102B500039FB002002F036FBB62002F03FFB0020DC
:102B600002F030FB002002F02DFBB72002F036FB14
:102B7000002002F027FB002002F024FB3F2002F09F
:102B800021FB002002F01EFB5E2002F01BFB002058
:102B900002F018FB642002F015FB002002F012FB8B
:102BA0008C2002F00FFB002002F00CFBAC2002F0A6
:102BB00009FB002002F006FBDC2002F003FB0020F2
:102BC00002F000FB702002F0FDFA002002F0FAFA99
:102BD000902002F0F7FA002002F0F4FAEB2002F065
:102BE000F1FA002002F0EEFADC2002F0EBFA00200D
:102BF00002F0E8FAB82002F0F1FA002002F0E2FA5E
:102C0000002002F0DFFA002002F0DCFA002002F0DF
:102C1000D9FA002002F0D6FA002002F0D3FA002000
:102C200002F0D0FA002002F0CDFABA2002F0D6FA73
:102C3000242002F0C7FA002002F0C4FA002002F0BB
:102C4000C1FA002002F0BEFAC12002F0C7FA20202B
:102C500002F0B8FA002002F0B5FA542002F0B2FAFD
:102C6000002002F0AFFAFF2002F0ACFA002002F0E0
:102C7000A9FAC22002F0B2FA0A2002F0A3FA002058
:102C800002F0A0FA042002F09DFA002002F09AFA65
:102C9000C32002F0A3FA3C2002F094FA002002F0D4
:102CA00091FA3A2002F08EFA002002F08BFA3920D5
:102CB00002F088FA002002F085FA372002F082FA4A
:102CC000002002F07FFA3C2002F07CFA002002F0A3
:102CD00079FA362002F076FA002002F073FA3220F8
:102CE00002F070FA002002F06DFA2F2002F06AFA6A
:102CF000002002F067FA2C2002F064FA002002F0B3
:102D000061FA292002F05EFA002002F05BFA262028
:102D100002F058FA002002F055FA242002F052FA8C
:102D2000002002F04FFA242002F04CFA002002F0BA
:102D300049FA232002F046FA002002F043FA3C2030
:102D400002F040FA002002F03DFA362002F03AFA92
:102D5000002002F037FA322002F034FA002002F0AC
:102D600031FA2F2002F02EFA002002F02BFA2C204C
:102D700002F028FA002002F025FA292002F022FAB7
:102D8000002002F01FFA262002F01CFA002002F0B8
:102D900019FA242002F016FA002002F013FA242077
:102DA00002F010FA002002F00DFA232002F00AFAD5
:102DB000002002F007FAC42002F010FA622002F0AC
:102DC00001FA002002F0FEF9052002F0FBF90020D4
:102DD00002F0F8F9842002F0F5F9002002F0F2F98F
:102DE000F02002F0EFF9002002F0ECF9182002F0D8
:102DF000E9F9002002F0E6F9A42002F0E3F900204E
:102E000002F0E0F9182002F0DDF9002002F0DAF912
:102E1000502002F0D7F9002002F0D4F90C2002F083
:102E2000D1F9002002F0CEF9172002F0CBF90020F2
:102E300002F0C8F9952002F0C5F9002002F0C2F9AD
:102E4000F32002F0BFF9002002F0BCF9E62002F006
:102E5000B9F9002002F0B6F9C52002F0BFF932201E
:102E600002F0B0F9002002F0ADF9442002F0AAF916
:102E7000002002F0A7F9652002F0A4F9002002F07A
:102E8000A1F9762002F09EF9002002F09BF988203B
:102E900002F098F9002002F095F9C62002F09EF9A0
:102EA000202002F08FF9002002F08CF9172002F0A8
:102EB00089F9002002F086F9012002F083F9002050
:102EC00002F080F9C72002F089F9002002F07AF9B7
:102ED000002002F077F9002002F074F9002002F0DF
:102EE00071F9C82002F07AF9002002F06BF9002095
:102EF00002F068F9002002F065F9002002F062F9A2
:102F0000C92002F06BF9002002F05CF9002002F009
:102F100059F9002002F056F9002002F053F9002080
:102F200002F050F9002002F04DF9002002F04AF9B9
:102F3000002002F047F9002002F044F9002002F0DE
:102F400041F9002002F03EF9002002F03BF9002098
:102F500002F038F9002002F035F9002002F032F9D1
:102F6000002002F02FF9E02002F038F9162002F0DC
:102F700029F9002002F026F91C2002F023F9002094
:102F800002F020F9212002F01DF9002002F01AF9C8
:102F9000362002F017F9002002F014F9462002F062
:102FA00011F9002002F00EF9522002F00BF9002076
:102FB00002F008F9642002F005F9002002F002F99D
:102FC0007A2002F0FFF8002002F0FCF88B2002F0DB
:102FD000F9F8002002F0F6F8992002F0F3F800204A
:102FE00002F0F0F8A82002F0EDF8002002F0EAF874
:102FF000B92002F0E7F8002002F0E4F8C42002F063
:10300000E1F8002002F0DEF8CA2002F0DBF8002030
:1030100002F0D8F8D22002F0D5F8002002F0D2F861
:10302000D92002F0CFF8002002F0CCF8E02002F026
:10303000C9F8002002F0C6F8F32002F0C3F800201F
:1030400002F0C0F8E12002F0C9F8162002F0BAF848
:10305000002002F0B7F81C2002F0B4F8002002F0C3
:10306000B1F8222002F0AEF8002002F0ABF83620D2
:1030700002F0A8F8002002F0A5F8452002F0A2F81E
:10308000002002F09FF8522002F09CF8002002F08D
:1030900099F8642002F096F8002002F093F87A2064
:1030A00002F090F8002002F08DF88B2002F08AF8F0
:1030B000002002F087F8992002F084F8002002F046
:1030C00081F8A82002F07EF8002002F07BF8B920F9
:1030D00002F078F8002002F075F8C42002F072F8CF
:1030E000002002F06FF8CA2002F06CF8002002F015
:1030F00069F8D22002F066F8002002F063F8D820C8
:1031000002F060F8002002F05DF8E02002F05AF8CA
:10311000002002F057F8F32002F054F8002002F0EB
:1031200051F8E22002F05AF8052002F04BF8002096
:1031300002F048F80B2002F045F8002002F042F8B7
:103140001B2002F03FF8002002F03CF8342002F08F
:1031500039F8002002F036F8442002F033F800205D
:1031600002F030F84F2002F02DF8002002F02AF88B
:10317000612002F027F8002002F024F8792002F004
:1031800021F8002002F01EF8882002F01BF8002031
:1031900002F018F8972002F015F8002002F012F85B
:1031A000A62002F00FF8002002F00CF8B72002F081
:1031B00009F8002002F006F8C22002F003F800200F
:1031C00002F000F8C72001F0FDFF002001F0FAFF37
:1031D000D12001F0F7FF002001F0F4FFD62001F02C
:1031E000F1FF002001F0EEFFDD2001F0EBFF0020F9
:1031F00001F0E8FFF32001F0E5FF002001F0E2FF1D
:10320000E32001F0EBFF052001F0DCFF002001F0DE
:10321000D9FF0A2001F0D6FF002001F0D3FF1C20C7
:1032200001F0D0FF002001F0CDFF332001F0CAFFF4
:10323000002001F0C7FF442001F0C4FF002001F08E
:10324000C1FF502001F0BEFF002001F0BBFF622053
:1032500001F0B8FF002001F0B5FF782001F0B2FFC7
:10326000002001F0AFFF882001F0ACFF002001F04A
:10327000A9FF972001F0A6FF002001F0A3FFA620E0
:1032800001F0A0FF002001F09DFFB72001F09AFFA0
:10329000002001F097FFC22001F094FF002001F010
:1032A00091FFC72001F08EFF002001F08BFFD1209D
:1032B00001F088FF002001F085FFD52001F082FF9A
:1032C000002001F07FFFDD2001F07CFF002001F0F5
:1032D00079FFF32001F076FF002001F073FFE42076
:1032E00001F07CFF012001F06DFF002001F06AFF7A
:1032F000012001F067FF002001F064FF022001F0CF
:1033000061FF002001F05EFF2A2001F05BFF00203A
:1033100001F058FF3C2001F055FF002001F052FF62
:103320004B2001F04FFF002001F04CFF5D2001F029
:1033300049FF002001F046FF742001F043FF002008
:1033400001F040FF842001F03DFF002001F03AFF32
:10335000932001F037FF002001F034FFA22001F09C
:1033600031FF002001F02EFFB32001F02BFF0020E1
:1033700001F028FFBE2001F025FF002001F022FF10
:10338000C42001F01FFF002001F01CFFCD2001F040
:1033900019FF002001F016FFD32001F013FF0020D9
:1033A00001F010FFDD2001F00DFF002001F00AFF09
:1033B000F32001F007FF002001F004FFE52001F0F9
:1033C0000DFF002001F0FEFE002001F0FBFE0020BA
:1033D00001F0F8FE002001F0F5FE022001F0F2FEFF
:1033E000002001F0EFFE292001F0ECFE002001F0AA
:1033F000E9FE3C2001F0E6FE002001F0E3FE4B2058
:1034000001F0E0FE002001F0DDFE5D2001F0DAFEBB
:10341000002001F0D7FE742001F0D4FE002001F05E
:10342000D1FE842001F0CEFE002001F0CBFE9320DF
:1034300001F0C8FE002001F0C5FEA22001F0C2FE8E
:10344000002001F0BFFEB32001F0BCFE002001F01F
:10345000B9FEBE2001F0B6FE002001F0B3FEC4208C
:1034600001F0B0FE002001F0ADFECD2001F0AAFE7B
:10347000002001F0A7FED32001F0A4FE002001F0FF
:10348000A1FEDC2001F09EFE002001F09BFEF32057
:1034900001F098FE002001F095FEE62001F09EFE6E
:1034A000112001F08FFE002001F08CFE342001F08D
:1034B00089FE002001F086FE562001F083FE0020E8
:1034C00001F080FE762001F07DFE002001F07AFE02
:1034D000772001F077FE002001F074FE662001F0F5
:1034E00071FE002001F06EFE882001F06BFE0020CE
:1034F00001F068FE992001F065FE002001F062FEF7
:10350000BB2001F05FFE002001F05CFE992001F07D
:1035100059FE002001F056FE662001F053FE002007
:1035200001F050FE552001F04DFE002001F04AFE52
:10353000552001F047FE002001F044FE452001F037
:1035400041FE002001F03EFE432001F03BFE002042
:1035500001F038FE442001F035FE002001F032FE7B
:10356000E72001F03BFE322001F02CFE002001F0AC
:1035700029FE552001F026FE002001F023FE7620D2
:1035800001F020FE002001F01DFE662001F01AFE71
:10359000002001F017FE672001F014FE002001F06A
:1035A00011FE672001F00EFE002001F00BFE8720C7
:1035B00001F008FE002001F005FE992001F002FE56
:1035C000002001F0FFFDBB2001F0FCFD002001F018
:1035D000F9FD992001F0F6FD002001F0F3FD7720C0
:1035E00001F0F0FD002001F0EDFD442001F0EAFDC6
:1035F000002001F0E7FD562001F0E4FD002001F07D
:10360000E1FD232001F0DEFD002001F0DBFD332091
:1036100001F0D8FD002001F0D5FD452001F0D2FDDC
:10362000002001F0CFFDE82001F0D8FD002001F0DE
:10363000C9FD002001F0C6FD992001F0C3FD002066
:1036400001F0C0FD872001F0BDFD002001F0BAFDB2
:10365000882001F0B7FD002001F0B4FD772001F0D3
:10366000B1FD002001F0AEFD662001F0ABFD0020B1
:1036700001F0A8FD882001F0A5FD002001F0A2FDC9
:10368000AA2001F09FFD002001F09CFDBB2001F06D
:1036900099FD002001F096FD992001F093FD002096
:1036A00001F090FD662001F08DFD002001F08AFD03
:1036B000552001F087FD002001F084FD552001F028
:1036C00081FD002001F07EFD442001F07BFD002003
:1036D00001F078FD442001F075FD002001F072FD3D
:1036E000552001F06FFD002001F06CFDE92001F094
:1036F00075FDAA2001F066FD002001F063FD0020A9
:1037000001F060FD002001F05DFD002001F066FD8C
:10371000AA2001F057FDCF2001F060FD002001F04C
:1037200051FD002001F04EFD002001F04BFD002076
:1037300001F048FD002001F045FD002001F042FDB0
:10374000002001F03FFD002001F03CFD002001F0D1
:1037500039FD002001F036FD002001F033FD00208E
:1037600001F030FD002001F02DFD002001F02AFDC8
:10377000002001F027FD002001F024FD002001F0D1
:1037800021FDF02001F02AFD002001F01BFD50205A
:1037900001F018FD002001F015FD002001F012FDE0
:1037A000002001F00FFDF32001F018FD002001F0D2
:1037B00009FDF92001F012FD062001F003FD1020A3
:1037C00001F000FD292001F0FDFC002001F0FAFCD1
:1037D0003A2001F003FD552001F0F4FC112001F026
:1037E000FDFC6420FDF732F9292001F0F7FC3520BB
:1037F00001F0F4FC002001F0E5FC512001F0EEFCAA
:10380000FF2001F0DFFC532001F0E8FC2C2001F048
:10381000D9FC552001F0E2FC822001F0D3FCBDE888
:1038200010402C2001F0DABC2DE9F05F4FF4704419
:103830005521204601F0E8FC651CAA21284601F02C
:10384000E3FCA61C5221304601F0DEFCE71C0821F7
:10385000384601F0D9FC4FF204080121404601F03E
:10386000D3FC4FF436433421184601F0CDFC34210B
:103870004BF2016001F0C8FC34214BF2026001F010
:10388000C3FC4FF430490D21484601F0BDFC4BF21A
:10389000010A0D21504601F0B7FC4BF2020B0D213D
:1038A000584601F0B1FC24214FF4374001F0ACFC44
:1038B00024214BF2017001F0A7FC24214BF202708D
:1038C00001F0A2FC0D214FF4314001F09DFC0D21CF
:1038D0004BF2011001F098FC0D214BF2021001F0A7
:1038E00093FC24214FF4384001F08EFC24214BF648
:1038F000010001F089FC24214BF6020001F084FC58
:1039000000214FF4324001F07FFC24214FF4394074
:1039100001F07AFC24214BF6011001F075FC242102
:103920004BF6021001F070FC05214FF4334001F01A
:103930006BFC05214BF2013001F066FC05214BF2D6
:10394000023001F061FC34214FF43A4001F05CFC9C
:1039500034214BF6012001F057FC34214BF60220B4
:1039600001F052FC0B214FF4354001F04DFC0B21CE
:103970004BF2015001F048FC0B214BF2025001F0D8
:1039800043FC00214FF43C4001F03EFCA3214BF6E8
:10399000014001F039FC00214BF6024001F034FCFB
:1039A00000214FF43D4001F02FFCA3214BF60150C4
:1039B00001F02AFC00214BF6025001F025FC002109
:1039C0004FF43E4001F020FC37214BF6016001F03E
:1039D0001BFC00214FF4514001F016FC37214DF241
:1039E000011001F011FC00214DF2021001F00CFC5D
:1039F00053214DF2031001F007FC00214DF2041099
:103A000001F002FC79214DF2051001F0FDFB0021CF
:103A10004DF2061001F0F8FB97214DF2071001F06E
:103A2000F3FB00214DF2081001F0EEFBB1214DF245
:103A3000091001F0E9FB00214DF20A1001F0E4FB4E
:103A4000D5214DF20B1001F0DFFB00214DF20C10DF
:103A500001F0DAFBF4214DF20D1001F0D5FB01214C
:103A60004DF20E1001F0D0FB23214DF20F1001F0AA
:103A7000CBFB01214DF2101001F0C6FB49214DF2A4
:103A8000111001F0C1FB01214DF2121001F0BCFB3D
:103A900087214DF2131001F0B7FB01214DF21410F4
:103AA00001F0B2FBB6214DF2151001F0ADFB022181
:103AB0004DF2161001F0A8FB00214DF2171001F095
:103AC000A3FB02214DF2181001F09EFB3B214DF2A9
:103AD000191001F099FB02214DF21A1001F094FB2C
:103AE0003D214DF21B1001F08FFB02214DF21C1005
:103AF00001F08AFB75214DF21D1001F085FB0221BA
:103B00004DF21E1001F080FBB1214DF21F1001F0AB
:103B10007BFB02214DF2201001F076FBD5214DF206
:103B2000211001F071FB03214DF2221001F06CFB1A
:103B300009214DF2231001F067FB03214DF22410FF
:103B400001F062FB28214DF2251001F05DFB0321FD
:103B50004DF2261001F058FB52214DF2271001F0D2
:103B600053FB03214DF2281001F04EFB6B214DF267
:103B7000291001F049FB03214DF22A1001F044FB0A
:103B80008D214DF22B1001F03FFB03214DF22C1043
:103B900001F03AFBA2214DF22D1001F035FB03217B
:103BA0004DF22E1001F030FBBB214DF22F1001F031
:103BB0002BFB03214DF2301001F026FBC1214DF209
:103BC000311001F021FB03214DF2321001F01CFBFA
:103BD000C1214DF2331001F017FB00214FF4524088
:103BE00001F012FB37214DF2012001F00DFB002105
:103BF0004DF2022001F008FB53214DF2032001F0A9
:103C000003FB00214DF2042001F0FEFA79214DF270
:103C1000052001F0F9FA00214DF2062001F0F4FA36
:103C200097214DF2072001F0EFFA00214DF2082014
:103C300001F0EAFAB1214DF2092001F0E5FA002184
:103C40004DF20A2001F0E0FAD5214DF20B2001F0EF
:103C5000DBFA00214DF20C2001F0D6FAF4214DF2EE
:103C60000D2001F0D1FA01214DF20E2001F0CCFA25
:103C700023214DF20F2001F0C7FA01214DF210204F
:103C800001F0C2FA49214DF2112001F0BDFA0121E3
:103C90004DF2122001F0B8FA87214DF2132001F005
:103CA000B3FA01214DF2142001F0AEFAB6214DF223
:103CB000152001F0A9FA02214DF2162001F0A4FA14
:103CC00000214DF2172001F09FFA02214DF2182039
:103CD00001F09AFA3B214DF2192001F095FA0221E8
:103CE0004DF21A2001F090FA3D214DF21B2001F017
:103CF0008BFA02214DF21C2001F086FA75214DF25B
:103D00001D2001F081FA02214DF21E2001F07CFA03
:103D1000B1214DF21F2001F077FA02214DF220204F
:103D200001F072FAD5214DF2212001F06DFA032144
:103D30004DF2222001F068FA09214DF2232001F012
:103D400063FA03214DF2242001F05EFA28214DF29E
:103D5000252001F059FA03214DF2262001F054FAF2
:103D600052214DF2272001F04FFA03214DF2282075
:103D700001F04AFA6B214DF2292001F045FA0321A6
:103D80004DF22A2001F040FA8D214DF22B2001F056
:103D90003BFA03214DF22C2001F036FAA2214DF21C
:103DA0002D2001F031FA03214DF22E2001F02CFAE2
:103DB000BB214DF22F2001F027FA03214DF23020D4
:103DC00001F022FAC1214DF2312001F01DFA032148
:103DD0004DF2322001F018FAC1214DF2332001F0EA
:103DE00013FA00214FF4534001F00EFA37214DF23F
:103DF000013001F009FA00214DF2023001F004FA1D
:103E000053214DF2033001F0FFF900214DF204304F
:103E100001F0FAF979214DF2053001F0F5F90021B0
:103E20004DF2063001F0F0F997214DF2073001F024
:103E3000EBF900214DF2083001F0E6F9B1214DF225
:103E4000093001F0E1F900214DF20A3001F0DCF90E
:103E5000D5214DF20B3001F0D7F900214DF20C3095
:103E600001F0D2F9F4214DF20D3001F0CDF901212C
:103E70004DF20E3001F0C8F923214DF20F3001F060
:103E8000C3F901214DF2103001F0BEF949214DF284
:103E9000113001F0B9F901214DF2123001F0B4F9FD
:103EA00087214DF2133001F0AFF901214DF21430AA
:103EB00001F0AAF9B6214DF2153001F0A5F9022161
:103EC0004DF2163001F0A0F900214DF2173001F04B
:103ED0009BF902214DF2183001F096F93B214DF289
:103EE000193001F091F902214DF21A3001F08CF9EC
:103EF0003D214DF21B3001F087F902214DF21C30BB
:103F000001F082F975214DF21D3001F07DF9022199
:103F10004DF21E3001F078F9B1214DF21F3001F061
:103F200073F902214DF2203001F06EF9D5214DF2E6
:103F3000213001F069F903214DF2223001F064F9DA
:103F400009214DF2233001F05FF903214DF22430B5
:103F500001F05AF928214DF2253001F055F90321DD
:103F60004DF2263001F050F952214DF2273001F088
:103F70004BF903214DF2283001F046F96B214DF247
:103F8000293001F041F903214DF22A3001F03CF9CA
:103F90008D214DF22B3001F037F903214DF22C30F9
:103FA00001F032F9A2214DF22D3001F02DF903215B
:103FB0004DF22E3001F028F9BB214DF22F3001F0E7
:103FC00023F903214DF2303001F01EF9C1214DF2E9
:103FD000313001F019F903214DF2323001F014F9BA
:103FE000C1214DF2333001F00FF900214FF454405C
:103FF00001F00AF937214DF2014001F005F90021E5
:104000004DF2024001F000F953214DF2034001F05E
:10401000FBF800214DF2044001F0F6F879214DF251
:10402000054001F0F1F800214DF2064001F0ECF8F6
:1040300097214DF2074001F0E7F800214DF20840CA
:1040400001F0E2F8B1214DF2094001F0DDF8002164
:104050004DF20A4001F0D8F8D5214DF20B4001F0A5
:10406000D3F800214DF20C4001F0CEF8F4214DF2CE
:104070000D4001F0C9F801214DF20E4001F0C4F8E5
:1040800023214DF20F4001F0BFF801214DF2104005
:1040900001F0BAF849214DF2114001F0B5F80121C3
:1040A0004DF2124001F0B0F887214DF2134001F0BB
:1040B000ABF801214DF2144001F0A6F8B6214DF203
:1040C000154001F0A1F802214DF2164001F09CF8D4
:1040D00000214DF2174001F097F802214DF21840EF
:1040E00001F092F83B214DF2194001F08DF80221C8
:1040F0004DF21A4001F088F83D214DF21B4001F0CD
:1041000083F802214DF21C4001F07EF875214DF23A
:104110001D4001F079F802214DF21E4001F074F8C3
:10412000B1214DF21F4001F06FF802214DF2204005
:1041300001F06AF8D5214DF2214001F065F8032124
:104140004DF2224001F060F809214DF2234001F0C8
:104150005BF803214DF2244001F056F828214DF27E
:10416000254001F051F803214DF2264001F04CF8B2
:1041700052214DF2274001F047F803214DF228402B
:1041800001F042F86B214DF2294001F03DF8032186
:104190004DF22A4001F038F88D214DF22B4001F00C
:1041A00033F803214DF22C4001F02EF8A2214DF2FC
:1041B0002D4001F029F803214DF22E4001F024F8A2
:1041C000BB214DF22F4001F01FF803214DF230408A
:1041D00001F01AF8C1214DF2314001F015F8032128
:1041E0004DF2324001F010F8C1214DF2334001F0A0
:1041F0000BF800214FF4554001F006F837214DF23D
:10420000015001F001F800214DF2025000F0FCFFD6
:1042100053214DF2035000F0F7FF00214DF20450FE
:1042200000F0F2FF79214DF2055000F0EDFF002182
:104230004DF2065000F0E8FF97214DF2075000F0D4
:10424000E3FF00214DF2085000F0DEFFB1214DF2F6
:10425000095000F0D9FF00214DF20A5000F0D4FFC0
:10426000D5214DF20B5000F0CFFF00214DF20C5044
:1042700000F0CAFFF4214DF20D5000F0C5FF0121FE
:104280004DF20E5000F0C0FF23214DF20F5000F010
:10429000BBFF01214DF2105000F0B6FF49214DF255
:1042A000115000F0B1FF01214DF2125000F0ACFFAF
:1042B00087214DF2135000F0A7FF01214DF2145059
:1042C00000F0A2FFB6214DF2155000F09DFF022133
:1042D0004DF2165000F098FF00214DF2175000F0FB
:1042E00093FF02214DF2185000F08EFF3B214DF25A
:1042F000195000F089FF02214DF21A5000F084FF9E
:104300003D214DF21B5000F07FFF02214DF21C5069
:1043100000F07AFF75214DF21D5000F075FF02216B
:104320004DF21E5000F070FFB1214DF21F5000F011
:104330006BFF02214DF2205000F066FFD5214DF2B7
:10434000215000F061FF03214DF2225000F05CFF8C
:1043500009214DF2235000F057FF03214DF2245064
:1043600000F052FF28214DF2255000F04DFF0321AF
:104370004DF2265000F048FF52214DF2275000F038
:1043800043FF03214DF2285000F03EFF6B214DF218
:10439000295000F039FF03214DF22A5000F034FF7C
:1043A0008D214DF22B5000F02FFF03214DF22C50A8
:1043B00000F02AFFA2214DF22D5000F025FF03212D
:1043C0004DF22E5000F020FFBB214DF22F5000F097
:1043D0001BFF03214DF2305000F016FFC1214DF2BA
:1043E000315000F011FF03214DF2325000F00CFF6C
:1043F000C1214DF2335000F007FF00214FF4564029
:1044000000F002FF37214DF2016000F0FDFE0021B7
:104410004DF2026000F0F8FE53214DF2036000F00F
:10442000F3FE00214DF2046000F0EEFE79214DF222
:10443000056000F0E9FE00214DF2066000F0E4FEA8
:1044400097214DF2076000F0DFFE00214DF2086079
:1044500000F0DAFEB1214DF2096000F0D5FE002136
:104460004DF20A6000F0D0FED5214DF20B6000F055
:10447000CBFE00214DF20C6000F0C6FEF4214DF29F
:104480000D6000F0C1FE01214DF20E6000F0BCFE97
:1044900023214DF20F6000F0B7FE01214DF21060B4
:1044A00000F0B2FE49214DF2116000F0ADFE012195
:1044B0004DF2126000F0A8FE87214DF2136000F06B
:1044C000A3FE01214DF2146000F09EFEB6214DF2D4
:1044D000156000F099FE02214DF2166000F094FE86
:1044E00000214DF2176000F08FFE02214DF218609E
:1044F00000F08AFE3B214DF2196000F085FE02219A
:104500004DF21A6000F080FE3D214DF21B6000F07C
:104510007BFE02214DF21C6000F076FE75214DF20B
:104520001D6000F071FE02214DF21E6000F06CFE75
:10453000B1214DF21F6000F067FE02214DF22060B4
:1045400000F062FED5214DF2216000F05DFE0321F6
:104550004DF2226000F058FE09214DF2236000F078
:1045600053FE03214DF2246000F04EFE28214DF24F
:10457000256000F049FE03214DF2266000F044FE64
:1045800052214DF2276000F03FFE03214DF22860DA
:1045900000F03AFE6B214DF2296000F035FE032158
:1045A0004DF22A6000F030FE8D214DF22B6000F0BC
:1045B0002BFE03214DF22C6000F026FEA2214DF2CD
:1045C0002D6000F021FE03214DF22E6000F01CFE54
:1045D000BB214DF22F6000F017FE03214DF2306039
:1045E00000F012FEC1214DF2316000F00DFE0321FA
:1045F0004DF2326000F008FEC1214DF2336000F050
:1046000003FE5521204600F0FFFDAA21284600F0B8
:10461000FBFD5221304600F0F7FD0821384600F03E
:10462000F3FD0021404600F0EFFD0021484600F078
:10463000EBFD0521504600F0E7FD0221584600F051
:10464000E3FD05214BF2030000F0DEFD02214BF2F9
:10465000040000F0D9FD0821184600F0D5FD5021D6
:104660004FF4354000F0D0FD0521184600F0CCFD98
:1046700000214FF4374000F0C7FD00214BF20170DC
:1046800000F0C2FD01214FF4384000F0BDFD0521CE
:104690004BF6010000F0B8FD05214BF6020000F0DA
:1046A000B3FD05214BF6030000F0AEFD02214FF4EF
:1046B0003C4000F0A9FD00214BF6014000F0A4FDB4
:1046C00000214BF6024000F09FFD03214FF44C40C7
:1046D00000F09AFD00214CF6014000F095FD00210C
:1046E0004CF6024000F090FD01214FF43D4000F0F7
:1046F0008BFD84214BF6015000F086FD07214BF61F
:10470000025000F081FD31214BF6035000F07CFD9A
:1047100000214BF6045000F077FD01214FF43A40A0
:1047200000F072FDAA214FF47F4000F06DFD55218D
:104730004FF6017000F068FD25214FF6027000F081
:1047400063FD01214FF6037000F05EFD40214FF440
:10475000585000F059FD00214FF4545000F054FD22
:1047600005214FF4685000F04FFD4FF4885000F0E1
:1047700035FD7820FCF76AF94FF4245000F02EFD47
:104780000A20FCF763F9BDE8F05F4FF4305000F009
:1047900025BD10B5E22000F021FD1D2000F012FD26
:1047A000022000F00FFD042000F00CFD0120FCF7BA
:1047B0004DF9E02000F012FD012000F003FD0A2079
:1047C000FCF744F9E02000F009FD032000F0FAFCBA
:1047D0000C20FCF73BF9012000F000FD0A20FCF75B
:1047E00035F9E62000F0FAFC2F2000F0EBFCFF206A
:1047F00000F0E8FCFF2000F0E5FCB02000F0EEFC4B
:10480000202000F0DFFC002000F0DCFC032000F0A2
:10481000D9FC40F21F3000F0D5FC012000F0D2FCA2
:1048200040F2DF1000F0CEFC002000F0CBFCB42002
:1048300000F0D4FC042000F0C5FC40F21F4000F062
:10484000C1FC002000F0BEFC2E2000F0BBFC0020CC
:1048500000F0B8FC002000F0B5FC002000F0B2FC35
:10486000002000F0AFFCB62000F0B8FC022000F001
:10487000A9FC4FF4037000F0A5FC002000F0A2FC9E
:10488000172000F09FFC152000F09CFC002000F099
:1048900099FC002000F096FCF02000F09FFC032023
:1048A00000F090FC292000F099FCD02000F096FC4C
:1048B000002000F087FCBE2000F090FC052000F0F6
:1048C00081FCFE2000F07EFC012000F07BFC00203B
:1048D00000F078FC002000F075FC002000F072FC75
:1048E000B82000F07BFC032000F06CFC012000F0FD
:1048F00069FCBA2000F072FCBDE81040012000F015
:1049000061BC10B5112000F069FC7820FCF79EF81E
:10491000362000F063FC002000F054FC3A2000F048
:104920005DFC052000F04EFCB22000F057FC0C208E
:1049300000F048FC0C2000F045FC002000F042FC98
:10494000332000F03FFC332000F03CFCB72000F0A7
:1049500045FC352000F036FCBB2000F03FFC322047
:1049600000F030FCC02000F039FC0C2000F02AFCE4
:10497000C22000F033FC012000F024FCC32000F032
:104980002DFC102000F01EFCC42000F027FC20208D
:1049900000F018FCC62000F021FC0F2000F012FCF3
:1049A000D02000F01BFCA42000F00CFCA12000F0A3
:1049B00009FCE02000F012FCD02000F003FC0020F5
:1049C00000F000FC022000F0FDFB072000F0FAFBE5
:1049D0000A2000F0F7FB282000F0F4FB322000F062
:1049E000F1FB442000F0EEFB422000F0EBFB062040
:1049F00000F0E8FB0E2000F0E5FB122000F0E2FBE7
:104A0000142000F0DFFB172000F0DCFBE12000F0B9
:104A1000E5FBD02000F0D6FB002000F0D3FB022005
:104A200000F0D0FB072000F0CDFB0A2000F0CAFB0D
:104A3000282000F0C7FB312000F0C4FB542000F018
:104A4000C1FB472000F0BEFB0E2000F0BBFB1C208A
:104A500000F0B8FB172000F0B5FB1B2000F0B2FB04
:104A60001E2000F0AFFB2A2000F0B8FB002000F071
:104A7000A9FB002000F0A6FB002000F0A3FBEF2024
:104A800000F0A0FB2B2000F0A9FB002000F09AFB17
:104A9000002000F097FB012000F094FB3F2000F085
:104AA00091FBBDE81040292000F098BB10B5112003
:104AB00000F094FB7820FBF7C9FF362000F08EFB56
:104AC000482000F07FFB3A2000F088FB552000F0E2
:104AD00079FBF02000F082FBC32000F073FBF02094
:104AE00000F07CFB962000F06DFBB42000F076FB1C
:104AF000012000F067FBB62000F070FB0A2000F0F8
:104B000061FBA22000F05EFBB72000F067FBC6202F
:104B100000F058FBB92000F061FB022000F052FBCE
:104B2000E02000F04FFBC02000F058FB802000F098
:104B300049FB162000F046FBC12000F04FFB192076
:104B400000F040FBC22000F049FBA72000F03AFB38
:104B5000C52000F043FB162000F034FBE82000F0F5
:104B60003DFB402000F02EFB8A2000F02BFB0020B4
:104B700000F028FB002000F025FB292000F022FB9C
:104B8000192000F01FFBA52000F01CFB332000F0D3
:104B900019FBE02000F022FBF02000F013FB0720BF
:104BA00000F010FB0D2000F00DFB042000F00AFBCC
:104BB000052000F007FB142000F004FB362000F075
:104BC00001FB542000F0FEFA4C2000F0FBFA3820E4
:104BD00000F0F8FA132000F0F5FA142000F0F2FAD1
:104BE0002E2000F0EFFA342000F0ECFAE12000F083
:104BF000F5FAF02000F0E6FA102000F0E3FA1420B5
:104C000000F0E0FA0E2000F0DDFA0C2000F0DAFAF5
:104C1000082000F0D7FA352000F0D4FA442000F044
:104C2000D1FA4C2000F0CEFA262000F0CBFA10206A
:104C300000F0C8FA122000F0C5FA2C2000F0C2FAE9
:104C4000322000F0BFFAF02000F0C8FA3C2000F05B
:104C5000B9FAF02000F0C2FA692000F0B3FA782027
:104C6000FBF7F4FE212000F0B9FABDE8104029203E
:104C700000F0B4BA2DE9F04F87B03220FBF7E6FE22
:104C8000D32000F0ABFA00F02BF9934CA08000F099
:104C900027F9A08000F024F94FF6FF7101EA002007
:104CA000A08000F01DF9A18849F241380843A08096
:104CB00047F2897545F2103947F2967645F2105A57
:104CC00049F6060741F6631B40457DD0042000F0FD
:104CD00085FA00F005F9A08000F002F9A08000F04C
:104CE000FFF84FF6FF7101EA0020A08000F0F8F80D
:104CF000A1880843A0F50541A080523965D0A8429B
:104D000062D0D42000F06AFA00F0EAF8A08000F047
:104D1000E7F8A08000F0E4F84FF6FF7101EA002008
:104D2000A08000F0DDF8A1880843A080484579D034
:104D3000D32000F053FA00F0D3F8A08000F0D0F8B0
:104D4000A08000F0CDF84FF6FF7101EA0020A080AE
:104D500000F0C6F8A1880843A080B04262D0552177
:104D60004FF4704000F050FAAA214FF2010000F019
:104D70004BFA52214FF2020000F046FA08214FF29E
:104D8000030000F041FA01214FF2040000F03CFA68
:104D90004FF4454000F022FA00F0A2F84FF6FF7100
:104DA00001EA0020A0804CF2015000F017FA00F058
:104DB00097F8A1880843A0800520FBF747FEA1884B
:104DC00051452FD0D32001E02CE032E000F006FA6C
:104DD00000F086F8A08000F083F8A08000F080F852
:104DE0004FF6FF7101EA0020A08000F079F8A18859
:104DF0000843A080B84215D0A12000F0EFF900F0E0
:104E00006FF8A08000F06CF84FF6FF7101EA002007
:104E1000A08000F065F8A1880843A0F5AE41A0800D
:104E2000613908D0A088A84208D100BFFFF769FD0A
:104E300024E0A580FAE7A4F804B01AE0404502D1C6
:104E4000FDF7C0FA1AE0484502D1FDF773FD15E001
:104E5000B04202D1FFF72AFE10E0504502D1FEF722
:104E6000E3FC0BE0B84202D1FDF7C3FB06E0584576
:104E700004D1FFF78EFC642000F07CF91648A1886D
:104E80005038A94201D103210EE0B94203D0414577
:104E900001D0514501D1022106E0494503D0B1427C
:104EA00001D0594508D1012100910291036B82681C
:104EB00040686946FBF75AFD0020FDF70DFA012214
:104EC000D1030648FBF720FF4FF6FF70FDF7ECF922
:104ED00007B0BDE8F08F000054010020000402403C
:104EE00008B50220401EFDD24FF0D840B0F8800037
:104EF000ADF80000BDF8000008BD000070B55F4CC3
:104F000000232146A279898841F66316012A01D03F
:104F10001AB10CE0B14202D109E0B14207D1082830
:104F200005D2DFE800F0161812140C19100E08282C
:104F300012D2DFE800F0110406080A0C0E108023DC
:104F40000AE0402308E0C02306E0202304E06023B9
:104F500002E0A02300E0E023362045F21055A942EC
:104F600000D10002A1F51342413A07D0A1F5EE426B
:104F7000893A03D0A1F5EE42963A01D143F00803F5
:104F8000194600F041F9A188B1420AD0980620885C
:104F9000628802D5904202D303E0904201D9228078
:104FA00060806089A94240D100F018F9002000F02B
:104FB00009F96089401C80B200F010F9002000F06F
:104FC00001F96089801C80B200F008F92088401E39
:104FD000C0F30F2000F0F6F86089C01C80B200F02A
:104FE000FDF82078401EC0B200F0ECF8A08900F077
:104FF000F5F8002000F0E6F8A089401C80B200F02F
:10500000EDF8002000F0DEF8A089801C80B200F0EE
:10501000E5F86088401EC0F30F2000F0D3F8A089A7
:10502000C01C80B200F0DAF821E000F0D7F80020D0
:1050300000F0C8F8002000F0C5F82088401EC0F33A
:105040000F2000F0BFF82078401EC0B200F0BAF880
:10505000A08900F0C3F8002000F0B4F8002000F0B0
:10506000B1F86088401EC0F30F2000F0ABF8A078C4
:10507000BDE87040401EC0B200F0A4B8540100204A
:10508000F0B53B4A0D460446060A918810462F0AA1
:105090004089A1F5C853633B16D0A1F5AA43103B44
:1050A0004CD000F09BF8304600F08CF8E0B200F0F5
:1050B00089F8908900F092F8384600F083F8E8B259
:1050C000BDE8F04000F07EB8917931B300F086F889
:1050D000304600F077F8E0B200F074F81088401E17
:1050E000C0F30F2000F06EF81078401E5FFA80F0D9
:1050F00000F068F8908900F071F8384600F062F826
:10510000E8B200F05FF85088401EC0F30F2000F0B6
:1051100059F89078401EC0B2D2E71188091B491E89
:105120008CB200F05BF8002000F04CF8002000F09A
:1051300049F8200A00F046F8E0B2D9E700F04EF84E
:10514000304600F03FF85089401C80B200F046F82D
:10515000E0B200F037F8908900F040F8384600F0EF
:1051600031F89089401C80B200F038F8A7E70000C1
:105170005401002010B50246BE2000F02FF8052093
:1051800000F020F81046FBF754F99FED0C1B53EC90
:10519000112BFBF7DCF8FBF759F980B200F012F89D
:1051A000012000F00FF8FF2000F00CF8002000F0C4
:1051B00009F8BDE81040002000F004B86666666695
:1051C0006666044001B5BDF80000ADF80000BDF80A
:1051D00000004FF0D841A1F8800008BD01B5BDF82E
:1051E0000000ADF80000BDF800004FF0D841A1F874
:1051F0007E0008BD03484FF0D8410089A1F87E0029
:1052000070470000540100204FF0D84222F87E0F72
:10521000518070472DED028B84B0FBF789FDFCF7C0
:1052200065FAFCF7EBF9FCF7A5F9FCF73DFAFFF797
:1052300021FD9FED178A174C4FF4FA758DED028A08
:10524000FBF768FDA168401AA842F7D3FBF762FD9F
:10525000A06002A8FBF724FB58B12668761C2660E4
:105260000298FBF70CF9CDE9000131460AA062680B
:105270000BE06068401C064660600298FBF7FFF890
:10528000CDE9000132460EA02168FCF769FBD5E7A5
:1052900000000000000000205B4453505D2050419E
:1052A00053533D256C75204641494C3D256C752076
:1052B0004D41585F4552523D252E38660D0A00007B
:1052C0005B4453505D204641494C2120504153538B
:1052D0003D256C75204641494C3D256C75204D415E
:1052E000585F4552523D252E38660D0A00000000D9
:1052F0000000000000000000010203040607080986
:1053000000000000010203042853000800000020F0
:105310006C000000DA190008945300086C000020AB
:10532000FC040000EA190008000000000000000072
:10533000000000000000803F000000C0000060404E
:10534000000080C00000A8400000D8C00000E0407D
:10535000000008C10000003F0000A03F000080BF27
:1053600000000040000020C000004040000060C07D
:10537000000080400000000000000000010000006C
:1053800010000000000000000024F40000000000F5
:045390000000000019
:040000050800018965
:00000001FF
