:020000040800F2
:1000000018050020A1010008371C0008151B000876
:10001000351C000805090008B31E00080000000098
:100020000000000000000000000000003B1C000871
:10003000B909000800000000391C00083D1C000838
:10004000BB010008BB010008BB010008BB010008A0
:10005000BB010008BB010008BB010008BB01000890
:10006000BB010008BB010008BB010008BB01000880
:10007000BB010008BB010008BB010008BB01000870
:10008000BB010008BB010008BB010008BB01000860
:10009000BB010008BB010008BB010008BB01000850
:1000A000BB010008BB010008BB010008BB01000840
:1000B000BB010008BB010008BB010008BB01000830
:1000C000BB010008BB010008BB010008BB01000820
:1000D000BB010008BB010008BB010008BB01000810
:1000E000BB010008BB010008BB010008BB01000800
:1000F000BB010008BB010008BB010008BB010008F0
:10010000BB010008BB010008BB010008BB010008DF
:10011000BB010008BB010008BB010008BB010008CF
:1001200009090008BB010008BB010008BB01000869
:10013000BB010008BB010008BB010008BB010008AF
:10014000BB010008BB010008BB010008BB0100089F
:10015000BB010008BB010008BB010008BB0100088F
:10016000BB010008BB010008BB010008BB0100087F
:10017000BB010008BB010008BB0100080000000033
:10018000BB010008BB010008DFF810D000F05EFAE8
:1001900000480047B9270008AFF300801805002089
:1001A0000648804706480047FEE7FEE7FEE7FEE711
:1001B000FEE7FEE7FEE7FEE7FEE7FEE7D51C0008E8
:1001C000890100082DE9F05F0546002092469B4614
:1001D00088460646814640241BE02846414647465D
:1001E000224600F06AF853465A46C01A914110D38D
:1001F00011461846224600F051F82D1A67EB010807
:100200004F4622460120002100F048F817EB000974
:100210004E41201EA4F10104DFDC484631462A4647
:100220004346BDE8F09FD2B201E000F8012B491E21
:10023000FBD270470022F6E710B513460A46044683
:100240001946FFF7F0FF204610BD00F0004230F0E5
:1002500000400AD0C10D01F56071C0F3160042EAFA
:100260000151C20840071143704700200146704702
:1002700030B50B46014600202022012409E021FA76
:1002800002F59D4205D303FA02F5491B04FA02F573
:100290002844151EA2F10102F1DC30BD202A04DB46
:1002A000203A00FA02F1002070479140C2F1200389
:1002B00020FA03F3194390407047202A04DB203AC8
:1002C00021FA02F00021704721FA02F3D040C2F176
:1002D000200291400843194670472DE9FE4F8046A1
:1002E00081EA0300C00F0C46009021F0004123F08A
:1002F0000045B8EB0200A94105D240462146904690
:100300001C460B46024623F00040104347D0270D01
:10031000C7F30A00C3F30A510290401A0190402823
:100320006BDAC3F3130040F4801B0098924620B1AF
:100330000023D2EB030A63EB0B0B01985946C0F183
:1003400040025046FFF7AAFF06460D465046594662
:10035000019A00F08DF910EB08006141002487EA52
:10036000115284EAE7731A4340D0009A62B3019AAB
:10037000012A4FEA075215DC001B61EB02014FF026
:10038000004202EA0752CDE90042001C41F580110B
:1003900032462B4600F08DF903B0BDE8F08F4046A1
:1003A0002146F9E7001B61EB0201001C41F58013B7
:1003B00000185B412018A2F5001747EB030140EA43
:1003C000D570B6196D4111E06D084FEA360645EA61
:1003D000C0754FEA0752001B61EB0201001C41F59A
:1003E000801149084FEA30000019514132462B462E
:1003F00003B0BDE8F04F00F04DB900980122400075
:100400000023D0EB020263EBE073009821464FEA31
:10041000E074B8EB000061EB0401E9E783F000430E
:100420005BE781F0004158E72DE9FE4F81EA0304C4
:1004300004F0004421F0004100944FF0000B23F041
:10044000004350EA01045ED052EA03045BD0C3F3D8
:100450000A54C1F30A552C44A4F2F3340194A0FBCE
:100460000254C1F3130141F48011C3F3130343F4A5
:10047000801301FB024400FB034E840A970A44EAFE
:10048000815447EA8357A4FB076802958D0A05FB50
:1004900007854FEA932C04FB0C542705029D4FEA75
:1004A000065847EA1637B5EB08056EEB070C870EC2
:1004B000920E47EA811742EA8312A7FB0201B6EBCC
:1004C0000B0164EB00042B0D43EA0C335E1844EB84
:1004D0001C50DA465146E7FB0201C5F313044FEA0C
:1004E0000B3343EA14534FEA0432019C43EA0603F8
:1004F000A4F10C040294009CCDE900B400F0D9F8FA
:1005000003B0BDE8F08F00200146F9E72DE9F04D7A
:1005100081EA030404F0004B21F0004514464FF03B
:10052000000A23F0004150EA050220D054EA0102FB
:100530001DD0C5F30A570246C5F31303C1F31300D8
:10054000C1F30A5640F4801543F48013A7EB060864
:10055000101BD64608F2FD3873EB050002D308F1F4
:10056000010801E092185B41B8F1000F03DA0020A6
:100570000146BDE8F08D00204FF480110646844608
:100580000EE0171B73EB050705D3121B63EB050386
:1005900006434CEA010C49084FEA300092185B41CF
:1005A00050EA0107EDD152EA030012D082EA0400BA
:1005B00083EA0501084305D0101BAB4106D2012296
:1005C000002306E000224FF0004302E06FF001023A
:1005D00053101AEB06004CEB085110EB0A0041EBEC
:1005E0000B01BDE8F04D00F055B8C1F30A52C1F35C
:1005F000130140F2FF3341F480119A4202DA0020E5
:100600000146704740F233439A42A2F2334202DC81
:100610005242FFF752BEFFF741BE000030B5041E44
:1006200071F1000404DB4FF00044404264EB01012F
:10063000141E73F1000405DB1C464FF000435242C8
:1006400063EB0403994208BF904230BD064C074D4E
:1006500006E0E06840F0010394E807009847103492
:10066000AC42F6D3FFF794FD1028000830280008AC
:10067000202A06DBCB17203A41FA02F043EAE07366
:1006800006E041FA02F3D040C2F120029140084353
:100690001946704710B5141E73F1000408DA401CA7
:1006A00041F1000192185B411A4301D120F0010091
:1006B00010BD2DE9F04D92469B4611B1B1FA81F281
:1006C00002E0B0FA80F220329046FFF7E7FD0446E0
:1006D0000F4640EA0A0041EA0B0153465A460843D6
:1006E00013D0114653EA010019D0C8F14002504618
:1006F000FFF7E3FD05460E46504659464246FFF7D2
:10070000CDFD084305D0012004E020463946BDE870
:10071000F08D0020054346EAE0762C4337430A98E3
:100720006305E40AA0EB08000022FD0A44EA4754EE
:100730000A3002D500200146E9E701051019694198
:10074000DDE9084500196941BDE8F04DA2E710B5A3
:100750000146806B026C12F0500F05D0026CD2067D
:1007600026D500F02CFA10BD016C41F40071016433
:1007700001688A6812F0405F17D1027EAAB9CA6A7E
:1007800012F4700F02D08A6852050ED44A6822F023
:1007900020024A60016C21F480710164016CC9047B
:1007A00003D4016C41F00101016400F0AFF910BD08
:1007B000806BC26CBDE810400846104710B5806BD6
:1007C00040210164416C41F00401416400F0F7F9FB
:1007D00010BD10B5806B00F0F1F910BD464910B5A1
:1007E0004A6822F440324A604A6843681A434A60C1
:1007F00001684A6822F480724A6001684A680369A5
:1008000042EA03224A6001684A6822F040724A6064
:1008100001684A6883681A434A6001688A6822F45A
:1008200000628A6001688A68C3681A438A60816AC4
:100830006FF07062D14201688A6822F070628A604B
:1008400001688A680CD0836A1A438A6001688A68E2
:1008500022F040528A6001688A68C36A1A4301E044
:1008600022F040528A6001688A6822F002028A609F
:1008700001688A68037E42EA43028A6090F8201089
:10088000002901684A680FD042F400624A6001689A
:100890004A6822F460424A6001684A68174C436A19
:1008A00004EB43331A4301E022F400624A6001681A
:1008B000CA6A22F47002CA620168CA6A838B104C49
:1008C00004EB03531A43CA6201688A6822F4007277
:1008D0008A6001688A6890F8303042EA43228A6070
:1008E00001688A6822F480628A6001688A684069C7
:1008F00042EA8020886010BD0023014000E0FFFF35
:100900000000F0FFFEE70000014800F07BBA0000A5
:100910007000002001681823CAB2103AB2FBF3F24B
:10092000054B6FF30901032A9B5CC36500D9091DC0
:100930008165084670470000F027000810B50146A1
:1009400000208B698A6A4FF0C07453B1B3F5005F21
:1009500015D072B1012A0CD0022A0AD0032A09D17B
:1009600004E01AB1012A06D0022A03D1C96AC901DA
:1009700000D5012010BDC96AA142FAD010BD002ADD
:10098000F7D0012AF2D0022AF3D0032AF3D010BD07
:1009900030B50468256825F4802525600468636007
:1009A0008368402B036803D099600068C26030BD43
:1009B0009A600068C16030BD704772B6FEE7000003
:1009C00078B50024009490F83C20012A19D0012227
:1009D00080F83C200A6807230568092A13D9EE68C5
:1009E0000A3A02EB420293409E43EE600B788A681B
:1009F0000A3B03EB43039A400368DD682A43DA604D
:100A000010E0022078BD2E6902EB420293409E4323
:100A10002E610B788A6803EB43039A4003681D69D3
:100A20002A431A614A681F23072A13D205686E6B8E
:100A3000521E02EB820293409E436E630B790A883A
:100A40005B1E92B203EB83039A4003685D6B2A43FB
:100A50005A6327E005680D2A12D22E6BD21F02EBD3
:100A6000820293409E432E630B790A88DB1F92B269
:100A700003EB83039A4003681D6B2A431A6311E05A
:100A8000EE6A0D3A02EB820293409E43EE620B79CE
:100A90000A880D3B92B203EB83039A400368DD6A38
:100AA0002A43DA62164B0568144A9D4206D10D6846
:100AB000122D03D1556845F48005556005689D42A7
:100AC00018D10B68102B01D0112B13D1536843F4AC
:100AD00000035360096810290CD10A490A4A0968C1
:100AE000B1FBF2F101EB8101490000E0491E0091E8
:100AF0000029FBD180F83C40002078BD0023014054
:100B0000002001401400002040420F00F0B52DED00
:100B1000028B83B00068194988422BD1184E9FED93
:100B2000198ADFED198A194F002400BF36F81450D6
:100B300007EB840000EE105AF8EE400A80EE880AB7
:100B400020EE280A80ED000A10EE100AFFF77DFB68
:100B5000CDE900012A46611C0DA001F0ABF9641C2F
:100B6000032CE3DB03B014A0BDEC028BBDE8F04026
:100B700001F0A0B903B0BDEC028BF0BD0020014034
:100B80000000002000F07F45333353401C0000205C
:100B9000CDA8EFBFBDEFBFBD25642CD4ADCABCD678
:100BA000B53D25642CEFBFBDEFBFBDD1B9D6B53D76
:100BB00025660D0A000000000D0A0000704770470E
:100BC00070B504004FF0000503D0206C002610B172
:100BD00007E0012070BD204600F01CF8666484F830
:100BE0003C60206CC00610D4206C20F4885040F08B
:100BF000020020642046FFF7F1FD6664206C20F0BF
:100C0000020040F00100206400E0012584F83C600F
:100C1000284670BD70B586B0064614216846FFF7B9
:100C200009FB1D493068884233D11C480025016802
:100C300041F480710160006800F4807005901748ED
:100C40001438016841F0010101600068694600F054
:100C5000010005900E2000900320CDE90105104809
:100C600000F054FA104C0F48C4E900050015A560C7
:100C7000C4E90350400060618000C4E906052562B4
:100C80002046656200F08EF908B1FFF796FEB46366
:100C9000A66306B070BD0000002001404438024049
:100CA000000002401064024070000020F8B50E46BB
:100CB00000210446009190F83C0013460A460128A2
:100CC00007D0012084F83C0020688568ED0702D039
:100CD00011E00220F8BD856845F0010585604048B7
:100CE000404D0068B0FBF5F000EB400000E0401E16
:100CF00000900028FBD120688568ED0503D5856844
:100D000025F48075856020688568ED075DD0226CCC
:100D100040F20165AA4342F48072226440684005B3
:100D200005D5206C20F4005040F480502064206CE5
:100D3000C00404D5606C20F00600606400E06164CB
:100D400084F83C10A16B2948274DC863A16B284843
:100D50000864A16B2748C86421686FF0220008600E
:100D60002068416841F0806141602068816841F4F9
:100D700080718160216832464C31A06B00F07CF9B3
:100D8000024668681C49C006206806D0884224D103
:100D9000816811F0405F13D01FE08842F8D0174BF4
:100DA000984203D1D1F80433DB06F1D0144B9842BA
:100DB00013D1D1F8041301F01F011029E8D30CE07E
:100DC000816841F08041816007E0206C40F01000B4
:100DD0002064606C40F0010060641046F8BD0000C3
:100DE0001400002040420F00002301404F0700087C
:100DF000D3070008BD070008002001400021014082
:100E0000002201402DE9F84304464FF00009CDF8D7
:100E1000009063484FF41651A56D0068B0FBF1F7E0
:100E20002E6894F85C10082000FA01F131420FD0CE
:100E300021680A6852070BD50A6822F004020A608A
:100E400094F85C108840A860606D40F00100606517
:100E500094F85C104FF0010808FA01F0304208D015
:100E600021684969090604D5A860606D40F0020058
:100E7000606594F85C1004208840304208D02168F6
:100E80000968890704D5A860606D40F004006065BA
:100E900094F85C1010208840304218D0216809680E
:100EA000090714D5A86020680168490304D50068C3
:100EB000000308D5A16C07E00168C90503D40168E7
:100EC00021F008010160216C09B12046884794F89F
:100ED0005C1020208840304231D021680968C90662
:100EE0002DD5A86094F8350005282068016806D043
:100EF000490347D5006800031DD4616C1CE021F054
:100F0000160101602068416921F080014161206C77
:100F100008B9A06C20B12068016821F008010160C7
:100F200094F85C103F208840A86084F8358084F8ED
:100F30003490216D1FE0E16B09B120468847606D58
:100F400000282BD0606DC00714D0052084F8350030
:100F50002068016821F0010101600098401C0090A8
:100F6000B84203D820680068C007F6D184F83580FD
:100F700084F83490E16C002910D001B02046BDE81F
:100F8000F04308470168C905D5D4016821F0100174
:100F9000016084F8358084F83490CCE7BDE8F883AC
:100FA000140000202DE9F041044600F0A7F90646A0
:100FB0005CB1022084F83500002584F834502068A4
:100FC000016821F0010101600DE00120BDE8F08120
:100FD00000F094F9801B052805D9202060650320C6
:100FE00084F83500F2E720680068C007F0D1226875
:100FF000116820480140D4E901031843D4E90336BD
:101000003343184363691843A3691843E3691843DA
:10101000236A18430843616A042903D1D4E90B13F6
:1010200019430843106020684069666A20F0070190
:1010300030460E43012704280CD1A06A0643E06A1B
:1010400040B12046FFF77AFC20B14020606584F86B
:101050003570BAE7206846612046FFF75BFC94F8DC
:101060005C203F2191408160656584F835700020E7
:10107000ACE700003F8010F02DE9F0410446866D9A
:1010800090F83400002501280DD0012084F83400A8
:1010900094F835700020012F07D084F83400022521
:1010A0002846BDE8F0810220FBE7022784F835706E
:1010B00060652046FFF76CFC94F85C103F20884088
:1010C000B0602068016841F016010160206C20B119
:1010D0002068016841F0080101602068016841F062
:1010E00001010160DCE7000070B5044600F006F97C
:1010F0000546601C02D004480078044400F0FEF865
:10110000401BA042FAD370BD080000202DE9F84F23
:10111000DFF8BCA10022012503264FF00F090AF1D8
:10112000040BAAF1040E00BF0B6805FA02F4234079
:10113000A34270D10F7907F00307012F01D0022FCE
:1011400016D187684FEA420806FA08FC27EA0C071E
:10115000D1F80CC00CFA08FC4CEA070CC0F808C027
:101160004768A7430C79C4F3001494403C4344609F
:101170000C79E443A4070AD0C4684FEA420C06FA8B
:101180000CF7BC438F6807FA0CF72743C7600C794C
:1011900004F00304022C12D1D40800EB840CDCF818
:1011A00020405707FF0E09FA07F824EA0804D1F88F
:1011B000108008FA07F848EA0408CCF82080046890
:1011C0004FEA420C06FA0CF7BC430F7907F003070D
:1011D00007FA0CF7274307604C6814F4403F70D0BF
:1011E0003C4C276847F480472760246822F00307B7
:1011F00004F480440094384C07EB040CDCF80848F5
:1012000097074FEA177809FA08F7BC43334FB842FB
:1012100002D1002724E054E0314FB84201D1012728
:101220001EE0304FB84201D1022719E02E4FB842DC
:1012300001D1032714E02D4FB84201D104270FE05C
:101240002B4FB84201D105270AE02A4FB84201D1FD
:10125000062705E0284FB84201D1072700E00827FC
:1012600007FA08F72743CCF80878DAF80040574621
:10127000D1F804C09C435FEACC2C00D51C433C60F1
:10128000DBF800405F46D1F804C09C435FEA8C2C39
:1012900000D51C433C60DEF800407746D1F804C01E
:1012A0009C435FEA8C3C00D51C433C60084F083FE0
:1012B0003C68D1F804C09C435FEACC3C00D51C4399
:1012C0003C60521C102AFFF42FAFBDE8F88F0000DD
:1012D000083C014044380240003001400000024018
:1012E0000004024000080240000C024000100240CE
:1012F0000014024000180240001C024001488068AF
:1013000070470000080000200248816802781144FC
:1013100081607047080000200B4810B5016841F457
:1013200000710160016841F480610160016841F46D
:1013300080710160032000F06FF80F2000F006F8C4
:1013400000F024F8002010BD003C024070B50D4DA7
:1013500004464FF47A712878B1FBF0F00A49096825
:10136000B1FBF0F000F00AFB48B9102C07D20022C4
:101370002146501E00F030F800206C6070BD012046
:1013800070BD000008000020140000200A4808B5C5
:10139000016841F480410160006800F480400090E1
:1013A0000548001F016841F080510160006800F0AD
:1013B0008050009008BD000044380240002809DB3E
:1013C00000F01F02012191404009800000F1E0205F
:1013D000C0F8001170470000F0B40E4B1B680C46BB
:1013E000C3F30223C3F10705042D00D90425191DF9
:1013F000072901D2002300E0DB1E012606FA05F1D1
:10140000491E214099409E40761E16403143F0BC53
:1014100000F060BD0CED00E0064900F0070208682E
:101420004FF6FF03184040EA0220034A10430860C9
:10143000704700000CED00E00000FA052DE9F047D0
:101440000E46050065D0DFF81481D8F80000F7B229
:1014500000F00700B04207D288F80070D8F800000A
:1014600000F00700B04254D128683D4C810712D5E6
:10147000400703D5206840F4E0502060287800073A
:1014800003D5206840F4604020602068A96820F0FF
:10149000F000084320602878C0072DD030496868E4
:1014A0000839012812D0022813D0032811D0096866
:1014B000890700292DDA216821F003010143216009
:1014C000FFF71CFF814641F2883A0EE00968890364
:1014D000EFE709688901ECE7FFF710FFA0EB0901CE
:1014E000514502D90320BDE8F0872068696800F003
:1014F0000C00B0EB810FEFD1D8F80010404601F09E
:101500000701B14207D90770006800F00700B04238
:1015100001D00120E7E72878400705D52068E96871
:1015200020F4E050084320602878000706D52068A2
:10153000296920F4604040EAC100206000F038F8DA
:101540002168084AC1F30311515CC840064908608C
:1015500006480068FFF7FAFE0020C4E7003C02409E
:1015600008380240F8270008140000200C00002072
:101570000448054900680968044AC1F38221515CA6
:10158000C8407047140000200838024008280008AE
:101590000448054900680968044AC1F34231515CB6
:1015A000C84070471400002008380240082800088E
:1015B000154810B5006810F00C02144813D0411003
:1015C000042A0FD0082A0ED10F4C241F226823684A
:1015D00002F03F025B0207D52068C0F38810A0FB31
:1015E000010106E0084610BD2168C1F38811A1FB86
:1015F00000010023FEF7E6FD2168C1F30141491C0B
:101600004900B0FBF1F010BD083802400024F4009E
:101610002DE9F84F04006ED02078DFF84C93C00716
:10162000A9F104054AD009F104000168C1F3810160
:10163000012908D00068C0F3810002280AD1D9F836
:101640000000400206D52868800337D5606800286E
:10165000E1D033E06068B0F5803F10D0B0F5A02F46
:10166000286810D020F480302860286820F480207A
:1016700028606068A8B1FFF741FE06460DE02868C3
:1016800040F48030F4E740F480202860F7E700BFA2
:10169000FFF734FE801B642873D828688003F7D5D1
:1016A0000CE0FFF72BFE064605E000BFFFF726FE25
:1016B000801B6428F0D828688003F7D42078DFF8EE
:1016C000AC8280074FF0000A3ED5A748001D016894
:1016D00011F00C0F08D00068C0F3810002280BD174
:1016E000D9F80000400207D42868800716D5E068C2
:1016F000012800D112E033E1E068B8B10120C8F858
:101700000000FFF7FBFD064605E000BFFFF7F6FD12
:10171000801B0228C0D828688007F7D5286821696F
:1017200020F0F80040EAC10028600DE0C8F800A0F1
:10173000FFF7E4FD064604E0FFF7E0FD801B02280A
:101740001FD828688007F7D42078000722D5864F55
:1017500087486169703771B101210160FFF7CEFDE3
:10176000064604E0FFF7CAFD801B022809D8386846
:101770008007F7D50EE0C0F800A0FFF7BFFD0646D2
:1017800005E082E0FFF7BAFD801B02287DD83868AB
:101790008007F7D42078400768D5DFF8CCB1002760
:1017A0000BF13C0BDBF80000C0000BD4DBF80010A1
:1017B00041F08051CBF80010DBF80000012700F069
:1017C000805000906B4E3068C00510D4306840F4F3
:1017D00080703060FFF792FD009005E0FFF78EFD0E
:1017E0000099401A022850D83068C005F6D55E4EE0
:1017F000A0686C3601280FD00528306810D020F082
:1018000001003060306820F004003060A068B8B19A
:10181000FFF774FD00900FE0306840F00100F4E73E
:1018200040F004003060F7E7FFF768FD0099411AC7
:1018300041F28830814266D830688007F4D50EE0E6
:10184000FFF75CFD009007E0FFF758FD0099411A93
:1018500041F28830814256D830688007F4D42FB1E5
:10186000DBF8001021F08051CBF80010A069C8B35C
:101870003D49091D0968C1F3810102294AD00228A6
:10188000504607D0C8F8600000E03CE0FFF736FDA6
:1018900004463BE04746C8F86000FFF72FFD0646C8
:1018A00005E000BFFFF72AFD801B02282BD828681F
:1018B0008001F7D4D4E907010843A16A2E4A4908F8
:1018C00002EB0141626A41EA8211084394F82C104C
:1018D00040EA0161C9F8001001203866FFF70EFDEB
:1018E000044606E03EE000BFFFF708FD001B0228AB
:1018F00009D828688001F7D534E000BFFFF7FEFC67
:10190000001B022802D90320BDE8F88F2868800157
:10191000F4D427E00128F7D0D9F80000E26900F4F8
:10192000800191421CD1226A00F03F01914217D1FF
:1019300047F6C071626A0140B1EB821F10D1A26A02
:101940004FF0FF3300F4403103EB5202B1EB024F92
:1019500006D194F82C1000F07060B0EB016F01D04C
:101960000120D1E70020CFE70438024000004742C1
:10197000800E4742007000400000FFFF10B5401E7F
:10198000B0F1807F01D3012010BD4FF0E0246061F1
:101990000F21601700F09EFA0020A061072020614F
:1019A000002010BD70B5040004D094F8410000255B
:1019B00010B106E0012070BD84F84050204600F0D0
:1019C00023F8242084F841002068C16821F40051E4
:1019D000C160204600F0AEF92068016921F4904111
:1019E00001612068416921F02A0141612068C168D4
:1019F00041F40051C1606564202084F8410084F8FE
:101A000042006563002070BD10B586B00446142105
:101A10006846FEF70FFC14492068884221D113481C
:101A20000021026842F010020260006800F010001D
:101A300005900E481438026842F001020260006806
:101A400000F0010005904FF4C06000900220CDE945
:101A50000101032003900720049069460448FFF722
:101A600055FB06B010BD0000001001404438024094
:101A7000000002402DE9F843044690F841009846E2
:101A800016460D46202802D00220BDE8F88385B115
:101A90007EB100206064212084F84100FFF72EFC15
:101AA000A6848146E684A0682027B0F5805F02D036
:101AB00003E00120E9E7206910B12E4600250EE081
:101AC00000260CE08021204600F0BAF9A8B9C6B182
:101AD00016F8010B21684860E08C401EE084E08C21
:101AE0004B464FF00002CDF800800028EAD14FF0BD
:101AF0004001204600F0A4F940B184F84170032071
:101B0000C3E735F8020BC0F30800E3E784F841703F
:101B10000020BAE7FEE700007FB500241F480094CC
:101B2000019402941C490394016001254FF4803113
:101B30000561C0E90114047680F820401849C0E925
:101B40000A140326C661C46080F830404561FFF77F
:101B500037F808B1FEF731FF0095CDE90154694629
:101B60000E48FEF72DFF08B1FEF727FF0220009078
:101B7000019069460948FEF723FF08B1FEF71DFFF3
:101B80000096694605480196FEF71AFF002801D025
:101B9000FEF713FF7FBD0000002001402800002059
:101BA0000100000F094808B5016841F48001016097
:101BB0000068002200F48000009011463820FFF7F2
:101BC0000BFCBDE808403820FFF7F8BB3038024076
:101BD000094808B5016841F080010160016801F021
:101BE00080010091016841F001010160006800F08E
:101BF0000100009008BD0000303802400C4810B5CC
:101C00000A4901604FF4E1314160002181600C22FA
:101C1000C160C0E904128161C161FFF7C3FE002801
:101C200003D0BDE81040FEF7C8BE10BD0010014053
:101C3000D0000020FEE7FEE770477047FFF764BB67
:101C400030B593B030216846FEF7F4FA14210CA8A1
:101C5000FEF7F0FA1D480025016841F0805101604F
:101C6000006800F0805011901948016841F48041EB
:101C700001600068022400F480401190012000906F
:101C8000000401908001CDE9064008AA0420A821A3
:101C900082E813000B906846FFF7BAFC08B172B6F1
:101CA000FEE70CA90F2081E831004FF4A0500F90FF
:101CB0004FF48050109005210CA8FFF7BFFB0028BF
:101CC00001D072B6FEE713B030BD000040380240CC
:101CD000007000400248016841F4700101607047E3
:101CE00088ED00E001680C3151E8002F22F4907279
:101CF00041E80023002BF5D10168143151E8002F91
:101D000022F0010241E80023002BF5D1016B0129EB
:101D100009D101680C3151E8002F22F0100241E88E
:101D20000023002BF5D1202180F84210002101630F
:101D30007047000070B5044600680169E26821F44C
:101D40004051114301612169A068E269084361695A
:101D5000114308432168CA6849F20C639A4302435D
:101D6000CA6020684169A26921F440711143416150
:101D700031492068884202D03049884202D1FFF7B9
:101D800007FC01E0FFF7F4FBE26900231921642559
:101D90003226B2F5004F626828D0A0FB0101930FF4
:101DA0009200FEF70FFA0146B0FBF5F06FF0180253
:101DB000504301EB800006EB0010B0FBF5F000F0A3
:101DC000F002B1FBF5F002EB0012B1FBF5F06FF0A1
:101DD0001803584301EB800006EB0010B0FBF5F050
:101DE00000F00F0021681044886070BDA0FB010165
:101DF00092185B41FEF7E6F90146B0FBF5F00201EF
:101E0000B1FBF5F06FF01803584301EB800006EBCF
:101E1000C000B0FBF5F000F0F80002EB4002B1FBAF
:101E2000F5F0584301EB800006EBC000B0FBF5F085
:101E300000F00700D6E70000001001400014014048
:101E40002DE9F843984617460D460446089E24E0BF
:101E5000701C22D0FFF752FAA0EB0800B0421AD84B
:101E6000CEB12068C168490717D5802D15D0402D07
:101E700013D00168C94309070FD4016800254068E1
:101E800000902046FFF72EFF0820606484F8405041
:101E90000120BDE8F8830320FBE72068006835EAED
:101EA000000004D00020B842D2D00020F1E7012089
:101EB000F9E7FEE70FB4054B10B503A9044A0298F1
:101EC00000F0EAF810BC5DF814FB0000A127000840
:101ED000180000200907090E002804DB00F1E020AB
:101EE00080F80014704700F00F0000F1E02080F847
:101EF000141D704702E008C8121F08C1002AFAD159
:101F000070477047002001E001C1121F002AFBD179
:101F1000704700002DE9FF5F82B00021DDE9043049
:101F2000020DDDF840B0034318D044F61050A2F281
:101F3000FF3242431514119801281FD0A5EB0B0066
:101F4000401C5FEA000A4FF000064E4FDFF8389160
:101F5000B046504615D5CAF1000413E0119801248B
:101F60004AA3012801D16FEA0B010298119AC0E936
:101F70000031C0E9024206B0BDE8F09FCBF100009D
:101F8000DFE704460021404A491842EB0450CDE9FE
:101F9000001012E0E00707D032463B464046494673
:101FA000FEF742FA8046894632463B4610461946BD
:101FB000FEF73AFA06460F466410002CEAD1DDE936
:101FC0000401DDE90023BAF1000F06DAFEF72CFA6E
:101FD00042464B46FEF728FA05E0FEF797FA4246DE
:101FE0004B46FEF793FA04460E460022284BFEF7B6
:101FF00015FB03D84FF0FF30014607E00022254BC8
:1020000020463146FEF769F9FEF7EFFA102409E0A1
:10201000002C0ADB0A220023FEF7D4F8039B30329F
:102020001A55641E50EA0102F2D1641C039AC4F1ED
:1020300011031444119A012A03D0012208430DD13F
:102040000AE0084304D000204FF0110B119072E712
:10205000A3EB0B056D1E0DE05B4504DD4FF00002A8
:1020600005F1010504E003DA4FF00002A5F10105D6
:10207000002AECD002981199C0E90231C0E900456C
:1020800079E70000000014400000F03F300000003D
:102090000000F0430000E03F2DE9FF4F95B09A4665
:1020A000884606460025EEE1252877D100242746FC
:1020B000F94A0121039400E0044316F8013F203B54
:1020C00001FA03F01042F7D130782A2811D06FF0CE
:1020D0002F033078A0F13002092A16D8039A44F071
:1020E000020402EB820203EB42021044761C0390CE
:1020F000EFE758F8042B0392002A03DA504244F425
:102100000054039044F00204761C30782E2816D137
:1021100016F8010F44F004042A280DD06FF02F02A6
:102120003078A0F13003092B09D807EB870302EBC5
:102130004303C718761CF3E758F8047B761C307805
:102140006C280FD006DC4C2817D068280DD06A28E0
:1021500014D104E0742810D07A280FD10DE044F493
:1021600000140AE044F4801401E044F4401472784E
:10217000824202D104F58014761C761C30786628E1
:102180000BD013DC582877D009DC002875D04528FF
:10219000F6D04628F4D047281AD193E118E06328F6
:1021A00035D0642879D0652812D18BE1702873D09E
:1021B00008DC6728F1D069286FD06E280DD06F2811
:1021C00006D1ACE073282CD0752874D0782853D071
:1021D0005246179990476D1C54E1C4F302500228EF
:1021E00009D003280DD0D8F8001004280DD00D60B8
:1021F00008F1040846E1D8F80010EA17C1E90052D6
:10220000F6E7D8F800100D80F2E70D70F0E718F847
:10221000041B8DF8001000208DF80100EB46012012
:1022200003E058F804BB4FF0FF3061074FF00001A6
:1022300002D40DE009F101018946B9420FDA814566
:10224000F8DB1BF809100029F4D108E009F10101BD
:1022500089468142FADB1BF809100029F6D1039860
:102260005346A0EB090721463846179A00F080FA3A
:10227000284400EB090507E044E008E10DE01BF805
:10228000010B524617999047B9F10109F7D253460D
:1022900021463846179AF2E039E00A21C4F3025287
:1022A0004FF0000B0091022A06D058F8040BC1171A
:1022B000032A09D00AE023E008F1070020F0070212
:1022C000F2E80201904605E000B2C117042A01D1EC
:1022D00040B2C117002906DA0A460021404261EBEC
:1022E00002012D2202E0220504D52B228DF80420C4
:1022F000012203E0E20701D02022F7E7914657E0F0
:102300000A2100E010214FF0000B00910BE010219A
:102310004FF0000B44F004040827009103E008206C
:102320004FF0000B0090C4F30252022A05D058F877
:10233000040B0021032A08D008E008F1070020F070
:102340000702F2E80201904603E080B2042A00D1BD
:10235000C0B24FF0000922072AD53278702A07D080
:10236000DDF800C08CF0100C5CEA0B0C05D00EE020
:1023700040228DF80420012208E050EA010306D033
:1023800030238DF804308DF8052002229146009B01
:1023900083F0080353EA0B030AD150EA010201D18A
:1023A000620705D530228DF804204FF001097F1E09
:1023B0003278582A04D039A20C920CAA02920BE06F
:1023C0003BA2F9E75B46009AFDF7FCFE0C9B9B5C89
:1023D000029A521E0292137050EA0102F2D1029840
:1023E00004A9081A00F1200B600702D524F48034F8
:1023F00000E001275F4502DDA7EB0B0000E00020B5
:1024000000EB0B01009003984944401A0390E0034D
:1024100006D453462146179A039800F0A9F90544BB
:10242000002706E001A85246C05D179990476D1C31
:102430007F1C4F45F6DBE0030CD553462146179A27
:10244000039800F095F9054404E0302052461799AE
:1024500090476D1C0099481E00900029F5DC08E0AB
:102460000298029952460078491C029117999047A8
:102470006D1CBBF10001ABF1010BF1DC5BE100F085
:1024800065F90544761C307800287FF40DAE19B04C
:102490002846BDE8F08F00000928010030313233B2
:1024A0003435363738396162636465660000000090
:1024B000303132333435363738394142434445467A
:1024C00000000000600700D4062708F1070020F094
:1024D0000700F0E80223804603F0004C5FEA0C009E
:1024E00001D097A009E0200501D596A005E0E007FE
:1024F00001D095A001E0AFF24C001390307823F0AA
:10250000004365280CD006DC452809D046281DD09C
:1025100047287FD13BE0662818D067287AD136E07B
:102520000021112F01DB112000E0781CCDE9000112
:1025300004A90CA8FFF7EEFCDDE90D010C9A4FF0A1
:10254000000B07F10109109200914EE04FF000409E
:102550000097CDE9011004A90CA8FFF7DBFCDDE929
:102560000D020C9B0F994FF0000B914610930092B7
:1025700011B9791C00EB0109B7EB090003D4C0F1D4
:10258000FF3B07F10109A9EB0700019042E0012F91
:1025900000DA01270021112F01DD112000E038466B
:1025A000CDE9000104A90CA8FFF7B4FCDDE90D0199
:1025B0000C9A00914FF0000BB946109221070FD4EE
:1025C000009A4A4503DA914601E0A9F10109B9F1FF
:1025D000010F05DD109AA9F10101515C3029F4D0F9
:1025E000B84202DA10F1040F03DA0121CDE901103B
:1025F00010E0002803DC8344A9EB000102E0411C49
:10260000494500DD8946A0EB0B00401C01904FF0CE
:1026100000400290200705D40198484502DB4FF0A6
:10262000FF30019000208DF84B0002980DF14B0710
:10263000B0F1004F25D002200C902B200D90029875
:1026400000280CDA404202902D200D9007E00A216C
:102650000298FDF70DFE3031029007F8011D0C992C
:10266000481E0C900029F2DC02980028EFD1791E58
:102670000D980870307800F0200040F0450007F811
:10268000020D11A8C01BC01D02901398007800B164
:10269000012000EB0901019801EBE071029801446F
:1026A0000398401A401E0390E00306D45346214687
:1026B000179A039800F05CF805441398007818B155
:1026C0005246179990476D1CE00323D55346214687
:1026D000179A039800F04CF805441BE0BBF1000F7B
:1026E00007DB0098584504DD1098179910F80B0087
:1026F00001E0179930205246904701980BF1010BE9
:10270000401E05F10105019004D12E205246179973
:1027100090476D1CB9F10001A9F10109DEDC05E06B
:1027200017F8010B5246179990476D1C0299481EE5
:1027300002900029F4DC53462146179A03989EE63E
:102740002D0000002B000000200000002DE9F041CA
:10275000044600251E461746880404D405E0394681
:102760002020B0476D1C641EF9D52846BDE8F081D5
:102770002DE9F041044600251E469046C80301D5C8
:10278000302700E02027880404D505E0414638467C
:10279000B0476D1C641EF9D52846BDE8F0810000E5
:1027A00013B54FF0FF33012269460248FFF762F983
:1027B00000981CBDD0000020FEF7AEFDFFF740FAE8
:1027C000FFF706FAFFF7EEF9FFF718FAFFF7A4F99B
:1027D0004FF47A74032204490448FEF767FA20464E
:1027E000FEF782FCF6E70000000000202800002031
:1027F0000006101600061016000000000000000081
:102800000102030406070809000000000102030496
:1028100030280008000000201C000000F41E000802
:102820004C2800081C000020FC040000041F0008C5
:102830000000000000000000010000001000000087
:0C284000000000000024F4000000000074
:040000050800018965
:00000001FF
