:020000040800F2
:1000000060070020A1010008AB14000839130008A4
:10001000A9140008CD0700086516000800000000BC
:10002000000000000000000000000000AF14000805
:10003000CF07000800000000AD140008B11400084C
:10004000BB010008BB010008BB010008BB010008A0
:10005000BB010008BB010008BB010008BB01000890
:10006000BB010008BB010008BB010008BB01000880
:10007000BB010008BB010008BB010008BB01000870
:10008000BB010008BB010008BB010008BB01000860
:10009000BB010008BB010008BB010008BB01000850
:1000A000BB010008BB010008BB010008BB01000840
:1000B000BB010008BB010008BB010008BB01000830
:1000C000BB010008BB010008BB010008BB01000820
:1000D000BB010008BB010008BB010008BB01000810
:1000E000BB010008BB010008BB010008BB01000800
:1000F000BB010008BB010008BB010008BB010008F0
:10010000BB010008BB010008BB010008BB010008DF
:10011000BB010008BB010008BB010008BB010008CF
:10012000BB010008BB010008BB010008BB010008BF
:10013000BB010008BB010008BB010008BB010008AF
:10014000BB010008BB010008BB010008BB0100089F
:10015000BB010008BB010008BB010008BB0100088F
:10016000BB010008BB010008BB010008BB0100087F
:10017000BB010008BB010008BB0100080000000033
:10018000BB010008BB010008DFF810D000F0FAFA4C
:1001900000480047C9570008AFF3008060070020FF
:1001A0000648804706480047FEE7FEE7FEE7FEE711
:1001B000FEE7FEE7FEE7FEE7FEE7FEE7491500087B
:1001C000890100082DE9F05F0546002092469B4614
:1001D00088460646814640241BE02846414647465D
:1001E000224600F01CF953465A46C01A914110D3DA
:1001F00011461846224600F003F92D1A67EB010854
:100200004F4622460120002100F0FAF817EB0009C2
:100210004E41201EA4F10104DFDC484631462A4647
:100220004346BDE8F09FD2B201E000F8012B491E21
:10023000FBD270470022F6E710B513460A46044683
:100240001946FFF7F0FF204610BD10B5044604E044
:100250000B7800F8013B03B1491C521EF8D220462E
:1002600010BD10B5002200E0521C835C8C5CA342E0
:1002700001D1002BF8D1D8B2E1B2401A10BD2DE95E
:10028000FE4F81EA030404F0004421F00041009491
:100290004FF0000B23F0004350EA01045ED052EA15
:1002A00003045BD0C3F30A54C1F30A552C44A4F2EF
:1002B000F3340194A0FB0254C1F3130141F4801103
:1002C000C3F3130343F4801301FB024400FB034E0A
:1002D000840A970A44EA815447EA8357A4FB0768D3
:1002E00002958D0A05FB07854FEA932C04FB0C54FD
:1002F0002705029D4FEA065847EA1637B5EB080571
:100300006EEB070C870E920E47EA811742EA8312C2
:10031000A7FB0201B6EB0B0164EB00042B0D43EAD3
:100320000C335E1844EB1C50DA465146E7FB0201E1
:10033000C5F313044FEA0B3343EA14534FEA043274
:10034000019C43EA0603A4F10C040294009CCDE94D
:1003500000B400F083F803B0BDE8F08F0020014640
:10036000F9E70EB540F2334102910021CDE90011C9
:100370000A460B4600F072F803B000BDC1F30A5202
:1003800010B5C1F3130140F2FF3341F480119A42DA
:1003900001DA002010BD40F233439A42A2F2334208
:1003A00003DC524200F03BF810BD904010BD00F05D
:1003B000004230F000400AD0C10D01F56071C0F379
:1003C000160042EA0151C20840071143704700205D
:1003D0000146704730B50B4601460020202201241B
:1003E00009E021FA02F59D4205D303FA02F5491B03
:1003F00004FA02F52844151EA2F10102F1DC30BD19
:10040000202A04DB203A00FA02F1002070479140D4
:10041000C2F1200320FA03F3194390407047202AC9
:1004200004DB203A21FA02F00021704721FA02F39E
:10043000D040C2F12002914008431946704710B5E0
:10044000141E73F1000408DA401C41F100019218F7
:100450005B411A4301D120F0010010BD2DE9F04DA0
:1004600092469B4611B1B1FA81F202E0B0FA80F2F5
:1004700020329046FFF7C4FF04460F4640EA0A00C8
:1004800041EA0B0153465A46084313D0114653EA3A
:10049000010019D0C8F140025046FFF7C0FF0546E1
:1004A0000E46504659464246FFF7AAFF084305D07C
:1004B000012004E020463946BDE8F08D00200543C8
:1004C00046EAE0762C4337430A986305E40AA0EB3A
:1004D00008000022FD0A44EA47540A3002D50020F1
:1004E0000146E9E7010510196941DDE908450019F0
:1004F0006941BDE8F04DA2E72DE9FE4F804681EA53
:100500000300C00F0C46009021F0004123F000458D
:10051000B8EB0200A94105D24046214690461C4650
:100520000B46024623F00040104347D0270DC7F387
:100530000A00C3F30A510290401A019040286BDA76
:10054000C3F3130040F4801B0098924620B10023AF
:10055000D2EB030A63EB0B0B01985946C0F1400242
:100560005046FFF74DFF06460D4650465946019A44
:1005700000F01AF910EB08006141002487EA1152DB
:1005800084EAE7731A4340D0009A62B3019A012AC1
:100590004FEA075215DC001B61EB02014FF00042ED
:1005A00002EA0752CDE90042001C41F580113246B3
:1005B0002B46FFF753FF03B0BDE8F08F40462146BE
:1005C000F9E7001B61EB0201001C41F580130018E4
:1005D0005B412018A2F5001747EB030140EAD570F4
:1005E000B6196D4111E06D084FEA360645EAC0754F
:1005F0004FEA0752001B61EB0201001C41F580111C
:1006000049084FEA30000019514132462B4603B0E9
:10061000BDE8F04FFFF713BF009801224000002310
:10062000D0EB020263EBE073009821464FEAE074DE
:10063000B8EB000061EB0401E9E783F000435BE7FE
:1006400081F0004158E72DE9F04D81EA030404F000
:10065000004B21F0004514464FF0000A23F0004102
:1006600050EA050220D054EA01021DD0C5F30A5712
:100670000246C5F31303C1F31300C1F30A5640F455
:10068000801543F48013A7EB0608101BD64608F22A
:10069000FD3873EB050002D308F1010801E0921860
:1006A0005B41B8F1000F03DA00200146BDE8F08D90
:1006B00000204FF48011064684460EE0171B73EBB2
:1006C000050705D3121B63EB050306434CEA010C37
:1006D00049084FEA300092185B4150EA0107EDD11A
:1006E00052EA030012D082EA040083EA05010843BB
:1006F00005D0101BAB4106D20122002306E00022E8
:100700004FF0004302E06FF0010253101AEB0600B5
:100710004CEB085110EB0A0041EB0B01BDE8F04D2A
:10072000FFF78DBEC1F30A52C1F3130140F2FF334C
:1007300041F480119A4202DA00200146704740F2EB
:1007400033439A42A2F2334202DC5242FFF767BEC1
:10075000FFF756BE30B5041E71F1000404DB4FF004
:100760000044404264EB0101141E73F1000405DBF8
:100770001C464FF00043524263EB0403994208BF0A
:10078000904230BD064C074D06E0E06840F00103A2
:1007900094E8070098471034AC42F6D3FFF7F8FC12
:1007A000E887000808880008202A06DBCB17203AD3
:1007B00041FA02F043EAE07306E041FA02F3D04066
:1007C000C2F120029140084319467047FEE7704786
:1007D00072B6FEE730B5B3F5804F05D06FF07041CB
:1007E00040F82210002030BD8C690B688D682343CF
:1007F0004C688989240144EA0524234343EA0141E2
:1008000050F82230014C23401943E9E70000F0CFB3
:1008100010B50A6850F8223023F0010340F8223066
:100820008C68082C23D000234A682243CC681C43E0
:100830000B6922431A434B690E4C1A43CB691A4386
:100840000B6A1A434B6A1A438B6A1A43CB6A1A43E0
:100850000B6B1A438B691343CA6B09681A4350F830
:100860002130A343134340F82130002010BD402322
:10087000DAE700007FFF0F0030B5D1E9003443EA2A
:1008800004138C688D89240244EA054423430C8AAE
:10089000074D00EB820005EB045423430C7D6D01F2
:1008A00005EB0464896923430B434360002030BD9A
:1008B0000000F0FF70B5044600F060F90546601CCA
:1008C00002D004480078044400F058F9401BA042CC
:1008D000FAD370BD1C0000202DE9F04186B0142130
:1008E0006846FFF7A7FC20480168002939D101219B
:1008F00001601E480024016841F0010101600068A8
:100900004FF4805800F001000C27CDF80080CDE9AD
:100910000470032602250396CDE901546946144864
:1009200000F02EF84FF68070CDE9000502AA694666
:1009300082E8D0000F4800F023F84CF23370CDE984
:10094000000502AA694682E8D0000B4800F018F8BA
:1009500002AA694682E8D000CDE90085074800F088
:100960000FF806B0BDE8F0811400002038380240CE
:100970000014024000100240000C02400018024027
:100980002DE9F84FDFF8BCA10022012503264FF026
:100990000F090AF1040BAAF1040E00BF0B6805FA57
:1009A00002F42340A34270D10F7907F00307012F0F
:1009B00001D0022F16D187684FEA420806FA08FCD8
:1009C00027EA0C07D1F80CC00CFA08FC4CEA070C1B
:1009D000C0F808C04768A7430C79C4F300149440DA
:1009E0003C4344600C79E443A4070AD0C4684FEA4E
:1009F000420C06FA0CF7BC438F6807FA0CF7274342
:100A0000C7600C7904F00304022C12D1D40800EB67
:100A1000840CDCF820405707FF0E09FA07F824EA97
:100A20000804D1F8108008FA07F848EA0408CCF85E
:100A3000208004684FEA420C06FA0CF7BC430F7999
:100A400007F0030707FA0CF7274307604C6814F414
:100A5000403F70D03C4C276847F4804727602468AB
:100A600022F0030704F480440094384C07EB040C94
:100A7000DCF8084897074FEA177809FA08F7BC43EB
:100A8000334FB84202D1002724E054E0314FB8423E
:100A900001D101271EE0304FB84201D1022719E0F1
:100AA0002E4FB84201D1032714E02D4FB84201D197
:100AB00004270FE02B4FB84201D105270AE02A4F47
:100AC000B84201D1062705E0284FB84201D10727D7
:100AD00000E0082707FA08F72743CCF80878DAF887
:100AE00000405746D1F804C09C435FEACC2C00D5A7
:100AF0001C433C60DBF800405F46D1F804C09C43D7
:100B00005FEA8C2C00D51C433C60DEF80040774641
:100B1000D1F804C09C435FEA8C3C00D51C433C6088
:100B2000084F083F3C68D1F804C09C435FEACC3CC6
:100B300000D51C433C60521C102AFFF42FAFBDE8C7
:100B4000F88F0000083C014044380240003001406A
:100B5000000002400004024000080240000C024075
:100B6000001002400014024000180240001C024025
:100B70000AB1816170470904FBE700000148806801
:100B8000704700001C000020024881680278114470
:100B9000816070471C0000200B4810B5016841F4CB
:100BA00000710160016841F480610160016841F4F5
:100BB00080710160032000F061F80F2000F006F85A
:100BC00000F024F8002010BD003C024070B50D4D2F
:100BD00004464FF47A712878B1FBF0F00A490968AD
:100BE000B1FBF0F000F02CFB48B9102C07D200222A
:100BF0002146501E00F022F800206C6070BD0120DC
:100C000070BD00001C000020280000200A4808B524
:100C1000016841F480410160006800F48040009068
:100C20000548001F016841F080510160006800F034
:100C30008050009008BD000044380240F0B40E4BD4
:100C40001B680C46C3F30223C3F10705042D00D92A
:100C50000425191D072901D2002300E0DB1E01260F
:100C600006FA05F1491E214099409E40761E164025
:100C70003143F0BC00F025BD0CED00E0064900F06A
:100C8000070208684FF6FF03184040EA0220034AB3
:100C900010430860704700000CED00E00000FA050A
:100CA0002DE9F0470E46050065D0DFF81481D8F82D
:100CB0000000F7B200F00700B04207D288F80070D9
:100CC000D8F8000000F00700B04254D128683D4C2D
:100CD000810712D5400703D5206840F4E05020601A
:100CE0002878000703D5206840F460402060206821
:100CF000A96820F0F000084320602878C0072DD0B4
:100D0000304968680839012812D0022813D0032816
:100D100011D00968890700292DDA216821F0030123
:100D200001432160FFF72AFF814641F2883A0EE035
:100D300009688903EFE709688901ECE7FFF71EFFFF
:100D4000A0EB0901514502D90320BDE8F0872068D6
:100D5000696800F00C00B0EB810FEFD1D8F80010FB
:100D6000404601F00701B14207D90770006800F062
:100D70000700B04201D00120E7E72878400705D5F9
:100D80002068E96820F4E0500843206028780007D4
:100D900006D52068296920F4604040EAC10020603F
:100DA00000F038F82168084AC1F30311515CC840CB
:100DB0000649086006480068FFF708FF0020C4E7FE
:100DC000003C02400838024030580008280000204B
:100DD000200000200448054900680968044AC1F35E
:100DE0008221515CC840704728000020083802402A
:100DF000405800080448054900680968044AC1F3DE
:100E00004231515CC8407047280000200838024039
:100E100040580008154810B5006810F00C0214483E
:100E200013D04110042A0FD0082A0ED10F4C241FD2
:100E30002268236802F03F025B0207D52068C0F3F6
:100E40008810A0FB010106E0084610BD2168C1F32F
:100E50008811A1FB00010023FFF7B4F92168C1F359
:100E60000141491C4900B0FBF1F010BD08380240B7
:100E70000024F4002DE9F84F04006ED02078DFF84C
:100E80004C93C007A9F104054AD009F10400016898
:100E9000C1F38101012908D00068C0F38100022854
:100EA0000AD1D9F80000400206D52868800337D55A
:100EB00060680028E1D033E06068B0F5803F10D072
:100EC000B0F5A02F286810D020F480302860286862
:100ED00020F4802028606068A8B1FFF74FFE064626
:100EE0000DE0286840F48030F4E740F4802028606A
:100EF000F7E700BFFFF742FE801B642873D828681D
:100F00008003F7D50CE0FFF739FE064605E000BF89
:100F1000FFF734FE801B6428F0D828688003F7D4DC
:100F20002078DFF8AC8280074FF0000A3ED5A74852
:100F3000001D016811F00C0F08D00068C0F381009B
:100F400002280BD1D9F80000400207D42868800796
:100F500016D5E068012800D112E033E1E068B8B1AD
:100F60000120C8F80000FFF709FE064605E000BFB3
:100F7000FFF704FE801B0228C0D828688007F7D539
:100F80002868216920F0F80040EAC10028600DE0DF
:100F9000C8F800A0FFF7F2FD064604E0FFF7EEFDFB
:100FA000801B02281FD828688007F7D42078000704
:100FB00022D5864F87486169703771B10121016080
:100FC000FFF7DCFD064604E0FFF7D8FD801B022892
:100FD00009D838688007F7D50EE0C0F800A0FFF701
:100FE000CDFD064605E082E0FFF7C8FD801B022824
:100FF0007DD838688007F7D42078400768D5DFF8B7
:10100000CCB100270BF13C0BDBF80000C0000BD487
:10101000DBF8001041F08051CBF80010DBF8000045
:10102000012700F0805000906B4E3068C00510D44E
:10103000306840F480703060FFF7A0FD009005E05C
:10104000FFF79CFD0099401A022850D83068C0056F
:10105000F6D55E4EA0686C3601280FD005283068A2
:1010600010D020F001003060306820F004003060C3
:10107000A068B8B1FFF782FD00900FE0306840F043
:101080000100F4E740F004003060F7E7FFF776FD79
:101090000099411A41F28830814266D83068800751
:1010A000F4D50EE0FFF76AFD009007E0FFF766FD5C
:1010B0000099411A41F28830814256D83068800741
:1010C000F4D42FB1DBF8001021F08051CBF80010E0
:1010D000A069C8B33D49091D0968C1F3810102290E
:1010E0004AD00228504607D0C8F8600000E03CE033
:1010F000FFF744FD04463BE04746C8F86000FFF7B1
:101100003DFD064605E000BFFFF738FD801B0228C5
:101110002BD828688001F7D4D4E907010843A16AD5
:101120002E4A490802EB0141626A41EA82110843F2
:1011300094F82C1040EA0161C9F8001001203866CB
:10114000FFF71CFD044606E03EE000BFFFF716FD7A
:10115000001B022809D828688001F7D534E000BFB9
:10116000FFF70CFD001B022802D90320BDE8F88F11
:1011700028688001F4D427E00128F7D0D9F80000CE
:10118000E26900F4800191421CD1226A00F03F0123
:10119000914217D147F6C071626A0140B1EB821FDC
:1011A00010D1A26A4FF0FF3300F4403103EB52023A
:1011B000B1EB024F06D194F82C1000F07060B0EB48
:1011C000016F01D00120D1E70020CFE704380240B1
:1011D00000004742800E4742007000400000FFFFC1
:1011E00070B515460E46040003D094F8490010B1BE
:1011F00007E0012070BD002084F84800204600F080
:101200001DF804F108012068FFF702FB3146A268CF
:101210002068FFF731FBD4E901022946236BFFF771
:10122000D9FA2168A06851F8202042F0010241F863
:101230002020012084F84900002070BDFFF74CBB3E
:1012400010B5401EB0F1807F01D3012010BD4FF0DA
:10125000E02460610F21601700F033FA0020A061E4
:1012600007202061002010BD70B5040004D094F860
:101270004100002510B106E0012070BD84F8405007
:10128000204600F023F8242084F841002068C1683B
:1012900021F40051C160204600F05EF92068016928
:1012A00021F4904101612068416921F02A014161E6
:1012B0002068C16841F40051C1606564202084F851
:1012C000410084F842006563002070BD10B586B00F
:1012D000044614216846FEF7ADFF14492068884291
:1012E00021D113480021026842F010020260006818
:1012F00000F0100005900E481438026842F0010218
:101300000260006800F0010005904FF4C06000909A
:101310000220CDE9010103200390072004906946D3
:101320000448FFF72DFB06B010BD0000001001407F
:101330004438024000000240FEE7000010B58EB0C5
:101340001C216846FEF776FF1C2107A8FEF772FFF6
:101350001A484FF0204110220160194941600621CE
:1013600081600021C160C0E904128161C161130282
:101370000162C0E909139302C0E90B134163816361
:101380004164022000900F20CDE9010203AC11233B
:1013900084E80E0004240691CDE9074009AC092039
:1013A00084E80F000D9107AA69460448FFF718FF6B
:1013B000002801D0FFF70CFA0EB010BD6402002027
:1013C000040100A070B586B014216846FEF732FF14
:1013D00025480024016841F080010160016801F0A6
:1013E00080010591016841F020010160016801F070
:1013F00020010591016841F010010160016801F0D0
:1014000010010591016841F002010160016801F0DD
:1014100002010591016841F008010160016801F0D5
:1014200008010591016841F001010160016801F0C6
:1014300001010591016841F040010160006801224D
:1014400000F04000094ED503059029463046FFF7CD
:101450008FFB01200095CDE90104694630460394D5
:10146000FFF78EFA06B070BD30380240000402402B
:101470000C4810B50A4901604FF4E1314160002188
:1014800081600C22C160C0E904128161C161FFF773
:10149000EBFE002803D0BDE81040FFF799B910BD5E
:1014A00000100140B4020020FEE7FEE770477047DD
:1014B000FFF76ABB30B593B030216846FEF7BAFE3D
:1014C00014210CA8FEF7B6FE1D480025016841F066
:1014D00080510160006800F0805011901948016847
:1014E00041F4804101600068022400F480401190C2
:1014F00001200090000401908001CDE9064008AA77
:101500000420A82182E813000B906846FFF7B2FC84
:1015100008B172B6FEE70CA90F2081E831004FF444
:10152000A0500F904FF48050109005210CA8FFF7A9
:10153000B7FB002801D072B6FEE713B030BD000043
:1015400040380240007000400248016841F47001D8
:101550000160704788ED00E070B5044600680169DD
:10156000E26821F44051114301612169A068E269F8
:1015700008436169114308432168CA6849F20C6352
:101580009A430243CA6020684169A26921F440710C
:101590001143416131492068884202D03049884274
:1015A00002D1FFF727FC01E0FFF714FCE2690023FA
:1015B000192164253226B2F5004F626828D0A0FBBD
:1015C0000101930F9200FEF7FDFD0146B0FBF5F01F
:1015D0006FF01802504301EB800006EB0010B0FBE7
:1015E000F5F000F0F002B1FBF5F002EB0012B1FBF8
:1015F000F5F06FF01803584301EB800006EB001084
:10160000B0FBF5F000F00F0021681044886070BD59
:10161000A0FB010192185B41FEF7D4FD0146B0FB2F
:10162000F5F00201B1FBF5F06FF01803584301EB40
:10163000800006EBC000B0FBF5F000F0F80002EB14
:101640004002B1FBF5F0584301EB800006EBC0000F
:10165000B0FBF5F000F00700D6E7000000100140F5
:1016600000140140FEE700000FB47CB50C0009AD8A
:1016700001D0611E00E00021CDE90001064B6A4661
:101680002946089800F08CFA002C02D0009A00211C
:1016900011707CBC5DF814FBA72200084100080211
:1016A00018BF04200A0E18BF40F001004FF07F421F
:1016B00032EA010108BF40F00200012808BF0520FE
:1016C00070470907090E002804DB00F1E02080F8CC
:1016D0000014704700F00F0000F1E02080F8141DA6
:1016E0007047000000B510EE101A2DED028B81B08E
:1016F000524A6846B2EB410F2ED94FF0E640B0EBAC
:10170000410F94BF00204FF0FF3000900098B0EEE2
:10171000408A00286ADB10F0010F4BD068EE080AFF
:101720009FED471A9FED470A00EE810A9FED461A8A
:1017300010F0020F00EE801AB7EE000A00EE810AE8
:1017400002BF01B0BDEC028B00BD00BF01B0B1EE25
:10175000400ABDEC028B00BD3C4B21F0004293429D
:1017600041D911F0004FDFED3A0A20EE201ADFEDEB
:10177000390A19BF31EE601A71EE200A31EE201AD3
:1017800071EE600ABDEEE01A11EE100A9FED321AFA
:1017900000F0030000EEC10A9FED301A009000EE49
:1017A000C10A9FED2F1A00EEC10A9FED2E1A00EE1E
:1017B000C10AABE728EE080A9FED2B1ADFED2B0AD2
:1017C00010F0020F40EE410A9FED291A00EE201A98
:1017D00061EE000AB0EE480A08EE200AB6D101B068
:1017E000BDEC028B00BD00F059F88FE718EE100A2F
:1017F0004000B0F17F4F0DD218EE100AFFF74EFFF8
:10180000042808BF00F042F8B0EE480A01B0BDEC71
:10181000028B00BD09D1012000F0FAF801B0BDEC47
:10182000028B5DF804EB00F029B801B0B0EE480A75
:10183000BDEC028B5DF804EB00F01CB8B61F927E85
:10184000B93AB2BACA9F2A3DDDFFFFBE490E4946EA
:1018500083F9223F0000004B0000C93F00A0FD3982
:101860000020A2331A61342C336D4C39DA82083CE3
:10187000A0AA2ABE30EE000A70470000DFED020A7F
:1018800080EEA00A70470000000000009FED020AF1
:1018900020EE000A70470000000000102DE9F00162
:1018A0004FF07F42B2EB410F9FBF4FF0FF3101601D
:1018B000BDE8F00170474FF0004242EA0123C1F356
:1018C000C752783A551112F01F0C434CCCF1200648
:1018D0007C44C1F3C752A2F178024FEA621204EBD2
:1018E000820254F8254008BFD2E9015612D055684B
:1018F00004FA0CF425FA06F73C43976805FA0CF550
:1019000027FA06F8D26807FA0CFCF24045EA080507
:101910004CEA0206A4FB034CA5FB0352A6FB03639F
:101920001D449D4234BF012600261319334416B1CD
:10193000934202D903E0934201D2012200E0002247
:10194000624402F1200C9206DC0C42EA443200EEC2
:10195000102A5B03DFED210AF8EEC01A00EE103A00
:101960004FEA9C1C11F0004FB8EE400AC0F800C0CE
:1019700020EE201A00EE105ADFED190AB8EE400AE8
:1019800020EE200A71EE810A70EE800A10EE902A95
:1019900002F500626FF30B0200EE902A70EEE11A7E
:1019A00031EEC11ADFED101A30EE411A9FED0D0A2B
:1019B00020EE800A01EE210A9FED0C1A00EE810A4A
:1019C00004BFBDE8F0017047CCF180510160BDE873
:1019D000F001B1EE400A7047F46E000000000036DE
:1019E0000000802C22AAFD29DB0FC92F0000C92F7F
:1019F00002E008C8121F08C1002AFAD170477047D8
:101A0000002001E001C1121F002AFBD17047000035
:101A10000149086070470000300000202DE9FF5F99
:101A200082B00021DDE90430020DDDF840B003434F
:101A300018D044F61050A2F2FF3242431514119808
:101A400001281FD0A5EB0B00401C5FEA000A4FF0F5
:101A500000064E4FDFF83891B046504615D5CAF112
:101A6000000413E0119801244AA3012801D16FEA70
:101A70000B010298119AC0E90031C0E9024206B098
:101A8000BDE8F09FCBF10000DFE704460021404AAB
:101A9000491842EB0450CDE9001012E0E00707D0EE
:101AA00032463B4640464946FEF7E9FB80468946BA
:101AB00032463B4610461946FEF7E1FB06460F4606
:101AC0006410002CEAD1DDE90401DDE90023BAF15C
:101AD000000F06DAFEF7D3FB42464B46FEF7CFFB7C
:101AE00005E0FEF7B0FD42464B46FEF7ACFD04466E
:101AF0000E460022284BFEF72DFE03D84FF0FF3094
:101B0000014607E00022254B20463146FEF7F4FC53
:101B1000FEF708FE102409E0002C0ADB0A2200234D
:101B2000FEF750FB039B30321A55641E50EA010247
:101B3000F2D1641C039AC4F111031444119A012ACE
:101B400003D0012208430DD10AE0084304D000204D
:101B50004FF0110B119072E7A3EB0B056D1E0DE01A
:101B60005B4504DD4FF0000205F1010504E003DAF6
:101B70004FF00002A5F10105002AECD0029811995E
:101B8000C0E90231C0E9004579E7000000001440D7
:101B90000000F03F300000000000F0430000E03F94
:101BA0002DE9FF4F95B09A46884606460025EEE19E
:101BB000252877D100242746F94A0121039400E023
:101BC000044316F8013F203B01FA03F01042F7D11D
:101BD00030782A2811D06FF02F033078A0F130022E
:101BE000092A16D8039A44F0020402EB820203EB9E
:101BF00042021044761C0390EFE758F8042B03923E
:101C0000002A03DA504244F40054039044F00204E2
:101C1000761C30782E2816D116F8010F44F00404F3
:101C20002A280DD06FF02F023078A0F13003092B55
:101C300009D807EB870302EB4303C718761CF3E7C9
:101C400058F8047B761C30786C280FD006DC4C28C2
:101C500017D068280DD06A2814D104E0742810D059
:101C60007A280FD10DE044F400140AE044F4801403
:101C700001E044F440147278824202D104F58014E9
:101C8000761C761C307866280BD013DC582877D069
:101C900009DC002875D04528F6D04628F4D047281E
:101CA0001AD193E118E0632835D0642879D06528EB
:101CB00012D18BE1702873D008DC6728F1D0692835
:101CC0006FD06E280DD06F2806D1ACE073282CD0D1
:101CD000752874D0782853D05246179990476D1CB8
:101CE00054E1C4F30250022809D003280DD0D8F8DB
:101CF000001004280DD00D6008F1040846E1D8F862
:101D00000010EA17C1E90052F6E7D8F800100D807C
:101D1000F2E70D70F0E718F8041B8DF800100020B2
:101D20008DF80100EB46012003E058F804BB4FF0AA
:101D3000FF3061074FF0000102D40DE009F101010D
:101D40008946B9420FDA8145F8DB1BF809100029F2
:101D5000F4D108E009F1010189468142FADB1BF860
:101D600009100029F6D103985346A0EB0907214634
:101D70003846179A00F080FA284400EB090507E07E
:101D800044E008E10DE01BF8010B5246179990471B
:101D9000B9F10109F7D2534621463846179AF2E0C5
:101DA00039E00A21C4F302524FF0000B0091022ADD
:101DB00006D058F8040BC117032A09D00AE023E023
:101DC00008F1070020F00702F2E80201904605E062
:101DD00000B2C117042A01D140B2C117002906DAA6
:101DE0000A460021404261EB02012D2202E0220559
:101DF00004D52B228DF80420012203E0E20701D054
:101E00002022F7E7914657E00A2100E010214FF029
:101E1000000B00910BE010214FF0000B44F0040484
:101E20000827009103E008204FF0000B0090C4F356
:101E30000252022A05D058F8040B0021032A08D0C8
:101E400008E008F1070020F00702F2E802019046DE
:101E500003E080B2042A00D1C0B24FF0000922078B
:101E60002AD53278702A07D0DDF800C08CF0100C2B
:101E70005CEA0B0C05D00EE040228DF80420012214
:101E800008E050EA010306D030238DF804308DF8C5
:101E9000052002229146009B83F0080353EA0B03BE
:101EA0000AD150EA010201D1620705D530228DF82E
:101EB00004204FF001097F1E3278582A04D039A23D
:101EC0000C920CAA02920BE03BA2F9E75B46009A47
:101ED000FEF778F90C9B9B5C029A521E02921370DB
:101EE00050EA0102F2D1029804A9081A00F1200B6D
:101EF000600702D524F4803400E001275F4502DD4D
:101F0000A7EB0B0000E0002000EB0B010090039812
:101F10004944401A0390E00306D453462146179AD9
:101F2000039800F0A9F90544002706E001A85246ED
:101F3000C05D179990476D1C7F1C4F45F6DBE00391
:101F40000CD553462146179A039800F095F905449D
:101F500004E030205246179990476D1C0099481EA6
:101F600000900029F5DC08E00298029952460078BA
:101F7000491C0291179990476D1CBBF10001ABF110
:101F8000010BF1DC5BE100F065F90544761C30786B
:101F900000287FF40DAE19B02846BDE8F08F000090
:101FA000092801003031323334353637383961622F
:101FB00063646566000000003031323334353637F3
:101FC000383941424344454600000000600700D4D0
:101FD000062708F1070020F00700F0E802238046FA
:101FE00003F0004C5FEA0C0001D097A009E0200547
:101FF00001D596A005E0E00701D095A001E0AFF281
:102000004C001390307823F0004365280CD006DC98
:10201000452809D046281DD047287FD13BE06628B7
:1020200018D067287AD136E00021112F01DB11206A
:1020300000E0781CCDE9000104A90CA8FFF7EEFC34
:10204000DDE90D010C9A4FF0000B07F10109109228
:1020500000914EE04FF000400097CDE9011004A937
:102060000CA8FFF7DBFCDDE90D020C9B0F994FF08C
:10207000000B91461093009211B9791C00EB0109F5
:10208000B7EB090003D4C0F1FF3B07F10109A9EB4D
:102090000700019042E0012F00DA01270021112FF3
:1020A00001DD112000E03846CDE9000104A90CA8AB
:1020B000FFF7B4FCDDE90D010C9A00914FF0000B25
:1020C000B946109221070FD4009A4A4503DA914687
:1020D00001E0A9F10109B9F1010F05DD109AA9F19B
:1020E0000101515C3029F4D0B84202DA10F1040F3A
:1020F00003DA0121CDE9011010E0002803DC83445C
:10210000A9EB000102E0411C494500DD8946A0EB36
:102110000B00401C01904FF000400290200705D4B6
:102120000198484502DB4FF0FF30019000208DF808
:102130004B0002980DF14B07B0F1004F25D0022063
:102140000C902B200D90029800280CDA404202904F
:102150002D200D9007E00A210298FEF73BF930315F
:10216000029007F8011D0C99481E0C900029F2DC22
:1021700002980028EFD1791E0D980870307800F091
:10218000200040F0450007F8020D11A8C01BC01D3B
:1021900002901398007800B1012000EB090101982A
:1021A00001EBE071029801440398401A401E03902D
:1021B000E00306D453462146179A039800F05CF8D2
:1021C00005441398007818B15246179990476D1C32
:1021D000E00323D553462146179A039800F04CF8A4
:1021E00005441BE0BBF1000F07DB0098584504DDF8
:1021F0001098179910F80B0001E0179930205246FB
:10220000904701980BF1010B401E05F1010501906B
:1022100004D12E205246179990476D1CB9F1000148
:10222000A9F10109DEDC05E017F8010B5246179908
:1022300090476D1C0299481E02900029F4DC534619
:102240002146179A03989EE62D0000002B000000FF
:10225000200000002DE9F041044600251E461746E7
:10226000880404D405E039462020B0476D1C641E64
:10227000F9D52846BDE8F0812DE9F0410446002556
:102280001E469046C80301D5302700E02027880469
:1022900004D505E041463846B0476D1C641EF9D5AB
:1022A0002846BDE8F0814A68002A06D00A68531C17
:1022B0000B6010704868401E486070472DE9F14F70
:1022C0002DED020B2DED088B88B0B0EE408A9FED0E
:1022D0007DAA7D48DFF8F4B10069C0B10020014655
:1022E0000746044604F133053BF914604FB14FF63D
:1022F000FF720092B3B2AAB289B280B200F024FA9F
:1023000000E00127641C28463146BD2CEADB00258D
:102310004FF498710B46EF223220009500F014FA2A
:102320000024DFED6B8AF5EE009A00BF00EE104A44
:10233000AA463622B8EEC00A009520EE290A20EE01
:10234000280ABDEEC00A10EE100A503083B281B2E6
:102350002E2000F0F9F9641C052CE7DB4FF0000893
:102360004746C1464446B6EE00BADFED5ABADFED45
:102370005AAADFF854B1DFED598AB7EE009A00BFD0
:1023800000EE104A9BED001A04F13306F8EEC00A85
:102390005D4680EEA80A79EE400AB0EE480A01EEEA
:1023A000600A9BED021A60EE0A0A80EE810AFFF7CE
:1023B00099F9D5ED030A60EE200A95ED010A20EEA9
:1023C0000B1A8BEE810AB0EE6A1A00EEC01ABDEE4F
:1023D000C10A10EE100A05B2502D01DA502504E0B2
:1023E0004FF49870854200DD05463848B9F1000F7A
:1023F00020F8145009D012980090ABB2B2B2B9B222
:102400001FFA88F000F0A0F901E04FF00109641C08
:10241000B0462F46BD2CB3DB0120DFF8C4805F46F9
:102420000024CBF8100000BF00EE104A97ED001A10
:10243000B8EEC00A20EE290A60EE280AFDEEE00A96
:1024400010EE905A79EE400AB0EE480A333501EEAC
:10245000600A10EE100AFDF7AAFFCDE9000121A2E3
:10246000102103A8FFF700F908EB0410064603A9A2
:10247000FDF7F7FEF0B14FF6FF70009005F1270071
:1024800082B24FF49979A8B24FF49F73494602F093
:102490000DFE0C2203A9CDE900211346A8B2CDF808
:1024A00008A02822494603F013F930460F2203A959
:1024B000FDF7CBFE641C052CB6DB08B0BDEC088B29
:1024C000BDE8FE8FDB0FC940000000203400002073
:1024D000000060430000E1420000404300003C4334
:1024E00014020020252E3166730000002DE9F04310
:1024F0002DED068B87B04FF498754FF6FF7000F006
:1025000085F8002432222B4650211046009400F01A
:102510001BF92B46EF2219463220009400F014F9E3
:102520009FED358A00254FF49A764FF49677F5EEB5
:10253000008A00BF00EE105A33463946B8EEC00A92
:10254000009420EE280A20EE080ABDEEC00A10EE24
:10255000100A323082B280B200F0F6F86D1C052D00
:10256000E8DB274FDFED259A00250DF10C08B7EECB
:1025700000AAB6EE009A4FF00C0900BF00EE105A08
:1025800036220094B8EEC00A20EE288A28EE290AE6
:10259000BDEEC00A10EE106A06F1500083B281B29F
:1025A0002E2000F0D1F8D7ED010A3AEE480A60EE8D
:1025B000890A20EE200A08EE600A10EE100AFDF7E4
:1025C000F6FECDE900010FA2102103A8FFF74CF899
:1025D000CDF80090CDE901844A36B1B20C2328220F
:1025E000052003F075F86D1C052DC7DB07B0BDECA9
:1025F000068BBDE8F083000000003D43000060430F
:1026000000000020252E31665600000070B50A49F2
:102610000646002408884D8821464543204602F09E
:102620006FFF03F0C1F84FF0D84002E0A0F88060DF
:10263000641CAC42FAD370BD4C0300202DE9F04F6E
:1026400038492C260A46887192884FF4305A4FF444
:10265000285B41F6631E2B274FF02A0C4FF0F00841
:1026600045F210594FF448754FF4A0744FF4F073CD
:1026700058B10C80A1F802804A4530D1A1F808A0D9
:10268000A1F80AB03802888141E0A1F800804C80AE
:102690004A4507D1A1F808A0A1F80AB04FF42C5080
:1026A000888105E072450E8105D14F81A1F80CC0EB
:1026B0000B804D8002E0A1F80AC08F81A2F5A640F0
:1026C000103803D0A2F5EE40963801D10C804B8033
:1026D000A2F5184006381FD10B804D801CE07245D2
:1026E00011D0A2F5184006380DD00E81A1F80AC00D
:1026F000A1F80C70A2F5A64010380BD0A2F5EE4060
:10270000963807D008E00E81A1F80AC08F810D80AD
:102710004B80EFE70B804C80BDE8F04F002002F0CB
:102720002DBE00004C03002006488088A0F5AA4179
:10273000103903D05FF0290003F02AB84FF4245079
:10274000FAE700004C0300202DE9FE4F161ACDE9F0
:1027500000104FF000085D1A47464FF0FF30002E82
:1027600002DD4FF0010102E003D14FF000018B4682
:1027700002E08346C6F10006002D02DD4FF00100A5
:1027800002E003D14FF00000824602E08246C5F12C
:102790000005AE4201DD344600E02C46601C4FF0DF
:1027A0000009029019E000980C9A81B2019880B259
:1027B00000F018F8B0442F44A04504DD0198A8EBC0
:1027C000040858440190A74203DD00983F1B504481
:1027D000009009F101001FFA80F902998945E2DDB4
:1027E000BDE8FE8F10B5144602F08AFE02F0DCFF51
:1027F0004FF0D840A0F8804010BD10B5CF2002F0B7
:10280000C7FF002002F0B8FFC12002F0B5FF302062
:1028100002F0B2FFED2002F0BBFF642002F0ACFF3B
:10282000032002F0A9FF122002F0A6FF812002F08F
:10283000A3FFE82002F0ACFF852002F09DFF1020EE
:1028400002F09AFF7A2002F097FFCB2002F0A0FF5F
:10285000392002F091FF2C2002F08EFF002002F0C0
:102860008BFF342002F088FF022002F085FFF72062
:1028700002F08EFF202002F07FFFEA2002F088FFA6
:10288000002002F079FF002002F076FFC02002F065
:102890007FFF1B2002F070FFC12002F079FF0120B2
:1028A00002F06AFFC52002F073FF302002F064FFDF
:1028B000302002F061FFC72002F06AFFB72002F06B
:1028C0005BFF362002F064FF482002F055FF3A20FB
:1028D00002F05EFF552002F04FFFB12002F058FFDA
:1028E000002002F049FF1A2002F046FFB62002F055
:1028F0004FFF0A2002F040FFA22002F03DFFF2202D
:1029000002F046FF002002F037FF262002F040FFD1
:10291000012002F031FFE02002F03AFF0F2002F028
:102920002BFF2A2002F028FF282002F025FF082094
:1029300002F022FF0E2002F01FFF082002F01CFF11
:10294000542002F019FFA92002F016FF432002F0E4
:1029500013FF0A2002F010FF0F2002F00DFF0020ED
:1029600002F00AFF002002F007FF002002F004FF3F
:10297000002002F001FFE12002F00AFF002002F037
:10298000FBFE152002F0F8FE172002F0F5FE0720EE
:1029900002F0F2FE112002F0EFFE062002F0ECFE43
:1029A0002B2002F0E9FE562002F0E6FE3C2002F069
:1029B000E3FE052002F0E0FE102002F0DDFE0F2015
:1029C00002F0DAFE3F2002F0D7FE3F2002F0D4FEF4
:1029D0000F2002F0D1FE2B2002F0DAFE002002F0E0
:1029E000CBFE002002F0C8FE012002F0C5FE3F2011
:1029F00002F0C2FE2A2002F0CBFE002002F0BCFE54
:102A0000002002F0B9FE002002F0B6FEEF2002F036
:102A1000B3FE112002F0BCFE7820FDF74BFFBDE8AD
:102A20001040292002F0B4BE10B5FF2002F0B0FE25
:102A3000FF2002F0A1FE982002F09EFE062002F088
:102A40009BFEBC2002F0A4FE012002F095FE0F20A8
:102A500002F092FE612002F08FFEFF2002F08CFE59
:102A6000012002F089FE012002F086FE0B2002F018
:102A700083FE102002F080FE372002F07DFE6320EE
:102A800002F07AFEFF2002F077FEFF2002F074FED3
:102A9000012002F071FE012002F06EFE002002F023
:102AA0006BFE002002F068FEFF2002F065FE52205F
:102AB00002F062FE012002F05FFE002002F05CFEE8
:102AC000402002F059FEBD2002F062FE012002F01B
:102AD00053FE232002F050FE452002F04DFE6720F9
:102AE00002F04AFE012002F047FE232002F044FEDD
:102AF000452002F041FE672002F03EFEBE2002F0BB
:102B000047FE002002F038FE012002F035FEAB2027
:102B100002F032FE602002F02FFE222002F02CFE96
:102B2000222002F029FE222002F026FE222002F0BE
:102B300023FE222002F020FEC72002F029FE3620CC
:102B400002F01AFEED2002F023FE7F2002F014FEB8
:102B50000F2002F011FEC02002F01AFE0F2002F03A
:102B60000BFE0B2002F008FE0A2002F005FEFC20FE
:102B700002F00EFE082002F0FFFDDF2002F008FE4A
:102B8000002002F0F9FD002002F0F6FD002002F026
:102B9000F3FD002002F0F0FD002002F0EDFD20200A
:102BA00002F0EAFDF32002F0F3FD742002F0E4FDF0
:102BB000B42002F0EDFD002002F0DEFD002002F066
:102BC000DBFD002002F0D8FDF72002F0E1FD8220BD
:102BD00002F0D2FDB12002F0DBFD002002F0CCFDBE
:102BE000132002F0C9FD132002F0C6FDF22002F00E
:102BF000CFFD802002F0C0FD042002F0BDFD40208A
:102C000002F0BAFD282002F0B7FDC12002F0C0FD9D
:102C1000172002F0B1FD882002F0AEFD882002F0FE
:102C2000ABFD202002F0A8FDE02002F0B1FD002065
:102C300002F0A2FD0A2002F09FFD122002F09CFD8E
:102C4000102002F099FD0E2002F096FD202002F0E7
:102C500093FDCC2002F090FD072002F08DFD0620B0
:102C600002F08AFD0B2002F087FD0E2002F084FDA9
:102C70000F2002F081FD0D2002F07EFD152002F0F4
:102C80007BFD102002F078FD002002F075FDE120B0
:102C900002F07EFD002002F06FFD0B2002F06CFDC3
:102CA000132002F069FD0D2002F066FD0E2002F0F7
:102CB00063FD1B2002F060FD712002F05DFD062027
:102CC00002F05AFD062002F057FD0A2002F054FDE2
:102CD0000F2002F051FD0E2002F04EFD0F2002F0F9
:102CE0004BFD152002F048FD0C2002F045FD0020B0
:102CF00002F042FD2A2002F04BFD002002F03CFDD4
:102D0000002002F039FD012002F036FDDF2002F044
:102D100033FD2B2002F03CFD002002F02DFD0020B1
:102D200002F02AFD032002F027FD1F2002F024FDFF
:102D30003A2002F02DFD552002F01EFD362002F053
:102D400027FD002002F018FD112002F021FD78205F
:102D5000FDF7B0FD292002F01BFD1420FDF7AAFDB0
:102D6000BDE810402C2002F013BD10B5ED2002F09C
:102D70000FFD012002F000FDFE2002F0FDFCEE2020
:102D800002F006FDDE2002F0F7FC212002F0F4FC48
:102D9000F12002F0FDFC012002F0EEFCDF2002F049
:102DA000F7FC102002F0E8FCC42002F0F1FC8F20B8
:102DB00002F0E2FCC62002F0EBFC002002F0DCFC9A
:102DC000E22002F0D9FCE22002F0D6FCE22002F080
:102DD000D3FCBF2002F0DCFCAA2002F0CDFCB02026
:102DE00002F0D6FC0D2002F0C7FC002002F0C4FC6B
:102DF0000D2002F0C1FC002002F0BEFC112002F008
:102E0000BBFC002002F0B8FC192002F0B5FC002049
:102E100002F0B2FC212002F0AFFC002002F0ACFC7A
:102E20002D2002F0A9FC002002F0A6FC3D2002F0BB
:102E3000A3FC002002F0A0FC5D2002F09DFC00201D
:102E400002F09AFC5D2002F097FC002002F094FC56
:102E5000B12002F09DFC802002F08EFC002002F0E8
:102E60008BFC8B2002F088FC002002F085FC962071
:102E700002F082FC002002F07FFCB22002F088FC0D
:102E8000002002F079FC002002F076FC022002F023
:102E900073FC002002F070FC032002F06DFC0020A7
:102EA00002F06AFCB32002F073FC002002F064FC24
:102EB000002002F061FC002002F05EFC002002F025
:102EC0005BFC002002F058FC002002F055FC0020C2
:102ED00002F052FC002002F04FFC002002F04CFCFB
:102EE000002002F049FC002002F046FC002002F025
:102EF00043FC002002F040FC002002F03DFC0020DA
:102F000002F03AFC002002F037FC002002F034FC12
:102F1000002002F031FC002002F02EFC002002F024
:102F20002BFC002002F028FC002002F025FC0020F1
:102F300002F022FC002002F01FFCB42002F028FC6A
:102F40008B2002F019FC002002F016FC962002F003
:102F500013FC002002F010FCA12002F00DFC002068
:102F600002F00AFCB52002F013FC022002F004FC7F
:102F7000002002F001FC032002F0FEFB002002F022
:102F8000FBFB042002F0F8FB002002F0F5FBB6206A
:102F900002F0FEFB002002F0EFFB002002F0ECFB51
:102FA000B72002F0F5FB002002F0E6FB002002F063
:102FB000E3FB3F2002F0E0FB002002F0DDFB5E209F
:102FC00002F0DAFB002002F0D7FB642002F0D4FB11
:102FD000002002F0D1FB8C2002F0CEFB002002F09A
:102FE000CBFBAC2002F0C8FB002002F0C5FBDC20CC
:102FF00002F0C2FB002002F0BFFB702002F0BCFB1D
:10300000002002F0B9FB902002F0B6FB002002F095
:10301000B3FBEB2002F0B0FB002002F0ADFBDC20A4
:1030200002F0AAFB002002F0A7FBB82002F0B0FBE0
:10303000002002F0A1FB002002F09EFB002002F025
:103040009BFB002002F098FB002002F095FB002083
:1030500002F092FB002002F08FFB002002F08CFBBC
:10306000BA2002F095FB242002F086FB002002F03B
:1030700083FB002002F080FB002002F07DFBC120DA
:1030800002F086FB202002F077FB002002F074FBA8
:10309000542002F071FB002002F06EFBFF2002F0D2
:1030A0006BFB002002F068FBC22002F071FB0A20DB
:1030B00002F062FB002002F05FFB042002F05CFBE8
:1030C000002002F059FBC32002F062FB3C2002F01A
:1030D00053FB002002F050FB3A2002F04DFB002091
:1030E00002F04AFB392002F047FB002002F044FBCB
:1030F000372002F041FB002002F03EFB3C2002F0B2
:103100003BFB002002F038FB362002F035FB0020AC
:1031100002F032FB322002F02FFB002002F02CFBE9
:103120002F2002F029FB002002F026FB2C2002F0C9
:1031300023FB002002F020FB292002F01DFB0020D1
:1031400002F01AFB262002F017FB002002F014FB0D
:10315000242002F011FB002002F00EFB242002F0DC
:103160000BFB002002F008FB232002F005FB0020EF
:1031700002F002FB3C2002F0FFFA002002F0FCFA11
:10318000362002F0F9FA002002F0F6FA322002F0BE
:10319000F3FA002002F0F0FA2F2002F0EDFA0020FE
:1031A00002F0EAFA2C2002F0E7FA002002F0E4FA3A
:1031B000292002F0E1FA002002F0DEFA262002F0D7
:1031C000DBFA002002F0D8FA242002F0D5FA002021
:1031D00002F0D2FA242002F0CFFA002002F0CCFA5A
:1031E000232002F0C9FA002002F0C6FAC42002F03F
:1031F000CFFA622002F0C0FA002002F0BDFA0520EA
:1032000002F0BAFA002002F0B7FA842002F0B4FA11
:10321000002002F0B1FAF02002F0AEFA002002F035
:10322000ABFA182002F0A8FA002002F0A5FAA420B8
:1032300002F0A2FA002002F09FFA182002F09CFA95
:10324000002002F099FA502002F096FA002002F0D5
:1032500093FA0C2002F090FA002002F08DFA172069
:1032600002F08AFA002002F087FA952002F084FA30
:10327000002002F081FAF32002F07EFA002002F032
:103280007BFAE62002F078FA002002F075FAC520F9
:1032900002F07EFA322002F06FFA002002F06CFA9F
:1032A000442002F069FA002002F066FA652002F07C
:1032B00063FA002002F060FA762002F05DFA002046
:1032C00002F05AFA882002F057FA002002F054FA6D
:1032D000C62002F05DFA202002F04EFA002002F033
:1032E0004BFA172002F048FA002002F045FA0120BC
:1032F00002F042FA002002F03FFAC72002F048FA3A
:10330000002002F039FA002002F036FA002002F024
:1033100033FA002002F030FAC82002F039FA002017
:1033200002F02AFA002002F027FA002002F024FA24
:10333000002002F021FAC92002F02AFA002002F04F
:103340001BFA002002F018FA002002F015FA002003
:1033500002F012FA002002F00FFA002002F00CFA3C
:10336000002002F009FA002002F006FA002002F024
:1033700003FA002002F000FA002002F0FDF900201C
:1033800002F0FAF9002002F0F7F9002002F0F4F957
:10339000002002F0F1F9002002F0EEF9E02002F046
:1033A000F7F9162002F0E8F9002002F0E5F91C20F8
:1033B00002F0E2F9002002F0DFF9212002F0DCF94E
:1033C000002002F0D9F9362002F0D6F9002002F0F0
:1033D000D3F9462002F0D0F9002002F0CDF95220B6
:1033E00002F0CAF9002002F0C7F9642002F0C4F923
:1033F000002002F0C1F97A2002F0BEF9002002F0AC
:10340000BBF98B2002F0B8F9002002F0B5F9992041
:1034100002F0B2F9002002F0AFF9A82002F0ACF9F6
:10342000002002F0A9F9B92002F0A6F9002002F06C
:10343000A3F9C42002F0A0F9002002F09DF9CA20EF
:1034400002F09AF9002002F097F9D22002F094F9E4
:10345000002002F091F9D92002F08EF9002002F04C
:103460008BF9E02002F088F9002002F085F9F320C2
:1034700002F082F9002002F07FF9E12002F088F9E1
:10348000162002F079F9002002F076F91C2002F0F3
:1034900073F9002002F070F9222002F06DF900208B
:1034A00002F06AF9362002F067F9002002F064F9B0
:1034B000452002F061F9002002F05EF9522002F08E
:1034C0005BF9002002F058F9642002F055F9002061
:1034D00002F052F97A2002F04FF9002002F04CF984
:1034E0008B2002F049F9002002F046F9992002F001
:1034F00043F9002002F040F9A82002F03DF9002035
:1035000002F03AF9B92002F037F9002002F034F95C
:10351000C42002F031F9002002F02EF9CA2002F096
:103520002BF9002002F028F9D22002F025F9002022
:1035300002F022F9D82002F01FF9002002F01CF955
:10354000E02002F019F9002002F016F9F32002F051
:1035500013F9002002F010F9E22002F019F9052019
:1035600002F00AF9002002F007F90B2002F004F93A
:10357000002002F001F91B2002F0FEF8002002F00A
:10358000FBF8342002F0F8F8002002F0F5F84420AF
:1035900002F0F2F8002002F0EFF84F2002F0ECF811
:1035A000002002F0E9F8612002F0E6F8002002F0C5
:1035B000E3F8792002F0E0F8002002F0DDF888203E
:1035C00002F0DAF8002002F0D7F8972002F0D4F8E1
:1035D000002002F0D1F8A62002F0CEF8002002F080
:1035E000CBF8B72002F0C8F8002002F0C5F8C220DE
:1035F00002F0C2F8002002F0BFF8C72002F0BCF8C9
:10360000002002F0B9F8D12002F0B6F8002002F054
:10361000B3F8D62002F0B0F8002002F0ADF8DD20BB
:1036200002F0AAF8002002F0A7F8F32002F0A4F8B4
:10363000002002F0A1F8E32002F0AAF8052002F031
:103640009BF8002002F098F80A2002F095F800207C
:1036500002F092F81C2002F08FF8002002F08CF8A3
:10366000332002F089F8002002F086F8442002F0AE
:1036700083F8002002F080F8502002F07DF800204E
:1036800002F07AF8622002F077F8002002F074F875
:10369000782002F071F8002002F06EF8882002F025
:1036A0006BF8002002F068F8972002F065F800201F
:1036B00002F062F8A62002F05FF8002002F05CF849
:1036C000B72002F059F8002002F056F8C22002F0AC
:1036D00053F8002002F050F8C72002F04DF8002007
:1036E00002F04AF8D12002F047F8002002F044F836
:1036F000D52002F041F8002002F03EF8DD2002F073
:103700003BF8002002F038F8F32002F035F80020F2
:1037100002F032F8E42002F03BF8012002F02CF82D
:10372000002002F029F8012002F026F8002002F023
:1037300023F8022002F020F8002002F01DF82A20D1
:1037400002F01AF8002002F017F83C2002F014F8FA
:10375000002002F011F84B2002F00EF8002002F0D9
:103760000BF85D2002F008F8002002F005F8742044
:1037700002F002F8002001F0FFFF842001F0FCFFBE
:10378000002001F0F9FF932001F0F6FF002001F086
:10379000F3FFA22001F0F0FF002001F0EDFFB320C5
:1037A00001F0EAFF002001F0E7FFBE2001F0E4FF96
:1037B000002001F0E1FFC42001F0DEFF002001F055
:1037C000DBFFCD2001F0D8FF002001F0D5FFD32092
:1037D00001F0D2FF002001F0CFFFDD2001F0CCFF8F
:1037E000002001F0C9FFF32001F0C6FF002001F026
:1037F000C3FFE52001F0CCFF002001F0BDFF002059
:1038000001F0BAFF002001F0B7FF002001F0B4FF83
:10381000022001F0B1FF002001F0AEFF292001F0ED
:10382000ABFF002001F0A8FF3C2001F0A5FF002025
:1038300001F0A2FF4B2001F09FFF002001F09CFF50
:103840005D2001F099FF002001F096FF742001F047
:1038500093FF002001F090FF842001F08DFF0020F5
:1038600001F08AFF932001F087FF002001F084FF20
:10387000A22001F081FF002001F07EFFB32001F0C3
:103880007BFF002001F078FFBE2001F075FF0020D3
:1038900001F072FFC42001F06FFF002001F06CFF07
:1038A000CD2001F069FF002001F066FFD32001F078
:1038B00063FF002001F060FFDC2001F05DFF0020CD
:1038C00001F05AFFF32001F057FF002001F054FFF0
:1038D000E62001F05DFF112001F04EFF002001F015
:1038E0004BFF342001F048FF002001F045FF562037
:1038F00001F042FF002001F03FFF762001F03CFF85
:10390000002001F039FF772001F036FF002001F0A0
:1039100033FF662001F030FF002001F02DFF8820EA
:1039200001F02AFF002001F027FF992001F024FF79
:10393000002001F021FFBB2001F01EFF002001F05C
:103940001BFF992001F018FF002001F015FF6620F1
:1039500001F012FF002001F00FFF552001F00CFFD5
:10396000002001F009FF552001F006FF002001F0C2
:1039700003FF452001F000FF002001F0FDFE432081
:1039800001F0FAFE002001F0F7FE442001F0F4FE01
:10399000002001F0F1FEE72001F0FAFE322001F0F4
:1039A000EBFE002001F0E8FE552001F0E5FE0020CE
:1039B00001F0E2FE762001F0DFFE002001F0DCFEE7
:1039C000662001F0D9FE002001F0D6FE672001F04C
:1039D000D3FE002001F0D0FE672001F0CDFE0020D4
:1039E00001F0CAFE872001F0C7FE002001F0C4FEEE
:1039F000992001F0C1FE002001F0BEFEBB2001F0C5
:103A0000BBFE002001F0B8FE992001F0B5FE0020B9
:103A100001F0B2FE772001F0AFFE002001F0ACFE15
:103A2000442001F0A9FE002001F0A6FE562001F07E
:103A3000A3FE002001F0A0FE232001F09DFE002047
:103A400001F09AFE332001F097FE002001F094FE71
:103A5000452001F091FE002001F08EFEE82001F0EB
:103A600097FE002001F088FE002001F085FE9920DD
:103A700001F082FE002001F07FFE872001F07CFE35
:103A8000002001F079FE882001F076FE002001F090
:103A900073FE772001F070FE002001F06DFE6620BD
:103AA00001F06AFE002001F067FE882001F064FE4C
:103AB000002001F061FEAA2001F05EFE002001F06E
:103AC0005BFEBB2001F058FE002001F055FE99205E
:103AD00001F052FE002001F04FFE662001F04CFE86
:103AE000002001F049FE552001F046FE002001F0C3
:103AF00043FE552001F040FE002001F03DFE442031
:103B000001F03AFE002001F037FE442001F034FEBF
:103B1000002001F031FE552001F02EFE002001F0C2
:103B20002BFEE92001F034FEAA2001F025FE002042
:103B300001F022FE002001F01FFE002001F01CFE1B
:103B4000002001F025FEAA2001F016FECF2001F092
:103B50001FFE002001F010FE002001F00DFE0020ED
:103B600001F00AFE002001F007FE002001F004FE33
:103B7000002001F001FE002001F0FEFD002001F018
:103B8000FBFD002001F0F8FD002001F0F5FD002014
:103B900001F0F2FD002001F0EFFD002001F0ECFD4E
:103BA000002001F0E9FD002001F0E6FD002001F019
:103BB000E3FD002001F0E0FDF02001F0E9FD002030
:103BC00001F0DAFD502001F0D7FD002001F0D4FD16
:103BD000002001F0D1FD002001F0CEFDF32001F026
:103BE000D7FD002001F0C8FDF92001F0D1FD06202D
:103BF00001F0C2FD102001F0BFFD292001F0BCFD45
:103C0000002001F0B9FD3A2001F0C2FD552001F07D
:103C1000B3FD112001F0BCFD6420FCF74BFE292010
:103C200001F0B6FD352001F0B3FD002001F0A4FD48
:103C3000512001F0ADFDFF2001F09EFD532001F069
:103C4000A7FD2C2001F098FD552001F0A1FD822058
:103C500001F092FDBDE810402C2001F099BD2DE946
:103C6000F05F4FF470445521204601F0A7FD651C1C
:103C7000AA21284601F0A2FDA61C5221304601F0DF
:103C80009DFDE71C0821384601F098FD4FF204081D
:103C90000121404601F092FD4FF43643342118468D
:103CA00001F08CFD34214BF2016001F087FD3421DD
:103CB0004BF2026001F082FD4FF430490D2148467D
:103CC00001F07CFD4BF2010A0D21504601F076FD1A
:103CD0004BF2020B0D21584601F070FD24214FF4E8
:103CE000374001F06BFD24214BF2017001F066FDBD
:103CF00024214BF2027001F061FD0D214FF431409F
:103D000001F05CFD0D214BF2011001F057FD0D217A
:103D10004BF2021001F052FD24214FF4384001F023
:103D20004DFD24214BF6010001F048FD24214BF606
:103D3000020001F043FD00214FF4324001F03EFD4E
:103D400024214FF4394001F039FD24214BF60110B4
:103D500001F034FD24214BF6021001F02FFD052166
:103D60004FF4334001F02AFD05214BF2013001F000
:103D700025FD05214BF2023001F020FD34214FF4E6
:103D80003A4001F01BFD34214BF6012001F016FDF5
:103D900034214BF6022001F011FD0B214FF4354088
:103DA00001F00CFD0B214BF2015001F007FD0B213E
:103DB0004BF2025001F002FD00214FF43C4001F0B3
:103DC000FDFCA3214BF6014001F0F8FC00214BF66D
:103DD000024001F0F3FC00214FF43D4001F0EEFC05
:103DE000A3214BF6015001F0E9FC00214BF60250F3
:103DF00001F0E4FC00214FF43E4001F0DFFC3721EC
:103E00004BF6016001F0DAFC00214FF4514001F063
:103E1000D5FC37214DF2011001F0D0FC00214DF20C
:103E2000021001F0CBFC53214DF2031001F0C6FC4F
:103E300000214DF2041001F0C1FC79214DF2051072
:103E400001F0BCFC00214DF2061001F0B7FC9721F7
:103E50004DF2071001F0B2FC00214DF2081001F004
:103E6000ADFCB1214DF2091001F0A8FC00214DF28A
:103E70000A1001F0A3FCD5214DF20B1001F09EFCBD
:103E800000214DF20C1001F099FCF4214DF20D10BF
:103E900001F094FC01214DF20E1001F08FFC232162
:103EA0004DF20F1001F08AFC01214DF2101001F0CB
:103EB00085FC49214DF2111001F080FC01214DF2E9
:103EC000121001F07BFC87214DF2131001F076FCFB
:103ED00001214DF2141001F071FCB6214DF21510C4
:103EE00001F06CFC02214DF2161001F067FC00217C
:103EF0004DF2171001F062FC02214DF2181001F092
:103F00005DFC3B214DF2191001F058FC02214DF2ED
:103F10001A1001F053FC3D214DF21B1001F04EFC34
:103F200002214DF21C1001F049FC75214DF21D10CB
:103F300001F044FC02214DF21E1001F03FFCB121C2
:103F40004DF21F1001F03AFC02214DF2201001F059
:103F500035FCD5214DF2211001F030FC03214DF24A
:103F6000221001F02BFC09214DF2231001F026FC58
:103F700003214DF2241001F021FC28214DF22510DF
:103F800001F01CFC03214DF2261001F017FC522118
:103F90004DF2271001F012FC03214DF2281001F020
:103FA0000DFC6B214DF2291001F008FC03214DF2AC
:103FB0002A1001F003FC8D214DF22B1001F0FEFBC5
:103FC00003214DF22C1001F0F9FBA2214DF22D102E
:103FD00001F0F4FB03214DF22E1001F0EFFBBB21A9
:103FE0004DF22F1001F0EAFB03214DF2301001F0E9
:103FF000E5FBC1214DF2311001F0E0FB03214DF250
:10400000321001F0DBFBC1214DF2331001F0D6FB81
:1040100000214FF4524001F0D1FB37214DF2012035
:1040200001F0CCFB00214DF2022001F0C7FB53212F
:104030004DF2032001F0C2FB00214DF2042001F0FB
:10404000BDFB79214DF2052001F0B8FB00214DF2B6
:10405000062001F0B3FB97214DF2072001F0AEFBE3
:1040600000214DF2082001F0A9FBB1214DF20920F9
:1040700001F0A4FB00214DF20A2001F09FFBD521A5
:104080004DF20B2001F09AFB00214DF20C2001F0C3
:1040900095FBF4214DF20D2001F090FB01214DF232
:1040A0000E2001F08BFB23214DF20F2001F086FB47
:1040B00001214DF2102001F081FB49214DF2112028
:1040C00001F07CFB01214DF2122001F077FB8721EA
:1040D0004DF2132001F072FB01214DF2142001F08A
:1040E0006DFBB6214DF2152001F068FB02214DF267
:1040F000162001F063FB00214DF2172001F05EFB5A
:1041000002214DF2182001F059FB3B214DF21920FC
:1041100001F054FB02214DF21A2001F04FFB3D212A
:104120004DF21B2001F04AFB02214DF21C2001F050
:1041300045FB75214DF21D2001F040FB02214DF29F
:104140001E2001F03BFBB1214DF21F2001F036FB98
:1041500002214DF2202001F031FBD5214DF221202A
:1041600001F02CFB03214DF2222001F027FB092155
:104170004DF2232001F022FB03214DF2242001F017
:104180001DFB28214DF2252001F018FB03214DF2E3
:10419000262001F013FB52214DF2272001F00EFBE7
:1041A00003214DF2282001F009FB6B214DF229205B
:1041B00001F004FB03214DF22A2001F0FFFA8D21CA
:1041C0004DF22B2001F0FAFA03214DF22C2001F0E0
:1041D000F5FAA2214DF22D2001F0F0FA03214DF263
:1041E0002E2001F0EBFABB214DF22F2001F0E6FA70
:1041F00003214DF2302001F0E1FAC1214DF23120CE
:1042000001F0DCFA03214DF2322001F0D7FAC1218E
:104210004DF2332001F0D2FA00214FF4534001F067
:10422000CDFA37214DF2013001F0C8FA00214DF2EC
:10423000023001F0C3FA53214DF2033001F0BEFA0F
:1042400000214DF2043001F0B9FA79214DF2053028
:1042500001F0B4FA00214DF2063001F0AFFA9721D7
:104260004DF2073001F0AAFA00214DF2083001F0BA
:10427000A5FAB1214DF2093001F0A0FA00214DF26A
:104280000A3001F09BFAD5214DF20B3001F096FA7D
:1042900000214DF20C3001F091FAF4214DF20D3075
:1042A00001F08CFA01214DF20E3001F087FA232142
:1042B0004DF20F3001F082FA01214DF2103001F081
:1042C0007DFA49214DF2113001F078FA01214DF2C9
:1042D000123001F073FA87214DF2133001F06EFABB
:1042E00001214DF2143001F069FAB6214DF215307A
:1042F00001F064FA02214DF2163001F05FFA00215C
:104300004DF2173001F05AFA02214DF2183001F047
:1043100055FA3B214DF2193001F050FA02214DF2CD
:104320001A3001F04BFA3D214DF21B3001F046FAF4
:1043300002214DF21C3001F041FA75214DF21D3081
:1043400001F03CFA02214DF21E3001F037FAB121A2
:104350004DF21F3001F032FA02214DF2203001F00F
:104360002DFAD5214DF2213001F028FA03214DF22A
:10437000223001F023FA09214DF2233001F01EFA18
:1043800003214DF2243001F019FA28214DF2253095
:1043900001F014FA03214DF2263001F00FFA5221F8
:1043A0004DF2273001F00AFA03214DF2283001F0D6
:1043B00005FA6B214DF2293001F000FA03214DF28C
:1043C0002A3001F0FBF98D214DF22B3001F0F6F986
:1043D00003214DF22C3001F0F1F9A2214DF22D30E4
:1043E00001F0ECF903214DF22E3001F0E7F9BB2189
:1043F0004DF22F3001F0E2F903214DF2303001F09F
:10440000DDF9C1214DF2313001F0D8F903214DF22F
:10441000323001F0D3F9C1214DF2333001F0CEF941
:1044200000214FF4544001F0C9F937214DF2014009
:1044300001F0C4F900214DF2024001F0BFF953210F
:104440004DF2034001F0BAF900214DF2044001F0B1
:10445000B5F979214DF2054001F0B0F900214DF296
:10446000064001F0ABF997214DF2074001F0A6F9A3
:1044700000214DF2084001F0A1F9B1214DF20940AF
:1044800001F09CF900214DF20A4001F097F9D52185
:104490004DF20B4001F092F900214DF20C4001F079
:1044A0008DF9F4214DF20D4001F088F901214DF212
:1044B0000E4001F083F923214DF20F4001F07EF907
:1044C00001214DF2104001F079F949214DF21140DE
:1044D00001F074F901214DF2124001F06FF98721CA
:1044E0004DF2134001F06AF901214DF2144001F040
:1044F00065F9B6214DF2154001F060F902214DF247
:10450000164001F05BF900214DF2174001F056F919
:1045100002214DF2184001F051F93B214DF21940B2
:1045200001F04CF902214DF21A4001F047F93D210A
:104530004DF21B4001F042F902214DF21C4001F006
:104540003DF975214DF21D4001F038F902214DF27F
:104550001E4001F033F9B1214DF21F4001F02EF958
:1045600002214DF2204001F029F9D5214DF22140E0
:1045700001F024F903214DF2224001F01FF9092135
:104580004DF2234001F01AF903214DF2244001F0CD
:1045900015F928214DF2254001F010F903214DF2C3
:1045A000264001F00BF952214DF2274001F006F9A7
:1045B00003214DF2284001F001F96B214DF2294011
:1045C00001F0FCF803214DF22A4001F0F7F88D21AB
:1045D0004DF22B4001F0F2F803214DF22C4001F096
:1045E000EDF8A2214DF22D4001F0E8F803214DF243
:1045F0002E4001F0E3F8BB214DF22F4001F0DEF830
:1046000003214DF2304001F0D9F8C1214DF2314083
:1046100001F0D4F803214DF2324001F0CFF8C1216E
:104620004DF2334001F0CAF800214FF4554001F03B
:10463000C5F837214DF2015001F0C0F800214DF2CC
:10464000025001F0BBF853214DF2035001F0B6F8CF
:1046500000214DF2045001F0B1F879214DF20550DE
:1046600001F0ACF800214DF2065001F0A7F89721B7
:104670004DF2075001F0A2F800214DF2085001F070
:104680009DF8B1214DF2095001F098F800214DF24A
:104690000A5001F093F8D5214DF20B5001F08EF83D
:1046A00000214DF20C5001F089F8F4214DF20D502B
:1046B00001F084F801214DF20E5001F07FF8232122
:1046C0004DF20F5001F07AF801214DF2105001F037
:1046D00075F849214DF2115001F070F801214DF2A9
:1046E000125001F06BF887214DF2135001F066F87B
:1046F00001214DF2145001F061F8B6214DF2155030
:1047000001F05CF802214DF2165001F057F800213B
:104710004DF2175001F052F802214DF2185001F0FD
:104720004DF83B214DF2195001F048F802214DF2AD
:104730001A5001F043F83D214DF21B5001F03EF8B4
:1047400002214DF21C5001F039F875214DF21D5037
:1047500001F034F802214DF21E5001F02FF8B12182
:104760004DF21F5001F02AF802214DF2205001F0C5
:1047700025F8D5214DF2215001F020F803214DF20A
:10478000225001F01BF809214DF2235001F016F8D8
:1047900003214DF2245001F011F828214DF225504B
:1047A00001F00CF803214DF2265001F007F85221D8
:1047B0004DF2275001F002F803214DF2285000F08D
:1047C000FDFF6B214DF2295000F0F8FF03214DF25F
:1047D0002A5000F0F3FF8D214DF22B5000F0EEFF38
:1047E00003214DF22C5000F0E9FFA2214DF22D5093
:1047F00000F0E4FF03214DF22E5000F0DFFFBB215B
:104800004DF22F5000F0DAFF03214DF2305000F04E
:10481000D5FFC1214DF2315000F0D0FF03214DF200
:10482000325000F0CBFFC1214DF2335000F0C6FFF3
:1048300000214FF4564000F0C1FF37214DF20160D6
:1048400000F0BCFF00214DF2026000F0B7FF5321E1
:104850004DF2036000F0B2FF00214DF2046000F061
:10486000ADFF79214DF2056000F0A8FF00214DF267
:10487000066000F0A3FF97214DF2076000F09EFF55
:1048800000214DF2086000F099FFB1214DF209605E
:1048900000F094FF00214DF20A6000F08FFFD52157
:1048A0004DF20B6000F08AFF00214DF20C6000F029
:1048B00085FFF4214DF20D6000F080FF01214DF2E3
:1048C0000E6000F07BFF23214DF20F6000F076FFB9
:1048D00001214DF2106000F071FF49214DF211608D
:1048E00000F06CFF01214DF2126000F067FF87219C
:1048F0004DF2136000F062FF01214DF2146000F0F0
:104900005DFFB6214DF2156000F058FF02214DF217
:10491000166000F053FF00214DF2176000F04EFFCB
:1049200002214DF2186000F049FF3B214DF2196061
:1049300000F044FF02214DF21A6000F03FFF3D21DC
:104940004DF21B6000F03AFF02214DF21C6000F0B6
:1049500035FF75214DF21D6000F030FF02214DF250
:104960001E6000F02BFFB1214DF21F6000F026FF0A
:1049700002214DF2206000F021FFD5214DF221608F
:1049800000F01CFF03214DF2226000F017FF092107
:104990004DF2236000F012FF03214DF2246000F07D
:1049A0000DFF28214DF2256000F008FF03214DF294
:1049B000266000F003FF52214DF2276000F0FEFE5A
:1049C00003214DF2286000F0F9FE6B214DF22960C1
:1049D00000F0F4FE03214DF22A6000F0EFFE8D217D
:1049E0004DF22B6000F0EAFE03214DF22C6000F046
:1049F000E5FEA2214DF22D6000F0E0FE03214DF214
:104A00002E6000F0DBFEBB214DF22F6000F0D6FEE1
:104A100003214DF2306000F0D1FEC1214DF2316032
:104A200000F0CCFE03214DF2326000F0C7FEC12140
:104A30004DF2336000F0C2FE5521204600F0BEFE6C
:104A4000AA21284600F0BAFE5221304600F0B6FEF8
:104A50000821384600F0B2FE0021404600F0AEFECC
:104A60000021484600F0AAFE0521504600F0A6FEAF
:104A70000221584600F0A2FE05214BF2030000F08F
:104A80009DFE02214BF2040000F098FE082118461A
:104A900000F094FE50214FF4354000F08FFE0521C8
:104AA000184600F08BFE00214FF4374000F086FEE0
:104AB00000214BF2017000F081FE01214FF43840DB
:104AC00000F07CFE05214BF6010000F077FE052189
:104AD0004BF6020000F072FE05214BF6030000F0D9
:104AE0006DFE02214FF43C4000F068FE00214BF6C1
:104AF000014000F063FE00214BF6024000F05EFE34
:104B000003214FF44C4000F059FE00214CF60140C7
:104B100000F054FE00214CF6024000F04FFE01214F
:104B20004FF43D4000F04AFE84214BF6015000F066
:104B300045FE07214BF6025000F040FE31214BF6B6
:104B4000035000F03BFE00214BF6045000F036FE0F
:104B500001214FF43A4000F031FEAA214FF47F408A
:104B600000F02CFE55214FF6017000F027FE2521A4
:104B70004FF6027000F022FE01214FF6037000F0A4
:104B80001DFE40214FF4585000F018FE00214FF454
:104B9000545000F013FE05214FF4685000F00EFE53
:104BA0004FF4885000F0F4FD7820FBF783FE4FF4BB
:104BB000245000F0EDFD0A20FBF77CFEBDE8F05F1D
:104BC0004FF4305000F0E4BD10B5E22000F0E0FDFD
:104BD0001D2000F0D1FD022000F0CEFD042000F0E9
:104BE000CBFD0120FBF766FEE02000F0D1FD0120A7
:104BF00000F0C2FD0A20FBF75DFEE02000F0C8FDDA
:104C0000032000F0B9FD0C20FBF754FE012000F05A
:104C1000BFFD0A20FBF74EFEE62000F0B9FD2F2075
:104C200000F0AAFDFF2000F0A7FDFF2000F0A4FD8A
:104C3000B02000F0ADFD202000F09EFD002000F02F
:104C40009BFD032000F098FD40F21F3000F094FD22
:104C5000012000F091FD40F2DF1000F08DFD0020FA
:104C600000F08AFDB42000F093FD042000F084FDE4
:104C700040F21F4000F080FD002000F07DFD2E205E
:104C800000F07AFD002000F077FD002000F074FDB8
:104C9000002000F071FD002000F06EFDB62000F055
:104CA00077FD022000F068FD4FF4037000F064FD12
:104CB000002000F061FD172000F05EFD152000F0DF
:104CC0005BFD002000F058FD002000F055FDF020B5
:104CD00000F05EFD032000F04FFD292000F058FD9C
:104CE000D02000F055FD002000F046FDBE2000F071
:104CF0004FFD052000F040FDFE2000F03DFD0120AD
:104D000000F03AFD002000F037FD002000F034FDF7
:104D1000002000F031FDB82000F03AFD032000F043
:104D20002BFD012000F028FDBA2000F031FDBDE888
:104D30001040012000F020BD10B5112000F028FD2A
:104D40007820FBF7B7FD362000F022FD002000F0B0
:104D500013FD3A2000F01CFD052000F00DFDB220EF
:104D600000F016FD0C2000F007FD0C2000F004FD03
:104D7000002000F001FD332000F0FEFC332000F0A5
:104D8000FBFCB72000F004FD352000F0F5FCBB2053
:104D900000F0FEFC322000F0EFFCC02000F0F8FC38
:104DA0000C2000F0E9FCC22000F0F2FC012000F031
:104DB000E3FCC32000F0ECFC102000F0DDFCC4207C
:104DC00000F0E6FC202000F0D7FCC62000F0E0FC5C
:104DD0000F2000F0D1FCD02000F0DAFCA42000F07D
:104DE000CBFCA12000F0C8FCE02000F0D1FCD020DA
:104DF00000F0C2FC002000F0BFFC022000F0BCFC70
:104E0000072000F0B9FC0A2000F0B6FC282000F0D2
:104E1000B3FC322000F0B0FC442000F0ADFC422096
:104E200000F0AAFC062000F0A7FC0E2000F0A4FC75
:104E3000122000F0A1FC142000F09EFC172000F0CE
:104E40009BFCE12000F0A4FCD02000F095FC0020A9
:104E500000F092FC022000F08FFC072000F08CFC98
:104E60000A2000F089FC282000F086FC312000F0A8
:104E700083FC542000F080FC472000F07DFC0E20D5
:104E800000F07AFC1C2000F077FC172000F074FC86
:104E90001B2000F071FC1E2000F06EFC2A2000F0A8
:104EA00077FC002000F068FC002000F065FC00208A
:104EB00000F062FCEF2000F05FFC2B2000F068FCAB
:104EC000002000F059FC002000F056FC012000F00A
:104ED00053FC3F2000F050FCBDE81040292000F0BA
:104EE00057BC10B5112000F053FC7820FBF7E2FC12
:104EF000362000F04DFC482000F03EFC3A2000F047
:104F000047FC552000F038FCF02000F041FCC320A5
:104F100000F032FCF02000F03BFC962000F02CFC6E
:104F2000B42000F035FC012000F026FCB62000F093
:104F30002FFC0A2000F020FCA22000F01DFCB7206E
:104F400000F026FCC62000F017FCB92000F020FC81
:104F5000022000F011FCE02000F00EFCC02000F068
:104F600017FC802000F008FC162000F005FCC12092
:104F700000F00EFC192000F0FFFBC22000F008FC3E
:104F8000A72000F0F9FBC52000F002FC162000F07D
:104F9000F3FBE82000F0FCFB402000F0EDFB8A2052
:104FA00000F0EAFB002000F0E7FB002000F0E4FB4B
:104FB000292000F0E1FB192000F0DEFBA52000F025
:104FC000DBFB332000F0D8FBE02000F0E1FBF02019
:104FD00000F0D2FB072000F0CFFB0D2000F0CCFB4F
:104FE000042000F0C9FB052000F0C6FB142000F0EF
:104FF000C3FB362000F0C0FB542000F0BDFB4C206A
:1050000000F0BAFB382000F0B7FB132000F0B4FB2F
:10501000142000F0B1FB2E2000F0AEFB342000F095
:10502000ABFBE12000F0B4FBF02000F0A5FB10206A
:1050300000F0A2FB142000F09FFB0E2000F09CFB70
:105040000C2000F099FB082000F096FB352000F0C2
:1050500093FB442000F090FB4C2000F08DFB2620B9
:1050600000F08AFB102000F087FB122000F084FB88
:105070002C2000F081FB322000F07EFBF02000F0BD
:1050800087FB3C2000F078FBF02000F081FB6920DA
:1050900000F072FB7820FBF70DFC212000F078FB7C
:1050A000BDE81040292000F073BB00002DE9F0435B
:1050B0008146A2EB09020798521C1F4695B20C4686
:1050C00086B24FF0D84811E02146484600F018FA61
:1050D00000F06AFB0020414604E000BFA1F88060B8
:1050E000401C80B2A842F9D3641CA4B2BC42EBD9E4
:1050F000BDE8F0832DE9F04F87B03220FBF7DAFBF3
:10510000D32000F045FB00F02BF9934CA08000F079
:1051100027F9A08000F024F94FF6FF7101EA002082
:10512000A08000F01DF9A18849F241380843A08011
:1051300047F2897545F2103947F2967645F2105AD2
:1051400049F6060741F6631B40457DD0042000F078
:105150001FFB00F005F9A08000F002F9A08000F02C
:10516000FFF84FF6FF7101EA0020A08000F0F8F888
:10517000A1880843A0F50541A080523965D0A84216
:1051800062D0D42000F004FB00F0EAF8A08000F028
:10519000E7F8A08000F0E4F84FF6FF7101EA002084
:1051A000A08000F0DDF8A1880843A080484579D0B0
:1051B000D32000F0EDFA00F0D3F8A08000F0D0F892
:1051C000A08000F0CDF84FF6FF7101EA0020A0802A
:1051D00000F0C6F8A1880843A080B04262D05521F3
:1051E0004FF4704000F0EAFAAA214FF2010000F0FB
:1051F000E5FA52214FF2020000F0E0FA08214FF2E6
:10520000030000F0DBFA01214FF2040000F0D6FAAF
:105210004FF4454000F0BCFA00F0A2F84FF6FF71E1
:1052200001EA0020A0804CF2015000F0B1FA00F039
:1052300097F8A1880843A0800520FBF73BFBA188D5
:1052400051452FD0D32001E02CE032E000F0A0FA4D
:1052500000F086F8A08000F083F8A08000F080F8CD
:105260004FF6FF7101EA0020A08000F079F8A188D4
:105270000843A080B84215D0A12000F089FA00F0C0
:105280006FF8A08000F06CF84FF6FF7101EA002083
:10529000A08000F065F8A1880843A0F5AE41A08089
:1052A000613908D0A088A84208D100BFFFF744FDAB
:1052B00024E0A580FAE7A4F804B01AE0404502D142
:1052C000FDF79BFA1AE0484502D1FDF74EFD15E0C7
:1052D000B04202D1FFF705FE10E0504502D1FEF7C3
:1052E000BEFC0BE0B84202D1FDF79EFB06E058453C
:1052F00004D1FFF769FC642000F016FA1648A18873
:105300005038A94201D103210EE0B94203D04145F2
:1053100001D0514501D1022106E0494503D0B142F7
:1053200001D0594508D1012100910291036B826897
:1053300040686946FBF74EFA0020FDF77FF901222D
:10534000D1030648FBF714FC4FF6FF70FDF75EF93A
:1053500007B0BDE8F08F00004C03002000040240BD
:1053600008B50220401EFDD24FF0D840B0F88000B2
:10537000ADF80000BDF8000008BD000070B55F4C3E
:1053800000232146A279898841F66316012A01D0BB
:105390001AB10CE0B14202D109E0B14207D10828AC
:1053A00005D2DFE800F0161812140C19100E0828A8
:1053B00012D2DFE800F0110406080A0C0E10802358
:1053C0000AE0402308E0C02306E0202304E0602335
:1053D00002E0A02300E0E023362045F21055A94268
:1053E00000D10002A1F51342413A07D0A1F5EE42E7
:1053F000893A03D0A1F5EE42963A01D143F0080371
:10540000194600F0DBF9A188B1420AD0980620883D
:10541000628802D5904202D303E0904201D92280F3
:1054200060806089A94240D100F0B2F9002000F00C
:10543000A3F96089401C80B200F0AAF9002000F0B6
:105440009BF96089801C80B200F0A2F92088401E80
:10545000C0F30F2000F090F96089C01C80B200F00A
:1054600097F92078401EC0B200F086F9A08900F0BC
:105470008FF9002000F080F9A089401C80B200F074
:1054800087F9002000F078F9A089801C80B200F034
:105490007FF96088401EC0F30F2000F06DF9A089ED
:1054A000C01C80B200F074F921E000F071F9002016
:1054B00000F062F9002000F05FF92088401EC0F380
:1054C0000F2000F059F92078401EC0B200F054F9C6
:1054D000A08900F05DF9002000F04EF9002000F0F6
:1054E0004BF96088401EC0F30F2000F045F9A0780A
:1054F000BDE87040401EC0B200F03EB94C03002031
:10550000F0B53B4A0D460446060A918810462F0A1C
:105510004089A1F5C853633B16D0A1F5AA43103BBF
:105520004CD000F035F9304600F026F9E0B200F03A
:1055300023F9908900F02CF9384600F01DF9E8B203
:10554000BDE8F04000F018B9917931B300F020F9CE
:10555000304600F011F9E0B200F00EF91088401E5C
:10556000C0F30F2000F008F91078401E5FFA80F0B9
:1055700000F002F9908900F00BF9384600F0FCF8D1
:10558000E8B200F0F9F85088401EC0F30F2000F098
:10559000F3F89078401EC0B2D2E71188091B491E6B
:1055A0008CB200F0F5F8002000F0E6F8002000F0E2
:1055B000E3F8200A00F0E0F8E0B2D9E700F0E8F8FC
:1055C000304600F0D9F85089401C80B200F0E0F875
:1055D000E0B200F0D1F8908900F0DAF8384600F037
:1055E000CBF89089401C80B200F0D2F8A7E7000009
:1055F0004C0300202DE9FF4F1D460C468B465807F3
:1056000000D0012000EBD500690810FB01F0203A22
:1056100000F0FF0AD0B20C2D0AD0102D0CD0182D9E
:105620000ED0202D46D1244901EB801600203EE00B
:1056300000EB4001214806E0214901EB0016F5E7A7
:1056400000EBC0011F4800EB8106EFE716F8087079
:105650004FF00009380601D50E9A03E00D9828B9DD
:105660001948026821460098FDF7BCF87806070E35
:105670001648641CA4B24088A0421BD9A4EB0B00BE
:10568000A8420AD100985C46401C80B200900F48A6
:105690000188009881420DD906E009F1010000F06F
:1056A000FF09B9F1080FD5D308F10100C0B2804657
:1056B0005045CBD3BDE8FF8F08700008485800085C
:1056C000BC5C0008AC6200082C0000204C030020E9
:1056D0002DE9FC4F044600F0FF0910190D46DDE9E5
:1056E0000BB61FFA80F8581987B24FF0000A13E082
:1056F000444503D305EB0B004C4685B2BD4210D2A6
:105700000D985B46CDE900A029462046FFF772FFC1
:1057100004EB5B0084B2761C3278A2F120005E2894
:10572000E6D9BDE8FC8F000010B50246BE2000F0AF
:105730002FF8052000F020F81046FAF712FE9FED32
:105740000C1B53EC112BFAF79AFDFAF717FE80B2F7
:1057500000F012F8012000F00FF8FF2000F00CF824
:10576000002000F009F8BDE81040002000F004B867
:10577000666666666666044001B5BDF80000ADF871
:105780000000BDF800004FF0D841A1F8800008BD2E
:1057900001B5BDF80000ADF80000BDF800004FF005
:1057A000D841A1F87E0008BD03484FF0D8410089D8
:1057B000A1F87E00704700004C0300204FF0D84253
:1057C00022F87E0F518070472DED028BFBF7E4F934
:1057D000FBF770FEFBF7F6FDFBF7B0FDFBF748FEAD
:1057E000FFF788FCFCF782FEFCF79EFFDFED0F8AD7
:1057F000C8244FF4784500BFFBF7C0F900EE100A4B
:10580000B8EE400A20EE288AFBF7B8F9B0FBF4F0B6
:10581000C00701D0284600E01F20B0EE480AFCF780
:105820004DFD0A20FBF746F8E6E700006F12833AC9
:105830000000000000000000010203040607080940
:10584000000000000102030400000000000000004E
:1058500000000000000000003F40000000000000C9
:1058600000003000400030004000000009000BC084
:105870003D000BC03D00090018C024407FE02240DD
:1058800031800000180024C01B000D8032400180D0
:1058900003801C4027401C8007400040100060002F
:1058A00000000000000000000000000000001F8059
:1058B000204040200000402020401F8000000000C9
:1058C000090006001F800600090000000400040013
:1058D0003F80040004000000001000600000000091
:1058E00000000000040004000400040004000000A4
:1058F000000000400000000000000000002001C087
:1059000006003800400000001F802040204020405A
:105910001F800000000010403FC000400000000059
:1059200018C0214022402440184000001080204030
:10593000244024401B80000002000D0011003FC0E5
:10594000014000003C80244024402440238000008B
:105950001F80244024403440038000003000200099
:1059600027C03800200000001B8024402440244031
:105970001B8000001C0022C0224022401F8000002B
:1059800000000000084000000000000000000000CF
:105990000460000000000000000004000A00110084
:1059A00020804040090009000900090009000000AA
:1059B00000004040208011000A0004001800200070
:1059C00023402400180000001F8020402740294069
:1059D0001F400000004007C039000F0001C0004018
:1059E00020403FC0244024401B8000001F802040F6
:1059F000204020403080000020403FC02040204018
:105A00001F80000020403FC024402E4030C00000D6
:105A100020403FC024402E00300000000F001080C6
:105A2000204022403380020020403FC00400040098
:105A30003FC02040204020403FC020402040000088
:105A40000060202020203FC02000200020403FC0D8
:105A500024400B0030C0204020403FC02040004088
:105A6000004000C03FC03C0003C03C003FC00000FD
:105A700020403FC00C4023003FC020001F8020403A
:105A8000204020401F80000020403FC024402400D0
:105A9000180000001F802140214020E01FA00000CE
:105AA00020403FC02440260019C0004018C02440B8
:105AB0002440224031800000300020403FC0204080
:105AC0003000000020003F80004000403F80200068
:105AD00020003E0001C0070038002000380007C049
