:020000040800F2
:1000000060040020A10100082F0D0008C50C0008A5
:100010002D0D0008AD020008AB0F00080000000025
:10002000000000000000000000000000330D000888
:10003000AF02000800000000310D0008350D000877
:10004000BB010008BB010008BB010008BB010008A0
:10005000BB010008BB010008BB010008BB01000890
:10006000BB010008BB010008BB010008BB01000880
:10007000BB010008BB010008BB010008BB01000870
:10008000BB010008BB010008BB010008BB01000860
:10009000BB010008BB010008BB010008BB01000850
:1000A000BB010008BB010008BB010008BB01000840
:1000B000BB010008BB010008BB010008BB01000830
:1000C000BB010008BB010008BB010008BB01000820
:1000D000BB010008BB010008BB010008BB01000810
:1000E000BB010008BB010008BB010008BB01000800
:1000F000BB010008BB010008BB010008BB010008F0
:10010000BB010008BB010008BB010008BB010008DF
:10011000BB010008BB010008BB010008BB010008CF
:10012000BB010008BB010008BB010008BB010008BF
:10013000BB010008BB010008BB010008BB010008AF
:10014000BB010008BB010008BB010008BB0100089F
:10015000BB010008BB010008BB010008BB0100088F
:10016000BB010008BB010008BB010008BB0100087F
:10017000BB010008BB010008BB0100080000000033
:10018000BB010008BB010008DFF810D000F07CF8CC
:100190000048004735100008AFF3008060040020DD
:1001A0000648804706480047FEE7FEE7FEE7FEE711
:1001B000FEE7FEE7FEE7FEE7FEE7FEE7CD0D0008FF
:1001C000890100082DE9F05F0546002092469B4614
:1001D00088460646814640241BE02846414647465D
:1001E000224600F041F853465A46C01A914110D3B6
:1001F00011461846224600F028F82D1A67EB010830
:100200004F4622460120002100F01FF817EB00099D
:100210004E41201EA4F10104DFDC484631462A4647
:100220004346BDE8F09FD2B201E000F8012B491E21
:10023000FBD270470022F6E710B513460A46044683
:100240001946FFF7F0FF204610BD202A04DB203AB4
:1002500000FA02F1002070479140C2F1200320FA19
:1002600003F3194390407047202A04DB203A21FA17
:1002700002F00021704721FA02F3D040C2F12002BF
:100280009140084319467047064C074D06E0E06868
:1002900040F0010394E8070098471034AC42F6D3CD
:1002A000FFF776FF7C1000089C100008FEE77047FF
:1002B00072B6FEE770B5044600F006F90546601C0C
:1002C00002D004480078044400F0FEF8401BA0422D
:1002D000FAD370BD000000202DE9F84FDFF8BCA173
:1002E0000022012503264FF00F090AF1040BAAF1A1
:1002F000040E00BF0B6805FA02F42340A34270D13C
:100300000F7907F00307012F01D0022F16D187685C
:100310004FEA420806FA08FC27EA0C07D1F80CC09D
:100320000CFA08FC4CEA070CC0F808C04768A74361
:100330000C79C4F3001494403C4344600C79E443CA
:10034000A4070AD0C4684FEA420C06FA0CF7BC4373
:100350008F6807FA0CF72743C7600C7904F0030491
:10036000022C12D1D40800EB840CDCF82040570793
:10037000FF0E09FA07F824EA0804D1F8108008FAF9
:1003800007F848EA0408CCF8208004684FEA420CD9
:1003900006FA0CF7BC430F7907F0030707FA0CF7CE
:1003A000274307604C6814F4403F70D03C4C2768EA
:1003B00047F480472760246822F0030704F4804450
:1003C0000094384C07EB040CDCF8084897074FEA18
:1003D000177809FA08F7BC43334FB84202D1002717
:1003E00024E054E0314FB84201D101271EE0304FE4
:1003F000B84201D1022719E02E4FB84201D103279C
:1004000014E02D4FB84201D104270FE02B4FB84222
:1004100001D105270AE02A4FB84201D1062705E09D
:10042000284FB84201D1072700E0082707FA08F74C
:100430002743CCF80878DAF800405746D1F804C0D2
:100440009C435FEACC2C00D51C433C60DBF80040A9
:100450005F46D1F804C09C435FEA8C2C00D51C4356
:100460003C60DEF800407746D1F804C09C435FEA68
:100470008C3C00D51C433C60084F083F3C68D1F8D9
:1004800004C09C435FEACC3C00D51C433C60521C3A
:10049000102AFFF42FAFBDE8F88F0000083C0140A0
:1004A0004438024000300140000002400004024095
:1004B00000080240000C02400010024000140240FC
:1004C00000180240001C024001488068704700008C
:1004D0000000002002488168027811448160704762
:1004E000000000200B4810B5016841F40071016064
:1004F000016841F480610160016841F4807101602C
:10050000032000F061F80F2000F006F800F024F856
:10051000002010BD003C024070B50D4D04464FF464
:100520007A712878B1FBF0F00A490968B1FBF0F064
:1005300000F0FCFA48B9102C07D200222146501EC8
:1005400000F022F800206C6070BD012070BD00003A
:10055000000000200C0000200A4808B5016841F4A2
:1005600080410160006800F4804000900548001F51
:10057000016841F080510160006800F080500090F7
:1005800008BD000044380240F0B40E4B1B680C4616
:10059000C3F30223C3F10705042D00D90425191D57
:1005A000072901D2002300E0DB1E012606FA05F12F
:1005B000491E214099409E40761E16403143F0BCB2
:1005C00000F0FCBC0CED00E0064900F007020868F2
:1005D0004FF6FF03184040EA0220034A1043086028
:1005E000704700000CED00E00000FA052DE9F0472F
:1005F0000E46050065D0DFF81481D8F80000F7B288
:1006000000F00700B04207D288F80070D8F8000068
:1006100000F00700B04254D128683D4C810712D544
:10062000400703D5206840F4E05020602878000798
:1006300003D5206840F4604020602068A96820F05D
:10064000F000084320602878C0072DD03049686842
:100650000839012812D0022813D0032811D00968C4
:10066000890700292DDA216821F003010143216067
:10067000FFF72AFF814641F2883A0EE009688903B4
:10068000EFE709688901ECE7FFF71EFFA0EB09011E
:10069000514502D90320BDE8F0872068696800F061
:1006A0000C00B0EB810FEFD1D8F80010404601F0FC
:1006B0000701B14207D90770006800F00700B04297
:1006C00001D00120E7E72878400705D52068E968D0
:1006D00020F4E050084320602878000706D5206801
:1006E000296920F4604040EAC100206000F038F839
:1006F0002168084AC1F30311515CC84006490860EB
:1007000006480068FFF708FF0020C4E7003C0240ED
:1007100008380240641000080C000020040000208B
:100720000448054900680968044AC1F38221515C04
:10073000C84070470C0000200838024074100008C0
:100740000448054900680968044AC1F34231515C14
:10075000C84070470C0000200838024074100008A0
:10076000154810B5006810F00C02144813D0411061
:10077000042A0FD0082A0ED10F4C241F22682368A8
:1007800002F03F025B0207D52068C0F38810A0FB8F
:10079000010106E0084610BD2168C1F38811A1FBE4
:1007A00000010023FFF70EFD2168C1F30141491C40
:1007B0004900B0FBF1F010BD083802400024F400FD
:1007C0002DE9F84F04006ED02078DFF84C93C00775
:1007D000A9F104054AD009F104000168C1F38101BF
:1007E000012908D00068C0F3810002280AD1D9F895
:1007F0000000400206D52868800337D560680028CD
:10080000E1D033E06068B0F5803F10D0B0F5A02FA4
:10081000286810D020F480302860286820F48020D8
:1008200028606068A8B1FFF74FFE06460DE0286813
:1008300040F48030F4E740F480202860F7E700BF00
:10084000FFF742FE801B642873D828688003F7D521
:100850000CE0FFF739FE064605E000BFFFF734FE67
:10086000801B6428F0D828688003F7D42078DFF84C
:10087000AC8280074FF0000A3ED5A748001D0168F2
:1008800011F00C0F08D00068C0F3810002280BD1D2
:10089000D9F80000400207D42868800716D5E06820
:1008A000012800D112E033E1E068B8B10120C8F8B6
:1008B0000000FFF709FE064605E000BFFFF704FE53
:1008C000801B0228C0D828688007F7D528682169CE
:1008D00020F0F80040EAC10028600DE0C8F800A050
:1008E000FFF7F2FD064604E0FFF7EEFD801B02284D
:1008F0001FD828688007F7D42078000722D5864FB4
:1009000087486169703771B101210160FFF7DCFD33
:10091000064604E0FFF7D8FD801B022809D8386896
:100920008007F7D50EE0C0F800A0FFF7CDFD064622
:1009300005E082E0FFF7C8FD801B02287DD83868FB
:100940008007F7D42078400768D5DFF8CCB10027BE
:100950000BF13C0BDBF80000C0000BD4DBF80010FF
:1009600041F08051CBF80010DBF80000012700F0C7
:10097000805000906B4E3068C00510D4306840F451
:1009800080703060FFF7A0FD009005E0FFF79CFD50
:100990000099401A022850D83068C005F6D55E4E3E
:1009A000A0686C3601280FD00528306810D020F0E0
:1009B00001003060306820F004003060A068B8B1F9
:1009C000FFF782FD00900FE0306840F00100F4E78F
:1009D00040F004003060F7E7FFF776FD0099411A18
:1009E00041F28830814266D830688007F4D50EE045
:1009F000FFF76AFD009007E0FFF766FD0099411AD6
:100A000041F28830814256D830688007F4D42FB143
:100A1000DBF8001021F08051CBF80010A069C8B3BA
:100A20003D49091D0968C1F3810102294AD0022804
:100A3000504607D0C8F8600000E03CE0FFF744FDF6
:100A400004463BE04746C8F86000FFF73DFD064618
:100A500005E000BFFFF738FD801B02282BD828686F
:100A60008001F7D4D4E907010843A16A2E4A490856
:100A700002EB0141626A41EA8211084394F82C10AA
:100A800040EA0161C9F8001001203866FFF71CFD3B
:100A9000044606E03EE000BFFFF716FD001B0228FB
:100AA00009D828688001F7D534E000BFFFF70CFDB6
:100AB000001B022802D90320BDE8F88F28688001B6
:100AC000F4D427E00128F7D0D9F80000E26900F457
:100AD000800191421CD1226A00F03F01914217D15E
:100AE00047F6C071626A0140B1EB821F10D1A26A61
:100AF0004FF0FF3300F4403103EB5202B1EB024FF1
:100B000006D194F82C1000F07060B0EB016F01D0AA
:100B10000120D1E70020CFE704380240000047421F
:100B2000800E4742007000400000FFFF10B5401EDD
:100B3000B0F1807F01D3012010BD4FF0E02460614F
:100B40000F21601700F03AFA0020A0610720206111
:100B5000002010BD70B5040004D094F841000025B9
:100B600010B106E0012070BD84F84050204600F02E
:100B700023F8242084F841002068C16821F4005142
:100B8000C160204600F052F92068016921F49041CB
:100B900001612068416921F02A0141612068C16832
:100BA00041F40051C1606564202084F8410084F85C
:100BB00042006563002070BD10B586B00446142164
:100BC0006846FFF737FB14492068884221D1134853
:100BD0000021026842F010020260006800F010007C
:100BE00005900E481438026842F001020260006865
:100BF00000F0010005904FF4C06000900220CDE9A4
:100C00000101032003900720049069460448FFF780
:100C100063FB06B010BD00000010014044380240E4
:100C2000000002402DE9F843044690F84100984640
:100C300016460D46202802D00220BDE8F88385B173
:100C40007EB100206064212084F84100FFF73CFC65
:100C5000A6848146E684A0682027B0F5805F02D094
:100C600003E00120E9E7206910B12E4600250EE0DF
:100C700000260CE08021204600F05EF9A8B9C6B13C
:100C800016F8010B21684860E08C401EE084E08C7F
:100C90004B464FF00002CDF800800028EAD14FF01B
:100CA0004001204600F048F940B184F8417003202B
:100CB000C3E735F8020BC0F30800E3E784F841709E
:100CC0000020BAE7FEE70000094808B5016841F0D6
:100CD00080010160016801F080010091016841F02C
:100CE00001010160006800F00100009008BD0000F3
:100CF000303802400C4810B50A4901604FF4E13128
:100D00004160002181600C22C160C0E90412816150
:100D1000C161FFF71FFF002803D0BDE81040FFF7B7
:100D2000C7BA10BD0010014014000020FEE7FEE726
:100D300070477047FFF7CEBB30B593B0302168469F
:100D4000FFF778FA14210CA8FFF774FA1D48002564
:100D5000016841F080510160006800F080501190FE
:100D60001948016841F4804101600068022400F4E0
:100D70008040119001200090000401908001CDE995
:100D8000064008AA0420A82182E813000B906846B8
:100D9000FFF716FD08B172B6FEE70CA90F2081E837
:100DA00031004FF4A0500F904FF480501090052167
:100DB0000CA8FFF71BFC002801D072B6FEE713B0A9
:100DC00030BD000040380240007000400248016819
:100DD00041F470010160704788ED00E001680C315A
:100DE00051E8002F22F4907241E80023002BF5D146
:100DF0000168143151E8002F22F0010241E800237C
:100E0000002BF5D1016B012909D101680C3151E8A2
:100E1000002F22F0100241E80023002BF5D1202101
:100E200080F84210002101637047000070B504464D
:100E300000680169E26821F44051114301612169B0
:100E4000A068E26908436169114308432168CA68E0
:100E500049F20C639A430243CA6020684169A2695F
:100E600021F440711143416131492068884202D028
:100E70003049884202D1FFF763FC01E0FFF750FCE4
:100E8000E2690023192164253226B2F5004F626819
:100E900028D0A0FB0101930F9200FFF793F90146C0
:100EA000B0FBF5F06FF01802504301EB800006EB49
:100EB0000010B0FBF5F000F0F002B1FBF5F002EB32
:100EC0000012B1FBF5F06FF01803584301EB8000FE
:100ED00006EB0010B0FBF5F000F00F0021681044A5
:100EE000886070BDA0FB010192185B41FFF76AF9B1
:100EF0000146B0FBF5F00201B1FBF5F06FF018030D
:100F0000584301EB800006EBC000B0FBF5F000F0A9
:100F1000F80002EB4002B1FBF5F0584301EB800012
:100F200006EBC000B0FBF5F000F00700D6E70000CC
:100F300000100140001401402DE9F843984617467F
:100F40000D460446089E24E0701C22D0FFF7BCFA30
:100F5000A0EB0800B0421AD8CEB12068C16849079A
:100F600017D5802D15D0402D13D00168C94309072E
:100F70000FD401680025406800902046FFF72EFF3F
:100F80000820606484F840500120BDE8F883032005
:100F9000FBE72068006835EA000004D00020B84272
:100FA000D2D00020F1E70120F9E7FEE7014A02492B
:100FB00000F023B81D100008100000200907090EDA
:100FC000002804DB00F1E02080F80014704700F0F6
:100FD0000F0000F1E02080F8141D704702E008C8FF
:100FE000121F08C1002AFAD170477047002001E0A3
:100FF00001C1121F002AFBD170472DE9F0411646AE
:101000000F460446002503E03946B047641C6D1CBA
:1010100020780028F8D12846BDE8F08113B54FF0BC
:10102000FF33012269460248FFF7FCFD00981CBD12
:1010300014000020FFF756FAFFF77EFEFFF744FE8C
:10104000FFF758FE4FF47A7403A0FFF7AFFF204676
:10105000FFF730F9F8E700005755534F4E47595501
:10106000414E0000000000000000000001020304E7
:101070000607080900000000010203049C10000894
:101080000000002014000000DC0F0008B010000871
:10109000140000204C040000EC0F000801000000C8
:1010A00010000000000000000024F4000000000018
:040000050800018965
:00000001FF
