:020000040800F2
:1000000060040020A1010008CF110008231100089E
:10001000CD110008CD0200085D15000800000000A9
:10002000000000000000000000000000D3110008E4
:10003000CF02000800000000D1110008D51100080F
:10004000BB010008BB010008BB010008BB010008A0
:10005000BB010008BB010008BB010008BB01000890
:10006000BB010008BB010008BB010008BB01000880
:10007000BB010008BB010008BB010008BB01000870
:10008000BB010008BB010008BB010008BB01000860
:10009000BB010008BB010008BB010008BB01000850
:1000A000BB010008BB010008BB010008BB01000840
:1000B000BB010008BB010008BB010008BB01000830
:1000C000BB010008BB010008BB010008BB01000820
:1000D000BB01000851150008BB010008BB01000866
:1000E000BB010008BB010008BB010008BB01000800
:1000F000BB010008BB010008BB010008BB010008F0
:10010000BB010008BB010008BB010008BB010008DF
:10011000BB010008BB010008BB010008BB010008CF
:10012000BB010008BB010008BB010008BB010008BF
:10013000BB010008BB010008BB010008BB010008AF
:10014000BB010008BB010008BB010008BB0100089F
:10015000BB010008BB010008BB010008BB0100088F
:10016000BB010008BB010008BB010008BB0100087F
:10017000BB010008BB010008BB0100080000000033
:10018000BB010008BB010008DFF810D000F08CF8BC
:1001900000480047E9150008AFF300806004002024
:1001A0000648804706480047FEE7FEE7FEE7FEE711
:1001B000FEE7FEE7FEE7FEE7FEE7FEE76D1200085A
:1001C000890100082DE9F05F0546002092469B4614
:1001D00088460646814640241BE02846414647465D
:1001E000224600F050F853465A46C01A914110D3A7
:1001F00011461846224600F037F82D1A67EB010821
:100200004F4622460120002100F02EF817EB00098E
:100210004E41201EA4F10104DFDC484631462A4647
:100220004346BDE8F09FD2B201E000F8012B491E21
:10023000FBD270470022F6E710B513460A46044683
:100240001946FFF7F0FF204610BD30B505460020E7
:10025000034600E05B1C934205D2EC5CC85C201AAC
:1002600001D1002CF6D130BD202A04DB203A00FA5F
:1002700002F1002070479140C2F1200320FA03F3FD
:10028000194390407047202A04DB203A21FA02F0FB
:100290000021704721FA02F3D040C2F120029140C0
:1002A0000843194670470000064C074D06E0E06819
:1002B00040F0010394E8070098471034AC42F6D3AD
:1002C000FFF766FF3C1600085C160008FEE7704763
:1002D00072B6FEE72DE9F0410446876D00F054F94F
:1002E000064694F835000025022806D08020606577
:1002F00084F834500120BDE8F0812068016821F0C5
:10030000160101602068416921F080014161206C83
:1003100008B9A06C20B12068016821F008010160D3
:100320002068016821F0010101600CE000F02CF967
:10033000801B052807D920206065032084F835003C
:1003400084F83450D7E720680068C007EED194F8ED
:100350005C103F208840B860012084F8350084F8A4
:1003600034500020C7E790F83510022903D08021CF
:10037000416501207047052180F83510006801684B
:1003800021F0010101600020704700002DE9F84FC5
:10039000DFF8BCA10022012503264FF00F090AF166
:1003A000040BAAF1040E00BF0B6805FA02F4234007
:1003B000A34270D10F7907F00307012F01D0022F5C
:1003C00016D187684FEA420806FA08FC27EA0C07AC
:1003D000D1F80CC00CFA08FC4CEA070CC0F808C0B5
:1003E0004768A7430C79C4F3001494403C4344602D
:1003F0000C79E443A4070AD0C4684FEA420C06FA19
:100400000CF7BC438F6807FA0CF72743C7600C79D9
:1004100004F00304022C12D1D40800EB840CDCF8A5
:1004200020405707FF0E09FA07F824EA0804D1F81C
:10043000108008FA07F848EA0408CCF8208004681D
:100440004FEA420C06FA0CF7BC430F7907F003079A
:1004500007FA0CF7274307604C6814F4403F70D04C
:100460003C4C276847F480472760246822F0030744
:1004700004F480440094384C07EB040CDCF8084882
:1004800097074FEA177809FA08F7BC43334FB84289
:1004900002D1002724E054E0314FB84201D10127B6
:1004A0001EE0304FB84201D1022719E02E4FB8426A
:1004B00001D1032714E02D4FB84201D104270FE0EA
:1004C0002B4FB84201D105270AE02A4FB84201D18B
:1004D000062705E0284FB84201D1072700E008278A
:1004E00007FA08F72743CCF80878DAF800405746AF
:1004F000D1F804C09C435FEACC2C00D51C433C607F
:10050000DBF800405F46D1F804C09C435FEA8C2CC6
:1005100000D51C433C60DEF800407746D1F804C0AB
:100520009C435FEA8C3C00D51C433C60084F083F6D
:100530003C68D1F804C09C435FEACC3C00D51C4326
:100540003C60521C102AFFF42FAFBDE8F88F00006A
:10055000083C0140443802400030014000000240A5
:100560000004024000080240000C0240001002405B
:100570000014024000180240001C02400AB18161D0
:1005800070470904FBE700000148806870470000DD
:10059000040000200248816802781144816070479D
:1005A000040000200B4810B5016841F4007101609F
:1005B000016841F480610160016841F4807101606B
:1005C000032000F06FF80F2000F006F800F024F888
:1005D000002010BD003C024070B50D4D04464FF4A4
:1005E0007A712878B1FBF0F00A490968B1FBF0F0A4
:1005F00000F00AFB48B9102C07D200222146501EF9
:1006000000F030F800206C6070BD012070BD00006B
:1006100004000020100000200A4808B5016841F4D9
:1006200080410160006800F4804000900548001F90
:10063000016841F080510160006800F08050009036
:1006400008BD000044380240002809DB00F01F020A
:10065000012191404009800000F1E020C0F8001124
:1006600070470000F0B40E4B1B680C46C3F3022326
:10067000C3F10705042D00D90425191D072901D24E
:10068000002300E0DB1E012606FA05F1491E214089
:1006900099409E40761E16403143F0BC00F068BF82
:1006A0000CED00E0064900F0070208684FF6FF0372
:1006B000184040EA0220034A1043086070470000D7
:1006C0000CED00E00000FA052DE9F0470E460500AC
:1006D00065D0DFF81481D8F80000F7B200F0070009
:1006E000B04207D288F80070D8F8000000F0070088
:1006F000B04254D128683D4C810712D5400703D53C
:10070000206840F4E05020602878000703D5206876
:1007100040F4604020602068A96820F0F0000843A1
:1007200020602878C0072DD0304968680839012832
:1007300012D0022813D0032811D009688907002994
:100740002DDA216821F0030101432160FFF71CFF2E
:10075000814641F2883A0EE009688903EFE70968AB
:100760008901ECE7FFF710FFA0EB0901514502D921
:100770000320BDE8F0872068696800F00C00B0EB4A
:10078000810FEFD1D8F80010404601F00701B142C7
:1007900007D90770006800F00700B04201D00120BF
:1007A000E7E72878400705D52068E96820F4E0509D
:1007B000084320602878000706D52068296920F4BE
:1007C000604040EAC100206000F038F82168084A23
:1007D000C1F30311515CC84006490860064800682F
:1007E000FFF7FAFE0020C4E7003C02400838024050
:1007F00024160008100000200800002004480549C5
:1008000000680968044AC1F38221515CC8407047FE
:10081000100000200838024034160008044805493A
:1008200000680968044AC1F34231515CC84070470E
:10083000100000200838024034160008154810B592
:10084000006810F00C02144813D04110042A0FD095
:10085000082A0ED10F4C241F2268236802F03F02A1
:100860005B0207D52068C0F38810A0FB010106E0F9
:10087000084610BD2168C1F38811A1FB00010023C7
:10088000FFF7A0FC2168C1F30141491C4900B0FBFE
:10089000F1F010BD083802400024F4002DE9F84FB3
:1008A00004006ED02078DFF84C93C007A9F104054E
:1008B0004AD009F104000168C1F38101012908D07F
:1008C0000068C0F3810002280AD1D9F80000400274
:1008D00006D52868800337D560680028E1D033E06A
:1008E0006068B0F5803F10D0B0F5A02F286810D018
:1008F00020F480302860286820F480202860606818
:10090000A8B1FFF741FE06460DE0286840F48030AC
:10091000F4E740F480202860F7E700BFFFF734FEDB
:10092000801B642873D828688003F7D50CE0FFF794
:100930002BFE064605E000BFFFF726FE801B64285D
:10094000F0D828688003F7D42078DFF8AC828007DD
:100950004FF0000A3ED5A748001D016811F00C0FAA
:1009600008D00068C0F3810002280BD1D9F800003C
:10097000400207D42868800716D5E068012800D116
:1009800012E033E1E068B8B10120C8F80000FFF7D9
:10099000FBFD064605E000BFFFF7F6FD801B0228C1
:1009A000C0D828688007F7D52868216920F0F800AA
:1009B00040EAC10028600DE0C8F800A0FFF7E4FDA0
:1009C000064604E0FFF7E0FD801B02281FD82868D8
:1009D0008007F7D42078000722D5864F87486169C1
:1009E000703771B101210160FFF7CEFD064604E0CA
:1009F000FFF7CAFD801B022809D838688007F7D5A1
:100A00000EE0C0F800A0FFF7BFFD064605E082E05B
:100A1000FFF7BAFD801B02287DD838688007F7D41D
:100A20002078400768D5DFF8CCB100270BF13C0BEC
:100A3000DBF80000C0000BD4DBF8001041F080515F
:100A4000CBF80010DBF80000012700F08050009088
:100A50006B4E3068C00510D4306840F48070306050
:100A6000FFF792FD009005E0FFF78EFD0099401A18
:100A7000022850D83068C005F6D55E4EA0686C36A6
:100A800001280FD00528306810D020F00100306018
:100A9000306820F004003060A068B8B1FFF774FD42
:100AA00000900FE0306840F00100F4E740F00400EF
:100AB0003060F7E7FFF768FD0099411A41F288308E
:100AC000814266D830688007F4D50EE0FFF75CFD00
:100AD000009007E0FFF758FD0099411A41F2883075
:100AE000814256D830688007F4D42FB1DBF800106B
:100AF00021F08051CBF80010A069C8B33D49091D11
:100B00000968C1F3810102294AD00228504607D062
:100B1000C8F8600000E03CE0FFF736FD04463BE02B
:100B20004746C8F86000FFF72FFD064605E000BF06
:100B3000FFF72AFD801B02282BD828688001F7D4F4
:100B4000D4E907010843A16A2E4A490802EB014192
:100B5000626A41EA8211084394F82C1040EA01616C
:100B6000C9F8001001203866FFF70EFD044606E0C4
:100B70003EE000BFFFF708FD001B022809D82868E7
:100B80008001F7D534E000BFFFF7FEFC001B022810
:100B900002D90320BDE8F88F28688001F4D427E04B
:100BA0000128F7D0D9F80000E26900F480019142F1
:100BB0001CD1226A00F03F01914217D147F6C07163
:100BC000626A0140B1EB821F10D1A26A4FF0FF337D
:100BD00000F4403103EB5202B1EB024F06D194F81E
:100BE0002C1000F07060B0EB016F01D00120D1E754
:100BF0000020CFE70438024000004742800E474201
:100C0000007000400000FFFF10B5401EB0F1807F73
:100C100001D3012010BD4FF0E02460610F21601767
:100C200000F0A6FC0020A06107202061002010BD7C
:100C300070477047F8B5016804460868CA684B6990
:100C400010F00F0F4FF0000559D003F0010602F429
:100C50009077374365D0C10705D0D10503D5616CC6
:100C600041F001016164410705D5D90703D0616CEA
:100C700041F002016164810705D5D90703D0616C99
:100C800041F004016164010707D502F020013143FE
:100C900003D0616C41F008016164616C00293AD0B5
:100CA000800604D5900602D5204600F015FB20688A
:100CB0004069616CC0F38010090700D460B320461E
:100CC00000F0E3FA20684069400621D5206814301E
:100CD00050E8001F21F0400140E80012002AF5D141
:100CE000E06BA8B172490165E06BFFF73CFB00289F
:100CF00011D0E06B016D01B0BDE8F04008478306FC
:100D00000FD593060DD52046BDE8F84000F0E4BAB3
:100D10002046FFF78EFFF8BD2046FFF78AFF656487
:100D2000F8BD266B2023012E7ED1C6067CD5D606C3
:100D30007AD508684868009048694FF00206400676
:100D40004DD5E26B106840684FF480770004000CCA
:100D50003AD0A18D814237D9E085D069B8422DD0F3
:100D600020680C3050E8001F21F4807140E8001228
:100D7000002AF5D12068143050E8001F21F001014D
:100D800040E80012002AF5D12068143050E8001F16
:100D900021F0400140E80012002AF5D184F84230E9
:100DA000256320680C3050E8001F21F0100140E856
:100DB0000012002AF5D1E06BFFF78CFA6663A08D74
:100DC000E18D401A81B206E0A18D8142A8D1D0699F
:100DD000B842A5D166632046FFF72AFFF8BDA08D73
:100DE000E18D401A81B2E08D0028F7D00029F5D0BE
:100DF00020680C3050E8002F22F4907240E8002761
:100E0000002FF5D12068143050E8002F22F00102A5
:100E100040E80027002FF5D184F842302563206890
:100E20000C3050E8002F00E006E022F0100240E80D
:100E30000023002BF3D1CDE705062BD5150629D5C8
:100E400094F841002128C9D1A068B0F5805F01D194
:100E50002069B0B1206A411C216221680078486095
:100E6000E08C401E0004000CE084B7D12068C1680B
:100E700021F08001C1602068C16841F04001C1607B
:100E8000F8BD206A0088C0F308004860206A801C12
:100E90002062E5E74006F3D55006F1D5CA68204642
:100EA00022F04002CA6084F8413000F039F9F8BD00
:100EB0007D12000870B5040004D094F841000025AC
:100EC00010B106E0012070BD84F84050204600F0CB
:100ED00023F8242084F841002068C16821F40051DF
:100EE000C160204600F05AFA2068016921F490415F
:100EF00001612068416921F02A0141612068C168CF
:100F000041F40051C1606564202084F8410084F8F8
:100F100042006563002070BD10B586B00446142100
:100F20006846FFF787F918492068884229D1174891
:100F30000021026842F010020260006800F0100018
:100F4000059012481438026842F0010202600068FD
:100F500000F0010005904FF4C06000900220CDE940
:100F60000101032003900720049069460848FFF719
:100F70000DFA002211462520FFF774FB2520FFF70C
:100F800063FB06B010BD0000001001404438024071
:100F90000000024090F84230202B01D00220704720
:100FA00021B11AB10023036300F07EBA012070471B
:100FB0002DE9F041224C234A2178491CC9B2217005
:100FC000006890423AD1002546151F4F022905D1ED
:100FD00002221EA1601CFFF738F918B120780328FF
:100FE00007D021E0002231463846FFF7C7FA18A0A3
:100FF00010E01348032219A1401CFFF726F918B18D
:10100000207803280CD00FE0012231463846FFF744
:10101000B5FA13A000F0A4FAA4F80150E57002E0BC
:1010200012A000F09DFA257021780548BDE8F04136
:10103000401C014401221148FFF7ACBFBDE8F0811C
:101040000000002000100140001402404F4E00003C
:101050004C454431D2D1C1C10D0A00004F46460073
:101060004C454431D2D1C3F00D0A0000C7EBD6D8AD
:10107000D0C2CAE4C8EB0D0A00000000180000202E
:101080002DE9F843044690F84100984616460D466F
:10109000202802D00220BDE8F88385B17EB100206F
:1010A0006064212084F84100FFF76EFAA68481462F
:1010B000E684A0682027B0F5805F02D003E001201D
:1010C000E9E7206910B12E4600250EE000260CE06D
:1010D0008021204600F003FAA8B9C6B116F8010B2A
:1010E00021684860E08C401EE084E08C4B464FF065
:1010F0000002CDF800800028EAD14FF040012046E0
:1011000000F0EDF940B184F841700320C3E735F8F1
:10111000020BC0F30800E3E784F841700020BAE74F
:101120007047FEE770B586B014216846FFF782F875
:1011300016480024016841F020010160016801F0B7
:1011400020010591016841F080010160016801F012
:1011500080010591016841F00101016000680C4EB9
:1011600000F001004FF4C065059001222946304689
:10117000FFF704FA01200095CDE9010469463046E5
:101180000394FFF703F906B070BD00003038024049
:10119000001402400C4810B50A4901604FF4E131D7
:1011A0004160002181600C22C160C0E904128161AC
:1011B000C161FFF77FFE002803D0BDE81040FFF7B4
:1011C00087B810BD0010014018000020FEE7FEE7C0
:1011D00070477047FFF7DEB930B593B030216846ED
:1011E000FFF728F814210CA8FFF724F81D48002564
:1011F000016841F080510160006800F0805011905A
:101200001948016841F4804101600068022400F43B
:101210008040119001200090000401908001CDE9F0
:10122000064008AA0420A82182E813000B90684613
:10123000FFF734FB08B172B6FEE70CA90F2081E876
:1012400031004FF4A0500F904FF4805010900521C2
:101250000CA8FFF739FA002801D072B6FEE713B0E8
:1012600030BD000040380240007000400248016874
:1012700041F470010160704788ED00E010B5806BAB
:101280000021C185FFF7D5FC10BD01680C3151E884
:10129000002F22F4907241E80023002BF5D1016861
:1012A000143151E8002F22F0010241E80023002B05
:1012B000F5D1016B012909D101680C3151E8002FEA
:1012C00022F0100241E80023002BF5D1202180F804
:1012D000421000210163704708B590F8421022299E
:1012E00001D0022008BD82684FF480539A4201D198
:1012F000016921B1816A9A421BD04AB10AE00268B1
:10130000816A5268C2F308020A80816A891C08E077
:10131000026972B10268526802F07F020A70816A43
:10132000491C8162C18D491E0904090CC18503D085
:101330001BE002685268F1E70168CA6822F02002E7
:10134000CA600168CA6822F48072CA6001684A698A
:1013500022F001024A61202180F8421000214163FD
:10136000026B012A03D0FFF723FE002008BD0163B2
:1013700001680C3151E8002F22F0100241E80023EF
:10138000002BF5D101680A68D20602D50A684968BF
:101390000091818DFFF74CFCE7E7000070B5044633
:1013A00000680169E26821F440511143016121693B
:1013B000A068E26908436169114308432168CA686B
:1013C00049F20C639A430243CA6020684169A269EA
:1013D00021F440711143416131492068884202D0B3
:1013E0003049884202D1FFF719FA01E0FFF706FA07
:1013F000E2690023192164253226B2F5004F6268A4
:1014000028D0A0FB0101930F9200FEF7DBFE0146FE
:10141000B0FBF5F06FF01802504301EB800006EBD3
:101420000010B0FBF5F000F0F002B1FBF5F002EBBC
:101430000012B1FBF5F06FF01803584301EB800088
:1014400006EB0010B0FBF5F000F00F00216810442F
:10145000886070BDA0FB010192185B41FEF7B2FEEF
:101460000146B0FBF5F00201B1FBF5F06FF0180397
:10147000584301EB800006EBC000B0FBF5F000F034
:10148000F80002EB4002B1FBF5F0584301EB80009D
:1014900006EBC000B0FBF5F000F00700D6E7000057
:1014A000001001400014014081628285C285002144
:1014B0004164222180F84210016921B10168CA68A3
:1014C00042F48072CA6001684A6942F001024A61CE
:1014D0000068C16841F02001C160002070472DE91B
:1014E000F843984617460D460446089E24E0701CB3
:1014F00022D0FFF749F8A0EB0800B0421AD8CEB1CD
:101500002068C168490717D5802D15D0402D13D00C
:101510000168C94309070FD401680025406800909D
:101520002046FFF7B2FE0820606484F84050012096
:10153000BDE8F8830320FBE72068006835EA000077
:1015400004D00020B842D2D00020F1E70120F9E712
:101550000148FFF76FBB000018000020FEE7000005
:10156000014A024900F023B8D115000814000020F8
:101570000907090E002804DB00F1E02080F80014C0
:10158000704700F00F0000F1E02080F8141D704754
:1015900002E008C8121F08C1002AFAD1704770473C
:1015A000002001E001C1121F002AFBD170472DE984
:1015B000F04116460F460446002503E03946B04781
:1015C000641C6D1C20780028F8D12846BDE8F08105
:1015D00013B54FF0FF33012269460248FFF750FD73
:1015E00000981CBD18000020FEF7DCFFFFF7F4FD9B
:1015F000FFF798FDFFF7CEFD012204490448FFF7ED
:10160000C9FC04A0FFF7ACFFFEE7000001000020CA
:1016100018000020B4AEBFDABFD8D6C64C4544B5DA
:10162000C60D0A00000000000000000001020304D3
:101630000607080900000000010203045C16000808
:101640000000002018000000901500087416000823
:101650001800002048040000A01500080000000049
:101660000100000010000000000000000024F40051
:041670000000000076
:040000050800018965
:00000001FF
